:1000000065C0000084C0000082C0000080C0000005
:100010007EC000007CC000007AC0000078C00000F4
:1000200076C0000074C0000072C0000070C0000004
:100030006EC000006CC000006AC0000068C0000014
:1000400066C0000064C0000062C0000060C0000024
:100050005EC000005CC000005AC0000058C0000034
:1000600056C0000024C4000052C0000050C0000070
:100070004EC000004CC000004AC0000048C0000054
:1000800046C0000044C0000042C0000040C0000064
:1000900013C500003CC000003AC0000038C000009A
:1000A00036C0000034C0000032C0000030C0000084
:1000B0002EC000002CC000002AC0000028C0000094
:1000C00026C0000024C0000022C0000011241FBE72
:1000D000CFEFD1E2DEBFCDBF00E00CBF18E0A0E063
:1000E000B2E0E8E1F0E300E00BBF02C007900D9240
:1000F000A83EB107D9F72CE0A8EEB8E001C01D92E8
:10010000A639B207E1F70E94AD0B0C940A1878CF1C
:10011000809100029091010208958093EA08089569
:100120008093EC080895FC01E851F74F658308952A
:100130008093EB08089520E030E090918C0998239B
:1001400011F021E030E0C901089580918B0990E021
:100150000895FC01E857F64F858190E00895362F09
:1001600020E0280F391FC9010895282F30E0C90168
:1001700008958070892F90E008950F931F93CF9377
:10018000DF938091D0099091D109892B09F4B8C0EF
:100190008091EA088E3F09F4A9C0809100029091F5
:1001A0000102892B29F41092CF0986E08093CE09B1
:1001B0008091CF0990E06091CE0970E0681B790BC7
:1001C0008857964F49D39091CF09980F9093CF09B4
:1001D0008091CE09981718F44AD2019771F0709166
:1001E000CF09472F50E0DA0111978A0102501040E1
:1001F00060E0ED01C857D64F18C08091CF09882321
:1002000009F071C086E090E073C0F901E857F64F3D
:1002100080818F3F19F481818F3F61F02017310772
:1002200019F488818F3F31F06F5F262F30E02A1755
:100230003B075CF36623A1F090E0421B530B08C020
:10024000E857F64FDF01A20FB31F8C9180839F5FA9
:10025000E92FF0E0E417F5079CF3761B7093CF09C4
:100260002091CF098091CE09281728F19091EA08B2
:1002700080918A099817B9F560918B096C5F60933A
:10028000CE09261788F4822F90E070E0681B790B66
:100290008857964FE1D29091CF09980F9093CF094C
:1002A0008091CE09981738F080918B09A82FB0E083
:1002B00020E090E00CC085E090E0909301028093F4
:1002C00000021EC0E857F64F8281980F2F5FE22F81
:1002D000F0E0AE17BF07B4F7A857B64F9095139646
:1002E0008C91891719F087E090E002C081E090E0DE
:1002F00090930102809300021092D1091092D009CC
:10030000DF91CF911F910F9108951F938091D00994
:100310009091D109019709F45DC081E090E090933C
:10032000D1098093D0098091EB08893940F49091EC
:10033000EC08892F8150863028F0933819F084E03A
:1003400090E02FC08FEF8093E8088093E9088091B8
:10035000EB08A82FB0E020E090E005C0E851F74F8F
:100360008281980F2F5FE22FF0E0AE17BF07B4F73E
:10037000A851B74F909513969C938091000290914D
:1003800001020697029708F438D11091EB081C5F20
:1003900088EE98E0612F70E035D1181759F082E0AF
:1003A00090E090930102809300021092D109109284
:1003B000D00910C08091EC08823029F48091EE08B9
:1003C00090E0069602C086E090E040D110920102D3
:1003D000109200021F91089598DF80910002909181
:1003E0000102892B39F4C9DE80910002909101024B
:1003F0000597C9F30895282F8091D0099091D109CC
:10040000892B91F42093EA0883E08093EC086093B1
:10041000ED08CA014093EE0880709093EF0885E0E4
:100420008093EB08D9CF0895FFCF282F8091D00972
:100430009091D109892BB1F42093EA0882E080934E
:10044000EC086093ED088093EE0884E08093EB085D
:10045000C3DF30918E0920E080918D09280F311D76
:10046000C9010895FFCF282F8091D0099091D1091B
:10047000892B71F42093EA0883E08093EC08609361
:10048000ED084093EE0884E08093EB08A5CF089533
:10049000FFCF282F8091D0099091D109892B91F419
:1004A0002093EA0882E08093EC086093ED0881E0F5
:1004B0008093EE0884E08093EB088EDF80918D09B5
:1004C00090E00895FFCF282F8091D0099091D10915
:1004D000892B51F42093EA0881E08093EC0882E0B4
:1004E0008093EB0879CF0895FFCF86C008950F93CE
:1004F0001F938C016F5F7F4F882777FD8095982F22
:100500000E94F1119B01AC0160E074E284EF99E478
:100510000E945611AB01BC01C80115D0892B19F4FA
:1005200020E030E00CC081E090E0909301028093E5
:1005300000021092D1091092D00921E030E0C901E7
:100540001F910F910895EF92FF920F931F937A01DD
:100550008B0182E48093C00088E98093C10086E02B
:100560008093C20060E074E284EF99E4A8019701EF
:100570000E9456110E94C311615070407093C500D3
:100580006093C40060E074E284E799E4A8019701F5
:100590000E94561120E030E040E451E40E94A51290
:1005A0006093840C7093850C8093860C9093870CD9
:1005B0002091840C3091850C4091860C5091870CD1
:1005C00060E070E08AE793E40E9456110E94C31134
:1005D0007093830C6093820C7298739A8FEF809360
:1005E000C6001092D20A1092D30A81E090E01F91C7
:1005F0000F91FF90EF90089508958091D30A809312
:10060000D20A0895AC01F8947398729A20E030E011
:1006100011C08091C00085FFFCCF8091C000806434
:100620008093C000FA01E20FF31F80818093C6001F
:100630002F5F3F4F2617370764F38091C00086FF76
:10064000FCCF7298739A7894C901089510928B0C1C
:1006500010928A0C2091820C3091830C265F3F4FC0
:10066000280F391F3093890C2093880C0895AF927E
:10067000BF92CF92DF92EF92FF920F931F938091E0
:100680008A0C90918B0C019690938B0C80938A0C22
:1006900020918A0C30918B0C8091880C9091890C60
:1006A0008217930718F421E030E074C0A090840C06
:1006B000B090850CC090860CD090870CC601B50117
:1006C0002BEA3AEA4AEA50E40E94A5127B018C0127
:1006D00020E030E040E85FE30E945211882314F4E8
:1006E00061E054C0C801B70120E030E04FE753E4B7
:1006F0000E94A11218160CF045C0C601B50120E0F9
:1007000030E04AE754E40E9456115B016C0120E09E
:1007100030E04AE755E40E94A5127B018C0120E0FD
:1007200030E040E85FE30E94521188231CF461E04E
:1007300070E024C0C801B70120E03FEF4FE757E465
:100740000E94A1121816B4F4C601B50120E030E0F1
:1007500040E251E40E94A5120E94C31180E991E099
:1007600005C0FC013197F1F76150704061157105CA
:10077000C1F70EC0C801B7010E94C311CB01019798
:10078000F1F706C0C801B7010E94C3116A95F1F7DD
:1007900020E030E0C9011F910F91FF90EF90DF90B2
:1007A000CF90BF90AF9008959091D20A8091D30AD4
:1007B000981719F420E030E017C09091D20A809188
:1007C000D30A981738F48091D30A9091D20A282F2F
:1007D00030E008C08091D30A9091D20A282F30E0EF
:1007E00020503F4F291B3109C90108951F93182F2D
:1007F000DBDF8F3F910591F0E091D30AF0E0EE52FC
:10080000F64F10838091D30A8F3F19F41092D30AC8
:1008100005C08091D30A8F5F8093D30A1F910895FA
:100820009091D20A8091D30A981711F4EFEF12C079
:10083000E091D20AF0E0EE52F64FE0818091D20AC8
:100840008F3F19F41092D20A05C08091D20A8F5FAF
:100850008093D20A8E2F0895EF92FF920F931F93E9
:10086000CF93DF937C01EB019091D20A8091D30A60
:10087000981719F400E010E012C096DF8C01C81739
:10088000D9070CF48E01C0E0D0E006C0C9DFF70143
:10089000EC0FFD1F80832196C017D107BCF3C80160
:1008A000DF91CF911F910F91FF90EF9008951F92CC
:1008B0000F920FB60F920BB60F9211242F933F9306
:1008C0004F935F936F937F938F939F93AF93BF9358
:1008D000EF93FF938091C60089DFFF91EF91BF9165
:1008E000AF919F918F917F916F915F914F913F91C8
:1008F0002F910F900BBE0F900FBE0F901F90189569
:10090000AC0120E030E00CC08091C80085FFFCCF36
:10091000FA01E20FF31F80818093CE002F5F3F4FDB
:10092000261737078CF30895DC019091540B8091C2
:10093000550B981711F480E008959091540B809115
:10094000550B981719F420E030E017C09091540B24
:100950008091550B981738F48091550B9091540B5A
:10096000282F30E008C08091550B9091540B282F10
:1009700030E020583F4F291B3109A9016217730746
:100980000CF4AB0120E030E020C09091540B80913A
:10099000550B981711F49FEF12C0E091540BF0E043
:1009A000EC52F54F90818091540B8F3719F41092CF
:1009B000540B05C08091540B8F5F8093540BFD0145
:1009C000E20FF31F90832F5F3F4F24173507ECF2A0
:1009D000842F08959091540B8091550B981719F41A
:1009E00020E030E017C09091540B8091550B981780
:1009F00038F48091550B9091540B282F30E008C0AB
:100A00008091550B9091540B282F30E020583F4F88
:100A1000291B3109C9010895482F9091540B8091E9
:100A2000550B9817D1F09091540B8091550B981756
:100A300038F48091550B9091540B282F30E008C06A
:100A40008091550B9091540B282F30E020583F4F48
:100A5000291B31092F37310591F0E091550BF0E05A
:100A6000EC52F54F40838091550B8F3719F410925B
:100A7000550B08958091550B8F5F8093550B08950A
:100A80009091540B8091550B981711F4EFEF12C011
:100A9000E091540BF0E0EC52F54FE0818091540B63
:100AA0008F3719F41092540B05C08091540B8F5F4F
:100AB0008093540B8E2F08951F920F920FB60F92B2
:100AC0000BB60F9211242F933F934F935F936F9325
:100AD0007F938F939F93AF93BF93EF93FF938091F7
:100AE000CE009ADFFF91EF91BF91AF919F918F91CF
:100AF0007F916F915F914F913F912F910F900BBE1E
:100B00000F900FBE0F901F901895DF93CF930F9209
:100B10000F92CDB7DEB7982F8A3099F48DE0898394
:100B20009A83FE0131969E012D5F3F4F8091C80050
:100B300085FFFCCF81918093CE00E217F307B1F7D8
:100B400006C08091C80085FFFCCF9093CE0080E066
:100B500090E00F900F90CF91DF9108959091540BFA
:100B60008091550B9817D1F39091540B8091550BB0
:100B7000981738F48091550B9091540B282F30E042
:100B800008C08091550B9091540B282F30E02058CD
:100B90003F4F291B3109232B09F39091540B80916E
:100BA000550B981711F4EFEF15C0E091540BF0E0DE
:100BB000EC52F54FE0818091540B8F3719F410926D
:100BC000540B05C08091540B8F5F8093540BED3014
:100BD00009F4EAE08E2F90E008950E94F1119B0144
:100BE000AC0160E074E284EF99E40E9456110E9427
:100BF000C3116150704022E42093C80028E920937B
:100C0000C90026E02093CA002FEF2093CE00109257
:100C1000540B1092550B272F332727FD3A9520931D
:100C2000CD006093CC007298739A85E895E06EEAE7
:100C300075E00E9457139093570B8093560B0895BD
:100C400088EB95E00E94F21360E071EE80E090E0A6
:100C5000C4DF789486E880937A0081E080937C00FA
:100C600008959C018130910551F08230910561F029
:100C7000892B71F481E080937C00179809C082E091
:100C800080937C00169804C083E080937C001598C4
:100C900084E08A95F1F7EAE7F0E080818061808363
:100CA000808180648083908194FFFDCF8EEF82B934
:100CB0002130310559F02230310579F0232B99F498
:100CC000809178009091790037D70DC0809178009D
:100CD000909179000E94AC0E06C0809178009091AE
:100CE00079000E94BC0F20917800309179008091AA
:100CF0005E0B90915F0B280F391F30935F0B209391
:100D00005E0B80915C0B90915D0B019690935D0B57
:100D100080935C0B0597A4F08091600B9091610B20
:100D20009093630B8093620B3093610B2093600B65
:100D300010925D0B10925C0B10925F0B10925E0B89
:100D400008959F938F9387EC95E09F938F930E94D4
:100D5000DF130F900F900F900F90089561E070E0F7
:100D600080E090E0C4DB41E050E06FE270E08FE1B2
:100D700090E041DB40E050E060E270E08EEF90E018
:100D80003ADB40E050E068E170E08EEF90E06BDB32
:100D90002FE38DE093E0215080409040E1F700C0C8
:100DA000000008950F931F93CF93DF9300D0CDB72A
:100DB000DEB720E23CE240E029833A834B83BE0168
:100DC0006F5F7F4F0E942513009789F006E71BE0B5
:100DD0000E940813F801819391938F01BE016F5F08
:100DE0007F4F80E090E00E942513009789F70F90D5
:100DF0000F900F90DF91CF911F910F910895209147
:100E0000780B3091790B22333105CCF4AAE7BBE0A3
:100E1000220F331FC901880F991F880F991F880F50
:100E2000991F280F391FF901E45FFD4F225E3D4FE6
:100E30008D919D9181939193E217F307C9F70895DE
:100E4000CF92DF92EF92FF920F931F93CF93DF9396
:100E5000CDB7DEB760970FB6F894DEBF0FBECDBF3B
:100E6000FE01319680E1DF011D928A95E9F700E9E4
:100E700015E07F010F2EF0EACF2EF5E0DF2EF02DEA
:100E800064E270E0F801819191918F01CEDAD7018F
:100E90008D939D937D010C151D0591F788898F9386
:100EA0008F858F938E858F938D858F938C858F9370
:100EB0008B858F938A858F9389858F9388858F9370
:100EC0008F818F938E818F938D818F938C818F9360
:100ED0008B818F938A818F9389818F931F9282E078
:100EE0008F938CEC95E09F938F930E94DF130FB646
:100EF000F894DEBF0FBECDBF60960FB6F894DEBF8C
:100F00000FBECDBFDF91CF911F910F91FF90EF905A
:100F1000DF90CF900895FC01EE0FFF1F9F01220F7D
:100F2000331F220F331F220F331FE20FF31FE45F23
:100F3000FD4F218D2F93208D2F9327892F93268965
:100F40002F9325892F9324892F930196880F991F1A
:100F5000DC01AA0FBB1FAA0FBB1FAA0FBB1F8A0F62
:100F60009B1FDC01A45FBD4F11968C9111978F934D
:100F70008C918F9381898F9380898F9387858F93AD
:100F800086858F9385858F9384858F9383858F93B3
:100F900082858F9381858F9380858F9387818F93AF
:100FA00086818F9385818F9384818F9383818F93A3
:100FB00082818F9381818F9380818F931F9283E0B1
:100FC0008F9381EF95E09F938F930E94DF138DB7EE
:100FD0009EB74E960FB6F8949EBF0FBE8DBF089574
:100FE000CF92DF92EF92FF920F931F93CF93DF93F5
:100FF000CDB7DEB760970FB6F894DEBF0FBECDBF9A
:10100000FE01319680E1DF011D928A95E9F700E942
:1010100015E07F010F2EF0EACF2EF5E0DF2EF02D48
:1010200068E270E0F801819191918F01FED9D701BA
:101030008D939D937D010C151D0591F7888D8F93E0
:101040008F898F938E898F938D898F938C898F93BE
:101050008B898F938A898F9389898F9388898F93BE
:101060008F858F938E858F938D858F938C858F93AE
:101070008B858F938A858F9389858F9388858F93AE
:101080008F818F938E818F938D818F938C818F939E
:101090008B818F938A818F9389818F931F9284E0B4
:1010A0008F938CE196E09F938F930E94DF130FB68E
:1010B000F894DEBF0FBECDBF60960FB6F894DEBFCA
:1010C0000FBECDBFDF91CF911F910F91FF90EF9099
:1010D000DF90CF900895CF92DF92EF92FF920F931F
:1010E0001F93CF93DF93CDB7DEB760970FB6F89419
:1010F000DEBF0FBECDBFFE01319680E1DF011D9244
:101100008A95E9F700E915E07F010F2EF0EACF2E6E
:10111000F5E0DF2EF02D6AE270E0F8018191919107
:101120008F0183D922D8D7018D939D937D010C1512
:101130001D0589F7888D8F938F898F938E898F9363
:101140008D898F938C898F938B898F938A898F93C5
:1011500089898F9388898F938F858F938E858F93BD
:101160008D858F938C858F938B858F938A858F93B5
:1011700089858F9388858F938F818F938E818F93AD
:101180008D818F938C818F938B818F938A818F93A5
:1011900089818F931F9285E08F938CE196E09F93D6
:1011A0008F930E94DF130FB6F894DEBF0FBECDBF42
:1011B00060960FB6F894DEBF0FBECDBFDF91CF9122
:1011C0001F910F91FF90EF90DF90CF900895909333
:1011D0006D0B80936C0B70936B0B60936A0B20917B
:1011E000720B3091730B232B61F49093750B8093EA
:1011F000740B7093730B6093720B10926B0B1092C5
:101200006A0B08959093750B8093740B7093730B16
:101210006093720B10926B0B10926A0B81E090E05E
:1012200090930B0280930A021092710B1092700B34
:10123000089581E090E090930B0280930A0210924F
:10124000730B1092720B1092710B1092700B8FEF48
:101250009FEF9093090280930802089581E090E047
:101260000E949B00019721F489E496E00E94F2130A
:1012700082E090E00E949B00019721F48EE596E0C9
:101280000E94F21384E090E00E949B00019721F4F9
:1012900081E796E00E94F21388E090E00E949B00B4
:1012A000019721F481E896E00E94F21380E190E03A
:1012B0000E949B00019721F485E996E00E94F213B9
:1012C00080E290E00E949B00019721F485EA96E07D
:1012D0000E94F21380E490E00E949B00019721F4A9
:1012E00085EB96E00C94F21308958430910599F003
:1012F00034F48230910551F0039791F025C0863087
:101300009105C1F094F00797D1F01EC08DEC96E0E6
:101310000C94F21308958EEF96E00C94F213089556
:101320008AE297E00C94F21308958DE597E00C940F
:10133000F21308958AE897E00C94F213089585EB70
:1013400097E00C94F21308958EED97E00C94F2134D
:1013500008950F931F93CF93DF93082F192FD62F44
:10136000C72F7F936F939F938F938AEF97E09F93FD
:101370008F930E94DF138EEF90E00E948D0083E830
:1013800090E00E94900060E270E080E090E00E94B7
:10139000930062E070E081E090E00E949300602F93
:1013A000712F82E090E00E9493008D2F9C2F0E946D
:1013B000B500BC0183E090E00E9493008D2F9C2F2C
:1013C0000E94B900BC0184E090E00E94930087E095
:1013D00090E00E94980000D80E9488000F900F9023
:1013E0000F900F900F900F908130910511F436DF20
:1013F00001C07BDFDF91CF911F910F9108952F9254
:101400003F924F925F926F927F928F929F92AF9294
:10141000BF92CF92DF92EF92FF920F931F93CF93E1
:10142000DF93CDB7DEB7AE970FB6F894DEBF0FBE31
:10143000CDBF823391050CF077C19AA789A7FE0131
:10144000319680E1DF011D928A95E9F720E935E0C8
:101450003EA72DA729A53AA5220F331FC901880F42
:10146000991F880F991F880F991F820F931FAC0136
:10147000445F5D4F5CA74BA71F015E0151E1A50EC4
:10148000B11C8F01CBA4DCA40F2EF0E9EF2EF5E008
:10149000FF2EF02D812C912C64E270E0D7018D910C
:1014A0009D917D010E941502F601219131916F01FC
:1014B000A901481B590BCA01992324F0D8014D9367
:1014C0005C9306C0919581959109F8019183808381
:1014D000D8018D919D918D01881699060CF44C01CF
:1014E0000A151B05C9F68E010F5E1F4F80E1F8013A
:1014F00011928A95E9F784E690E09A8B898BE9A5A9
:10150000FAA5EE0FFF1FCF01880F991F880F991FB3
:10151000880F991FE80FF91FE45FFD4F60897189FB
:10152000072E000C880B990B5CD769A37AA38BA3B9
:101530009CA358016E01F1E2CF0ED11C9401990CCD
:10154000440B550B2DA33EA34FA358A78824839487
:10155000912CD101ED90FD901D016DA17EA18FA177
:1015600098A53FD72B013C01B701FF0C880B990BC5
:1015700038D7A30192019AD69B01AC0169A17AA147
:101580008BA19CA1E2D7FAD66115710521F0F80173
:101590007183608303C0D8018D929C920E5F1F4FB0
:1015A0000C151D05B1F689A59AA5880F991FFC0198
:1015B000EE0FFF1FEE0FFF1FEE0FFF1F8E0F9F1F7F
:1015C000FC01E45FFD4F608971898BEF93E1A0D549
:1015D000072E000C880B990B04D7A3019201B5D7F5
:1015E000CDD6161617062CF470936F0B60936E0B06
:1015F00006C081E090E090936F0B80936E0B8EEFAE
:1016000090E00E948D0083E890E00E94900060E2EC
:1016100070E080E090E00E94930062E070E081E082
:1016200090E00E9493000F2EF0E9CF2EF5E0DF2E20
:10163000F02D02E010E0F601619171916F01C80197
:101640000E949300D501ED90FD905D01C7010E94BD
:10165000B500BC01C80101960E949300C7010E9419
:10166000B900BC01C80102960E9493000D5F1F4F94
:101670000A31110501F78CE190E00E9498000E9468
:10168000EC010E9488008130910509F04CC0E6DD34
:101690008EEF90E00E948D0083E890E00E94900021
:1016A0006EE170E080E090E00E94930062E070E004
:1016B00081E090E00E94930002E010E0CDA4DEA45F
:1016C000EBA4FCA4F601619171916F01C8010E9425
:1016D00093005701D7018D919D917D010E94B50026
:1016E000BC01C80101960E949300F501808191819F
:1016F0000E94B900BC01C80102960E9493000D5FD0
:101700001F4F0A311105F1F68CE190E00E9498001C
:101710000E94EC010E9488008130910511F49EDD49
:1017200003C0E3DD01C0E1DDAE960FB6F894DEBF85
:101730000FBECDBFDF91CF911F910F91FF90EF9022
:10174000DF90CF90BF90AF909F908F907F906F90E1
:101750005F904F903F902F9008959F92AF92BF92CD
:10176000CF92DF92EF92FF920F931F93CF93DF936D
:101770008CEF81B98EEF82B98FE787B98EE788B990
:1017800080E78AB981E18BB9E9DA59D459DA81E085
:1017900098E00E94F2138091640B9091650B019781
:1017A00041F440E050E068E170E08EEF90E00E948C
:1017B00033020F2EFCE29F2EF02DAA24A3940F2EAD
:1017C000FCEBCF2EF02D6894DD24D1F806E71BE06A
:1017D0000F2EF0EAFF2EF02D0F2EF0E5EF2EF02D5C
:1017E0000F2EFFEDBF2EF02D80E090E03ADA81E081
:1017F00090E037DA82E090E034DA8091600B9091EB
:10180000610B18161906F4F44091620B5091630BAA
:1018100014161506BCF4481B590BA1F01AF0DC2D68
:10182000CD2D02C0D92DCA2D60E270E081E190E09B
:101830000E94FB014D2F5C2F6EE170E081E190E092
:101840000E94FB0180915A0B90915B0B0196893E9F
:1018500023E092072CF490935B0B80935A0B8FC07C
:1018600010925B0B10925A0BF2D3181619060CF05B
:1018700081C03DD4EC01009709F47CC093DAF801F3
:10188000808191818630910509F45AC094F48230A8
:10189000910509F442C034F4009701F1019709F46D
:1018A0003EC060C08430910509F446C00CF438C0D5
:1018B00045C08930910551F134F487309105B1F07C
:1018C0000897F9F04FC08B30910509F44EC00CF425
:1018D00040C0873E934009F46CC044C0F801828147
:1018E00093818DDD81E090E02CDA3FC0F8016481C6
:1018F0007581828193816BDCB8B881E090E021DA58
:1019000034C097DC81E090E01CDA2FC0F8016481DC
:1019100075818281938176DC28C092DA26C06FDAE5
:10192000F801828193818233910524F080E090E078
:1019300008DA1BC0F0DA19C053DB17C0CCDB15C0C6
:1019400040E050E068E170E08EEF90E00E943302EA
:101950000CC01092660B1092670B1092680B1092DD
:10196000690B03C080E090E0ECD9FE012E2D1192AE
:101970002A95E9F7F8012F2D11922A95E9F789EFB9
:1019800090E00197F1F700C000008091660B909104
:10199000670BA091680BB091690B0196A11DB11D59
:1019A0008093660B9093670BA093680BB093690BC1
:1019B0001BCF87EE93E0C5D960E070E080E090E057
:1019C000C8DC80E090E0DF91CF911F910F91FF90F4
:1019D000EF90DF90CF90BF90AF909F9008954F927F
:1019E0005F926F927F928F929F92AF92BF92CF92AF
:1019F000DF92EF92FF920F931F93CF93DF93C090EC
:101A0000A805D090A905E090AA05F090AB0520911B
:101A1000B4053091B5054091B6055091B705C701A1
:101A2000B601DCD320E030E040E05FE38ED54B012F
:101A30005C018091200C9091210CBC01990F880BC6
:101A4000990BCFD4A5019401C8D32B013C01A5016A
:101A50009401C701B601C1D39B01AC01C301B2011E
:101A600025D4E62EF72E082F192F97FD03C0CCE5BD
:101A7000D8E002C0CAE5D8E020E030E048EC52E40B
:101A80006E2D7F2D802F912F60D578D4CB016AE009
:101A900070E03ED39C01992324F422273327281B8E
:101AA000390B3F932F9320E030E040E251E46E2D5C
:101AB0007F2D802F912F49D561D4CB016AE070E052
:101AC00027D39C01992324F422273327281B390B81
:101AD0003F932F936E2D7F2D802F912F4FD49B01FD
:101AE000772324F422273327261B370B3F932F938A
:101AF000DF93CF938EE598E09F938F9360D68DB759
:101B00009EB70A960FB6F8949EBF0FBE8DBF6E2D7E
:101B10007F2D802F912FDF91CF911F910F91FF90FB
:101B2000EF90DF90CF90BF90AF909F908F907F907D
:101B30006F905F904F90089520911A0C30911B0C7C
:101B400024363105F8F4092E000CAA0BBB0B40918A
:101B50002A0C50912B0C60912C0C70912D0C840F41
:101B6000951FA61FB71F80932A0C90932B0CA09350
:101B70002C0CB0932D0C2F5F3F4F30931B0C2093F8
:101B80001A0C08952436310554F160912A0C709195
:101B90002B0C80912C0C90912D0C24E630E040E031
:101BA00050E0C9D22093200C3093210C3F932F9307
:101BB00088E798E09F938F9302D610921B0C1092A7
:101BC0001A0C10922A0C10922B0C10922C0C1092C2
:101BD0002D0C05DF0F900F900F900F90089588E85F
:101BE00098E000D610921B0C10921A0C10922A0C3E
:101BF00010922B0C10922C0C10922D0C08954F92D9
:101C00005F926F927F928F929F92AF92BF92CF928C
:101C1000DF92EF92FF920F931F93CF93DF93C090C9
:101C2000A405D090A505E090A605F090A705209109
:101C3000B0053091B1054091B2055091B305C7018F
:101C4000B601CCD220E030E040E05FE37ED44B012F
:101C50005C0180911E0C90911F0CBC01990F880BA8
:101C6000990BBFD3A5019401B8D22B013C01A5016A
:101C70009401C701B601B1D29B01AC01C301B2010D
:101C800015D3E62EF72E082F192F97FD03C0CCE5AC
:101C9000D8E002C0CAE5D8E020E030E048EC52E4E9
:101CA0006E2D7F2D802F912F50D468D3CB016AE009
:101CB00070E02ED29C01992324F422273327281B7D
:101CC000390B3F932F9320E030E040E251E46E2D3A
:101CD0007F2D802F912F39D451D3CB016AE070E052
:101CE00017D29C01992324F422273327281B390B70
:101CF0003F932F936E2D7F2D802F912F3FD39B01EC
:101D0000772324F422273327261B370B3F932F9367
:101D1000DF93CF9383E998E09F938F9350D58DB74E
:101D20009EB70A960FB6F8949EBF0FBE8DBF6E2D5C
:101D30007F2D802F912FDF91CF911F910F91FF90D9
:101D4000EF90DF90CF90BF90AF909F908F907F905B
:101D50006F905F904F9008952091180C3091190C5E
:101D600024363105F8F4092E000CAA0BBB0B409168
:101D7000260C5091270C6091280C7091290C840F2F
:101D8000951FA61FB71F8093260C9093270CA09336
:101D9000280CB093290C2F5F3F4F3093190C2093E0
:101DA000180C08952436310554F16091260C709179
:101DB000270C8091280C9091290C24E630E040E01B
:101DC00050E0B9D120931E0C30931F0C3F932F93FA
:101DD0008DEA98E09F938F93F2D41092190C109291
:101DE000180C1092260C1092270C1092280C1092AE
:101DF000290C05DF0F900F900F900F90089588E841
:101E000098E0F0D41092190C1092180C1092260C35
:101E10001092270C1092280C1092290C08954F92C2
:101E20005F926F927F928F929F92AF92BF92CF926A
:101E3000DF92EF92FF920F931F93CF93DF93C090A7
:101E4000A005D090A105E090A205F090A3052091F7
:101E5000AC053091AD054091AE055091AF05C7017D
:101E6000B601BCD120E030E040E05FE36ED34B012F
:101E70005C0180911C0C90911D0CBC01990F880B8A
:101E8000990BAFD2A5019401A8D12B013C01A5016A
:101E90009401C701B601A1D19B01AC01C301B201FC
:101EA00005D2E62EF72E082F192F97FD03C0CCE59B
:101EB000D8E002C0CAE5D8E020E030E048EC52E4C7
:101EC0006E2D7F2D802F912F40D358D2CB016AE009
:101ED00070E01ED19C01992324F422273327281B6C
:101EE000390B3F932F9320E030E040E251E46E2D18
:101EF0007F2D802F912F29D341D2CB016AE070E052
:101F000007D19C01992324F422273327281B390B5E
:101F10003F932F936E2D7F2D802F912F2FD29B01DA
:101F2000772324F422273327261B370B3F932F9345
:101F3000DF93CF938DEB98E09F938F9340D48DB731
:101F40009EB70A960FB6F8949EBF0FBE8DBF6E2D3A
:101F50007F2D802F912FDF91CF911F910F91FF90B7
:101F6000EF90DF90CF90BF90AF909F908F907F9039
:101F70006F905F904F9008952091160C3091170C40
:101F800024363105F8F4092E000CAA0BBB0B409146
:101F9000220C5091230C6091240C7091250C840F1D
:101FA000951FA61FB71F8093220C9093230CA0931C
:101FB000240CB093250C2F5F3F4F3093170C2093C8
:101FC000160C08952436310554F16091220C70915D
:101FD000230C8091240C9091250C24E630E040E005
:101FE00050E0A9D020931C0C30931D0C3F932F93ED
:101FF00087ED98E09F938F93E2D31092170C109285
:10200000160C1092220C1092230C1092240C109299
:10201000250C05DF0F900F900F900F90089588E822
:1020200098E0E0D31092170C1092160C1092220C2C
:102030001092230C1092240C1092250C089560E04D
:1020400071EE80E090E00E94ED05789408950E9482
:10205000EA04181619060CF03EC080918C0C909181
:102060008D0C6FD38A3011F08D3091F480917E0CFD
:1020700090917F0C181619068CF510927F0C109217
:102080007E0C81E090E09093810C8093800C089509
:10209000882339F120917E0C30917F0CA9014F5F8C
:1020A0005F4F50937F0C40937E0CF901E25DF34F3C
:1020B000808380917E0C90917F0C8F349105A4F0E9
:1020C00010927F0C10927E0C81E090E09093810C36
:1020D0008093800C089580E090E0089580E090E087
:1020E000089580E090E0089580E090E00895809168
:1020F000800C9091810C181619063CF41092810CFA
:102100001092800C8EE29CE0089580E090E00895AB
:1021100097FB072E16F4009406D077FD08D027D041
:1021200007FC05D03EF4909581959F4F08957095DA
:1021300061957F4F0895052E97FB16F400940FD0FC
:1021400057FD05D028D007FC02D046F408C05095B2
:102150004095309521953F4F4F4F5F4F0895909593
:102160008095709561957F4F8F4F9F4F0895AA1B63
:10217000BB1B51E107C0AA1FBB1FA617B70710F072
:10218000A61BB70B881F991F5A95A9F780959095A4
:10219000BC01CD010895A1E21A2EAA1BBB1BFD01B3
:1021A0000DC0AA1FBB1FEE1FFF1FA217B307E40736
:1021B000F50720F0A21BB30BE40BF50B661F771F8E
:1021C000881F991F1A9469F760957095809590956E
:1021D0009B01AC01BD01CF0108955058BB27AA2730
:1021E0000ED075C166D130F06BD120F031F49F3F35
:1021F00011F41EF45BC10EF4E095E7FB51C1E92F29
:1022000077D180F3BA17620773078407950718F030
:1022100071F49EF58FC10EF4E0950B2EBA2FA02D10
:102220000B01B90190010C01CA01A0011124FF2783
:10223000591B99F0593F50F4503E68F11A16F0407E
:10224000A22F232F342F4427585FF3CF469537957D
:102250002795A795F0405395C9F77EF41F16BA0B42
:10226000620B730B840BBAF09150A1F0FF0FBB1FF0
:10227000661F771F881FC2F70EC0BA0F621F731F39
:10228000841F48F4879577956795B795F7959E3F96
:1022900008F0B3CF9395880F08F09927EE0F979524
:1022A00087950895D9D008F481E008950CD00FC126
:1022B00007D140F0FED030F021F45F3F19F0F0C0BC
:1022C000511139C1F3C014D198F39923C9F355239F
:1022D000B1F3951B550BBB27AA2762177307840719
:1022E00038F09F5F5F4F220F331F441FAA1FA9F3CF
:1022F00033D00E2E3AF0E0E830D091505040E695C1
:10230000001CCAF729D0FE2F27D0660F771F881F21
:10231000BB1F261737074807AB07B0E809F0BB0B10
:10232000802DBF01FF2793585F4F2AF09E3F510534
:1023300068F0B6C000C15F3FECF3983EDCF38695D1
:1023400077956795B795F7959F5FC9F7880F911DAA
:102350009695879597F90895E1E0660F771F881F96
:10236000BB1F621773078407BA0720F0621B730B49
:10237000840BBA0BEE1F88F7E095089504D068949B
:10238000B111D9C00895BCD088F09F5790F0B92FF3
:102390009927B751A0F0D1F0660F771F881F991FBA
:1023A0001AF0BA95C9F712C0B13081F0C3D0B1E0CC
:1023B0000895C0C0672F782F8827B85F39F0B93FDC
:1023C000CCF3869577956795B395D9F73EF49095BC
:1023D0008095709561957F4F8F4F9F4F0895E8943A
:1023E00009C097FB3EF490958095709561957F4F5D
:1023F0008F4F9F4F9923A9F0F92F96E9BB2793950B
:10240000F695879577956795B795F111F8CFFAF41A
:10241000BB0F11F460FF1BC06F5F7F4F8F4F9F4F4B
:1024200016C0882311F096E911C0772321F09EE8A9
:10243000872F762F05C0662371F096E8862F70E00F
:1024400060E02AF09A95660F771F881FDAF7880FE9
:102450009695879597F90895990F0008550FAA0B3F
:10246000E0E8FEEF16161706E807F907C0F01216A7
:102470001306E407F50798F0621B730B840B950BAA
:1024800039F40A2661F0232B242B252B21F40895FF
:102490000A2609F4A140A6958FEF811D811D08959C
:1024A00097F99F6780E870E060E008959FEF80EC07
:1024B000089500240A9416161706180609060895AA
:1024C00000240A9412161306140605060895092E10
:1024D0000394000C11F4882352F0BB0F40F4BF2B7F
:1024E00011F460FF04C06F5F7F4F8F4F9F4F0895BF
:1024F00057FD9058440F551F59F05F3F71F04795B5
:10250000880F97FB991F61F09F3F79F08795089599
:10251000121613061406551FF2CF4695F1DF08C0B8
:10252000161617061806991FF1CF869571056105D5
:1025300008940895E894BB2766277727CB0197F97D
:1025400008958ADF08F48FEF08950BD0C0CFB1DF74
:1025500028F0B6DF18F0952309F0A2CFA7CF1124F9
:10256000EACFC6DFA0F3959FD1F3950F50E0551F3A
:10257000629FF001729FBB27F00DB11D639FAA27D8
:10258000F00DB11DAA1F649F6627B00DA11D661F27
:10259000829F2227B00DA11D621F739FB00DA11D48
:1025A000621F839FA00D611D221F749F3327A00D02
:1025B000611D231F849F600D211D822F762F6A2F9E
:1025C00011249F5750408AF0E1F088234AF0EE0F23
:1025D000FF1FBB1F661F771F881F91505040A9F730
:1025E0009E3F510570F05CCFA6CF5F3FECF3983E65
:1025F000DCF3869577956795B795F795E7959F5F97
:10260000C1F7FE2B880F911D9695879597F9089530
:10261000FC0188279927E89421912032E9F3293099
:1026200010F02E30C8F32B3239F02D3231F468948B
:1026300003C035D0820F911D219120532A30C8F359
:102640001EF4909581959F4F089548E55BE000C08A
:10265000FA01A191B081009719F41097E1F0CD0132
:10266000DC01CD010D90002011F4C00113C0FB016D
:102670002191222319F02015D9F7F3CFFB012191E5
:10268000201519F41E92119606C02223C1F70D9051
:102690000020A1F7D001FA01A193B08308957AE058
:1026A000979F902D879F802D910D112408950F9352
:1026B0001F93CF93DF93009731F46115710519F4DF
:1026C00080E090E039C08B01EC016EE070E081E0C9
:1026D00090E0A6D2FC01892B99F380E88383011551
:1026E000110571F01387028781E8838380918C0C38
:1026F00090918D0C892B21F4F0938D0CE0938C0C30
:102700002097C9F0D187C0878381826083838091BD
:102710008E0C90918F0C892B71F4F0938F0CE093B9
:102720008E0C8091900C9091910C892B21F4F09358
:10273000910CE093900CCF01DF91CF911F910F91FD
:102740000895CF93DF93EC012B8120FF33C026FF48
:102750000AC02F7B2B838E819F8101969F838E835E
:102760008A8190E029C022FF0FC0E881F981808131
:10277000082E000C990B009719F420622B831AC0C5
:102780003196F983E8830EC0EA85FB85199597FF9A
:1027900009C02B81019611F080E201C080E1822BFB
:1027A0008B8308C02E813F812F5F3F4F3F832E8355
:1027B000992702C08FEF9FEFDF91CF910895CF93BC
:1027C000DF93CDB7DEB7AE014A5F5F4FFA0161918B
:1027D0007191AF0180918E0C90918F0C33D0DF916D
:1027E000CF9108950F931F93CF93DF93E0918E0CB9
:1027F000F0918F0C238121FF1BC08C01D0E0C0E041
:10280000F80181918F0160918E0C70918F0CDB012A
:102810001896ED91FC911997882331F01995892B21
:1028200079F3DFEFCFEFECCF8AE01995892B19F020
:102830008FEF9FEF02C08D2F9C2FDF91CF911F91C3
:102840000F9108952F923F924F925F926F927F92D5
:102850008F929F92AF92BF92CF92DF92EF92FF92B0
:102860000F931F93CF93DF93CDB7DEB72C970FB69F
:10287000F894DEBF0FBECDBF7C016B018A01FC0165
:1028800017821682838181FFB0C1CE0101964C016F
:10289000F7019381F60193FD859193FF81916F017B
:1028A000882309F49EC1853239F493FD859193FF05
:1028B00081916F01853221F4B70190E015D3E8CF03
:1028C000512C312C20E02032A0F48B3269F030F40E
:1028D000803259F0833269F420612CC08D3239F096
:1028E000803339F4216026C02260246023C0286030
:1028F00021C027FD27C030ED380F3A3078F426FF8D
:1029000006C0FAE05F9E300D1124532E13C08AE0FA
:10291000389E300D1124332E20620CC08E3221F4EB
:1029200026FD5FC1206406C08C3611F4206802C009
:10293000883641F4F60193FD859193FF81916F01F3
:102940008111C1CF982F9F7D9554933028F40C5F4F
:102950001F4FFFE3F9830DC0833631F0833771F0E9
:10296000833509F057C021C0F801808189830E5F4B
:102970001F4F44244394512C540114C03801F2E0F9
:102980006F0E711CF801A080B18026FF03C0652D79
:1029900070E002C06FEF7FEFC5012C879AD22C0147
:1029A00083012C852F77222E16C03801F2E06F0E9E
:1029B000711CF801A080B18026FF03C0652D70E076
:1029C00002C06FEF7FEFC5012C8771D22C012C85DF
:1029D0002068222E830123FC19C0832D90E0481625
:1029E0005906A0F4B70180E290E07ED23A94F5CF88
:1029F000F50127FC859127FE81915F01B70190E0E9
:102A000073D231103A94F1E04F1A51084114510435
:102A100079F7DEC0843611F0893631F5F80127FFE9
:102A200007C060817181828193810C5F1F4F08C054
:102A300060817181072E000C880B990B0E5F1F4F70
:102A40002F76722E97FF09C09095809570956195AD
:102A50007F4F8F4F9F4F2068722E2AE030E0A401F5
:102A60007BD2A82EA81843C0853729F42F7EB22E1A
:102A70002AE030E025C0F22FF97FBF2E8F36C1F05B
:102A800018F4883579F0ADC0803719F0883721F017
:102A9000A8C02F2F2061B22EB4FE0DC08B2D8460F4
:102AA000B82E09C024FF0AC09F2F9660B92E06C019
:102AB00028E030E005C020E130E002C020E132E053
:102AC000F801B7FE07C060817181828193810C5F3C
:102AD0001F4F06C06081718180E090E00E5F1F4F44
:102AE000A4013AD2A82EA818FB2DFF777F2E76FEE0
:102AF0000BC0372D3E7FA51450F474FE0AC072FC43
:102B000008C0372D3E7E05C0BA2C372D03C0BA2C25
:102B100001C0B52C34FF0DC0FE01EA0DF11D80810E
:102B2000803311F4397E09C032FF06C0B394B394E8
:102B300004C0832F867809F0B39433FD12C030FFB0
:102B400006C05A2CB31418F4530C5B18B32CB314EE
:102B500060F4B70180E290E03C87C6D1B3943C8535
:102B6000F6CFB31410F43B1801C0312C34FF11C060
:102B7000B70180E390E03C87B7D13C8532FF16C0B7
:102B800031FD03C088E790E002C088E590E0B7011E
:102B90000CC0832F867851F031FF02C08BE201C058
:102BA00080E237FD8DE2B70190E09ED1A51430F4AC
:102BB000B70180E390E098D15A94F8CFAA94F40139
:102BC000EA0DF11D8081B70190E08ED1A110F6CF02
:102BD000332009F45DCEB70180E290E085D13A94CC
:102BE000F7CFF7018681978102C08FEF9FEF2C9678
:102BF0000FB6F894DEBF0FBECDBFDF91CF911F910E
:102C00000F91FF90EF90DF90CF90BF90AF909F908B
:102C10008F907F906F905F904F903F902F9008958E
:102C20000F931F93CF93DF93869F8001879F100D93
:102C3000969F100D1124C8010DD0EC01009721F0D2
:102C4000A80160E070E03ED1CE01DF91CF911F91ED
:102C50000F910895CF93DF938230910510F482E0B5
:102C600090E0E091940CF091950C20E030E0C0E011
:102C7000D0E0309711F14081518148175907C0F0D9
:102C80004817590761F482819381209719F09B833B
:102C90008A832BC09093950C8093940C26C02115A9
:102CA000310519F04217530718F49A01BE01DF01EC
:102CB000EF010280F381E02DDCCF2115310509F110
:102CC000281B390B2430310590F412968D919C917C
:102CD00013976115710521F0FB019383828304C072
:102CE0009093950C8093940CFD01329644C0FD01A5
:102CF000E20FF31F81939193225031092D933C935E
:102D00003AC02091920C3091930C232B41F42091E6
:102D10000402309105023093930C2093920C209181
:102D20000202309103022115310541F42DB73EB75F
:102D30004091060250910702241B350BE091920C42
:102D4000F091930CE217F307A0F42E1B3F0B28170A
:102D5000390778F0AC014E5F5F4F2417350748F014
:102D60004E0F5F1F5093930C4093920C819391935D
:102D700002C0E0E0F0E0CF01DF91CF9108950F9322
:102D80001F93CF93DF93009709F48CC0FC01329717
:102D9000138212820091940C1091950C011511056B
:102DA00081F420813181820F931F2091920C309108
:102DB000930C2817390779F5F093930CE093920C54
:102DC00071C0D80140E050E0AE17BF0750F4129632
:102DD0002D913C911397AD012115310509F1D901D0
:102DE000F3CF9D01DA013383228360817181860FE5
:102DF000971F8217930769F4EC0128813981260F08
:102E0000371F2E5F3F4F318320838A819B819383BD
:102E10008283452B29F4F093950CE093940C42C0E7
:102E20001396FC93EE931297ED01499159919E01EF
:102E3000240F351FE217F30771F480819181840F0D
:102E4000951F029611969C938E938281938113967F
:102E50009C938E931297E0E0F0E0D80112968D914A
:102E60009C911397009719F0F8018C01F6CF8D9182
:102E70009C9198012E5F3F4F820F931F2091920CDF
:102E80003091930C2817390769F4309729F4109280
:102E9000950C1092940C02C0138212821093930C22
:102EA0000093920CDF91CF911F910F910895FC0137
:102EB0000590615070400110D8F7809590958E0F65
:102EC0009F1F0895DC0101C06D9341505040E0F711
:102ED0000895FC016150704001900110D8F7809571
:102EE00090958E0F9F1F08950F931F93CF93DF939D
:102EF000FB01238121FD03C08FEF9FEF28C022FF3C
:102F000016C046815781248135814217530744F406
:102F1000A081B1819D012F5F3F4F318320838C932E
:102F2000268137812F5F3F4F3783268310C0EB0107
:102F3000092F182F0084F185E02D1995892BE1F6D2
:102F40008E819F8101969F838E83812F902FDF91A9
:102F5000CF911F910F910895FA01AA27283051F1BE
:102F6000203181F1E8946F936E7F6E5F7F4F8F4FBA
:102F70009F4FAF4FB1E03ED0B4E03CD0670F781F19
:102F8000891F9A1FA11D680F791F8A1F911DA11DFE
:102F90006A0F711D811D911DA11D20D009F4689437
:102FA0003F912AE0269F11243019305D3193DEF6DF
:102FB000CF010895462F4770405D4193B3E00FD095
:102FC000C9F7F6CF462F4F70405D4A3318F0495D80
:102FD00031FD4052419302D0A9F7EACFB4E0A69563
:102FE0009795879577956795BA95C9F70097610585
:102FF000710508959B01AC010A2E069457954795DB
:1030000037952795BA95C9F7620F731F841F951FCF
:08301000A01D0895F894FFCF04
:1030180001000000960C2000FFFF010070003D0138
:103028008E03C2028E03C20270003D01640070006C
:1030380033018E03C2028E03C202250056016400CA
:10304800250000023203000232030002CD00000214
:10305800C800CD0000023203000232030002CD0096
:1030680000026400CD0000023203000232030002B5
:10307800CD0000026400CD000002320300023203DA
:103088000002CD0000026400CD00000232030002FD
:1030980032030002CD0000026400CD0000023203BA
:1030A800000232030002CD000002640066009A01AB
:1030B800980366029803660266009A016400CD00D0
:1030C80000023203000232030002CD000002640055
:1030D800DE006501A203C2028E03C2022F00600156
:1030E800C8005C003D01C003E0025C039A02700066
:1030F8003D01C8005C003D01C003E002CF039F0210
:1031080070003D01C8005C003D0120039002CF0320
:103118009F0270003D01C80052002901A203C202AB
:103128008E03AE02A2004701C80052002901A20383
:10313800C2028E03C2022F006001C80070003D0168
:103148008E03C2028E03C20270003D01640070004B
:103158003D018E03C2028E03C20270003D0164006D
:1031680070003D018E03C2028E03C20270003D0151
:10317800640070003D018E03C2028E03C20270001B
:103188003D016400660033019803CC029803CC0229
:10319800660033013200660033019803CC029803BD
:1031A800CC02660033013200660033019803CC027A
:1031B8009803CC026600330132006600330198039D
:1031C800CC029803CC02660033013200660033015A
:1031D8009803CC029803CC026600330132006600E3
:1031E80033019803CC029803CC0266003301320005
:1031F800660033019803CC029803CC0266003301C1
:103208003200660033019803CC029803CC026600B2
:1032180033013200660033019803CC029803CC02D4
:10322800660033013200000033019803320398032B
:103238003203000033013200000033019803CC024E
:103248009803CC0200003301320066003301980372
:10325800CC029803CC02660033013200000033012F
:103268009803320398033203000033013200000050
:1032780033019803CC029803CC02000033013200DA
:10328800660033019803CC029803CC026600330130
:1032980032006600CD00FF03CC02FF03CC026600BB
:1032A800CD00640066003301FF03CC02FF03CC02AB
:1032B800660033016400660033019803CC0298036A
:1032C800CC026600330164006600CD00FF03CC0227
:1032D800FF03CC026600CD00640066003301FF03E3
:1032E800CC02FF03CC0266003301640066003301A0
:1032F8009803CC029803CC026600330164009A015B
:10330800CC02320300029803660200003301640015
:10331800330100023203000298030002CD000002CC
:103328006400330100029803000232030002000027
:103338003301640033010002980300029803660217
:1033480066009A016400CD00000266023301FF03A3
:10335800CC0266009A016400CD000002CC02000293
:103368003203000266000002640066000002CC021C
:103378000002FF03CC02CD000002640066000002D8
:10338800CC0200029803660266009A016400CD0030
:1033980000023203000232030002CD000002640082
:1033A800020004000E0011000500070010000600CE
:1033B8000040304400C0354400C035440080994383
:1033C80000007943000079432323232073656E733B
:1033D8006F72496E69740025640A0A0025643A7B95
:1033E80025642C2025642C2025642C2025642C2081
:1033F80025642C2025642C2025642C2025647D0A36
:103408000025643A25642C25642C25642C25642C1D
:1034180025642C25642C25642C25642C25642C25F6
:10342800642C25642C25642C25640A0025643A251F
:10343800642C25642C25642C25642C25642C256497
:103448002C25642C25642C25642C25642C25642CBF
:1034580025640A0025643B0A00496E70757420765D
:103468006F6C74616765206572726F722100416EBE
:10347800676C65206C696D6974206572726F722162
:10348800004F76657268656174206572726F72218B
:10349800004F7574206F662072616E6765206572D3
:1034A800726F722100436865636B73756D20657276
:1034B800726F7221004F7665726C6F61642065725D
:1034C800726F722100496E737472756374696F6EDE
:1034D80020636F6465206572726F722100434F4DDF
:1034E8004D5F54584641494C3A204661696C6564C1
:1034F800207472616E736D697420696E737472756D
:103508006374696F6E207061636B65742100434F4B
:103518004D4D5F54584552524F523A20496E636F91
:10352800727265637420696E737472756374696FFF
:103538006E207061636B65742100434F4D4D5F527F
:10354800584641494C3A204661696C656420676574
:103558007420737461747573207061636B65742073
:1035680066726F6D206465766963652100434F4D0F
:103578004D5F525857414954494E473A204E6F774C
:1035880020726563696576696E6720737461747506
:1035980073207061636B65742100434F4D4D5F521A
:1035A8005854494D454F55543A2054686572652022
:1035B8006973206E6F207374617475732070616312
:1035C8006B65742100434F4D4D5F5258434F525223
:1035D8005550543A20496E636F7272656374207354
:1035E8007461747573207061636B6574210054682D
:1035F800697320697320756E6B6E6F776E206572C4
:10360800726F7220636F6465210025642025640A47
:10361800002323232073746172740D002323232055
:103628006D6F7665203100232323206D6F74696FD9
:103638006E436F756E74203E206D61782E206D6F1D
:1036480074696F6E436F756E743A25642C206D61D2
:10365800783A25640A00232323206D6F74696F6EFE
:10366800436F756E743A25640A002D002B002323DE
:103678002320677261766974795820257325642E32
:1036880025642564470D0A00232323206D4779729A
:103698006F582025640D0A00232323204F6F707371
:1036A800210D0023232320677261766974795920DC
:1036B800257325642E25642564470D0A00232323DA
:1036C800206D4779726F592025640D0A0023232342
:1036D80020677261766974795A20257325642E25CE
:1036E800642564470D0A00232323206D4779726FF0
:0836F8005A2025640D0A0000B0
:00000001FF
