S01700004763634170706C69636174696F6E322E737265635A
S113000065C0000084C0000082C0000080C0000001
S11300107EC000007CC000007AC0000078C00000F0
S113002076C0000074C0000072C0000070C0000000
S11300306EC000006CC000006AC0000068C0000010
S113004066C0000064C0000062C0000060C0000020
S11300505EC000005CC000005AC0000058C0000030
S113006056C0000024C4000052C0000050C000006C
S11300704EC000004CC000004AC0000048C0000050
S113008046C0000044C0000042C0000040C0000060
S113009013C500003CC000003AC0000038C0000096
S11300A036C0000034C0000032C0000030C0000080
S11300B02EC000002CC000002AC0000028C0000090
S11300C026C0000024C0000022C0000011241FBE6E
S11300D0CFEFD1E2DEBFCDBF00E00CBF18E0A0E05F
S11300E0B2E0EAE9F8E200E00BBF02C007900D922B
S11300F0AA36B107D9F72CE0AAE6B8E001C01D92F0
S1130100A030B207E1F70E94840B0C944B1478CF13
S11301108091000290910102089580936C080895E3
S113012080936E080895FC01E659F74F658308959E
S113013080936D08089520E030E090910E09982393
S113014011F021E030E0C901089580910D0990E09B
S11301500895FC01E65FF64F858190E00895362FFF
S113016020E0280F391FC9010895282F30E0C90164
S113017008958070892F90E008950F931F93CF9373
S1130180DF938091520990915309892B09F4B8C0E7
S113019080916C088E3F09F4A9C08091000290916F
S11301A00102892B29F41092510986E080935009A9
S11301B08091510990E06091500970E0681B790BBF
S11301C0865F964F49D390915109980F90935109A6
S11301D080915009981718F44AD2019771F07091E0
S11301E05109472F50E0DA0111978A01025010405B
S11301F060E0ED01C65FD64F18C080915109882395
S113020009F071C086E090E073C0F901E65FF64F33
S113021080818F3F19F481818F3F61F0201731076E
S113022019F488818F3F31F06F5F262F30E02A1751
S11302303B075CF36623A1F090E0421B530B08C01C
S1130240E65FF64FDF01A20FB31F8C9180839F5F9F
S1130250E92FF0E0E417F5079CF3761B709351093E
S11302602091510980915009281728F190916C0828
S113027080910C099817B9F560910D096C5F609332
S11302805009261788F4822F90E070E0681B790BE0
S1130290865F964FE1D290915109980F909351093E
S11302A080915009981738F080910D09A82FB0E07B
S11302B020E090E00CC085E090E0909301028093F0
S11302C000021EC0E65FF64F8281980F2F5FE22F77
S11302D0F0E0AE17BF07B4F7A65FB64F909513963C
S11302E08C91891719F087E090E002C081E090E0DA
S11302F090930102809300021092530910925209C4
S1130300DF91CF911F910F9108951F93809152090E
S113031090915309019709F45DC081E090E09093B6
S113032053098093520980916D08893940F4909162
S11303306E08892F8150863028F0933819F084E0B4
S113034090E02FC08FEF80936A0880936B088091B0
S11303506D08A82FB0E020E090E005C0E659F74F03
S11303608281980F2F5FE22FF0E0AE17BF07B4F73A
S1130370A659B74F909513969C9380910002909143
S113038001020697029708F438D110916D081C5F9A
S11303908AE698E0612F70E035D1181759F082E0B1
S11303A090E09093010280930002109253091092FE
S11303B0520910C080916E08823029F4809170082F
S11303C090E0069602C086E090E040D110920102CF
S11303D0109200021F91089598DF8091000290917D
S11303E00102892B39F4C9DE809100029091010247
S11303F00597C9F30895282F8091520990915309C4
S1130400892B91F420936C0883E080936E086093A9
S11304106F08CA014093700880709093710885E05A
S113042080936D08D9CF0895FFCF282F809152096A
S113043090915309892BB1F420936C0882E0809346
S11304406E0860936F088093700884E080936D0851
S1130450C3DF3091100920E080910F09280F311D6E
S1130460C9010895FFCF282F809152099091530913
S1130470892B71F420936C0883E080936E08609359
S11304806F084093700884E080936D08A5CF0895A9
S1130490FFCF282F8091520990915309892B91F411
S11304A020936C0882E080936E0860936F0881E06B
S11304B08093700884E080936D088EDF80910F092B
S11304C090E00895FFCF282F80915209909153090D
S11304D0892B51F420936C0881E080936E0882E0AC
S11304E080936D0879CF0895FFCF86C008950F9348
S11304F01F938C016F5F7F4F882777FD8095982F1E
S11305000E94320E9B01AC0160E074E284EF99E436
S11305100E94970DAB01BC01C80115D0892B19F4B9
S113052020E030E00CC081E090E0909301028093E1
S11305300002109253091092520921E030E0C901DF
S11305401F910F910895EF92FF920F931F937A01D9
S11305508B0182E48093C00088E98093C10086E027
S11305608093C20060E074E284EF99E4A8019701EB
S11305700E94970D0E94040E615070407093C50054
S11305806093C40060E074E284E799E4A8019701F1
S11305900E94970D20E030E040E451E40E94E60E12
S11305A06093EE0B7093EF0B8093F00B9093F10B31
S11305B02091EE0B3091EF0B4091F00B5091F10B29
S11305C060E070E08AE793E40E94970D0E94040EB5
S11305D07093ED0B6093EC0B7298739A8FEF80938A
S11305E0C6001092540A1092550A81E090E01F91BF
S11305F00F91FF90EF90089508958091550A80938C
S1130600540A0895AC01F8947398729A20E030E08B
S113061011C08091C00085FFFCCF8091C000806430
S11306208093C000FA01E20FF31F80818093C6001B
S11306302F5F3F4F2617370764F38091C00086FF72
S1130640FCCF7298739A7894C90108951092F50BAF
S11306501092F40B2091EC0B3091ED0B265F3F4F81
S1130660280F391F3093F30B2093F20B0895AF92A8
S1130670BF92CF92DF92EF92FF920F931F938091DC
S1130680F40B9091F50B01969093F50B8093F40B7A
S11306902091F40B3091F50B8091F20B9091F30BB8
S11306A08217930718F421E030E074C0A090EE0B99
S11306B0B090EF0BC090F00BD090F10BC601B501D8
S11306C02BEA3AEA4AEA50E40E94E60E7B018C01E6
S11306D020E030E040E85FE30E94930D882314F4A7
S11306E061E054C0C801B70120E030E04FE753E4B3
S11306F00E94E20E18160CF045C0C601B50120E0B8
S113070030E04AE754E40E94970D5B016C0120E05D
S113071030E04AE755E40E94E60E7B018C0120E0BC
S113072030E040E85FE30E94930D88231CF461E00D
S113073070E024C0C801B70120E03FEF4FE757E461
S11307400E94E20E1816B4F4C601B50120E030E0B0
S113075040E251E40E94E60E0E94040E80E991E01A
S113076005C0FC013197F1F76150704061157105C6
S1130770C1F70EC0C801B7010E94040ECB01019756
S1130780F1F706C0C801B7010E94040E6A95F1F79B
S113079020E030E0C9011F910F91FF90EF90DF90AE
S11307A0CF90BF90AF9008959091540A8091550ACC
S11307B0981719F420E030E017C09091540A809102
S11307C0550A981738F48091550A9091540A282FA5
S11307D030E008C08091550A9091540A282F30E0E7
S11307E020503F4F291B3109C90108951F93182F29
S11307F0DBDF8F3F910591F0E091550AF0E0EC5A70
S1130800F64F10838091550A8F3F19F41092550AC0
S113081005C08091550A8F5F8093550A1F910895F2
S11308209091540A8091550A981711F4EFEF12C071
S1130830E091540AF0E0EC5AF64FE0818091540ABA
S11308408F3F19F41092540A05C08091540A8F5FA7
S11308508093540A8E2F0895EF92FF920F931F9363
S1130860CF93DF937C01EB019091540A8091550A58
S1130870981719F400E010E012C096DF8C01C81735
S1130880D9070CF48E01C0E0D0E006C0C9DFF7013F
S1130890EC0FFD1F80832196C017D107BCF3C8015C
S11308A0DF91CF911F910F91FF90EF9008951F92C8
S11308B00F920FB60F920BB60F9211242F933F9302
S11308C04F935F936F937F938F939F93AF93BF9354
S11308D0EF93FF938091C60089DFFF91EF91BF9161
S11308E0AF919F918F917F916F915F914F913F91C4
S11308F02F910F900BBE0F900FBE0F901F90189565
S1130900AC0120E030E00CC08091C80085FFFCCF32
S1130910FA01E20FF31F80818093CE002F5F3F4FD7
S1130920261737078CF30895DC019091D60A80913D
S1130930D70A981711F480E008959091D60A80910F
S1130940D70A981719F420E030E017C09091D60A1E
S11309508091D70A981738F48091D70A9091D60AD3
S1130960282F30E008C08091D70A9091D60A282F0A
S113097030E020583F4F291B3109A9016217730742
S11309800CF4AB0120E030E020C09091D60A8091B5
S1130990D70A981711F49FEF12C0E091D60AF0E03D
S11309A0EA5AF54F90818091D60A8F3719F4109244
S11309B0D60A05C08091D60A8F5F8093D60AFD01BE
S11309C0E20FF31F90832F5F3F4F24173507ECF29C
S11309D0842F08959091D60A8091D70A981719F414
S11309E020E030E017C09091D60A8091D70A98177A
S11309F038F48091D70A9091D60A282F30E008C0A5
S1130A008091D70A9091D60A282F30E020583F4F82
S1130A10291B3109C9010895482F9091D60A809164
S1130A20D70A9817D1F09091D60A8091D70A9817CF
S1130A3038F48091D70A9091D60A282F30E008C064
S1130A408091D70A9091D60A282F30E020583F4F42
S1130A50291B31092F37310591F0E091D70AF0E0D5
S1130A60EA5AF54F40838091D70A8F3719F41092D0
S1130A70D70A08958091D70A8F5F8093D70A089583
S1130A809091D60A8091D70A981711F4EFEF12C00B
S1130A90E091D60AF0E0EA5AF54FE0818091D60A57
S1130AA08F3719F41092D60A05C08091D60A8F5F49
S1130AB08093D60A8E2F08951F920F920FB60F922D
S1130AC00BB60F9211242F933F934F935F936F9321
S1130AD07F938F939F93AF93BF93EF93FF938091F3
S1130AE0CE009ADFFF91EF91BF91AF919F918F91CB
S1130AF07F916F915F914F913F912F910F900BBE1A
S1130B000F900FBE0F901F901895DF93CF930F9205
S1130B100F92CDB7DEB7982F8A3099F48DE0898390
S1130B209A83FE0131969E012D5F3F4F8091C8004C
S1130B3085FFFCCF81918093CE00E217F307B1F7D4
S1130B4006C08091C80085FFFCCF9093CE0080E062
S1130B5090E00F900F90CF91DF9108959091D60A75
S1130B608091D70A9817D1F39091D60A8091D70A29
S1130B70981738F48091D70A9091D60A282F30E03C
S1130B8008C08091D70A9091D60A282F30E02058C7
S1130B903F4F291B3109232B09F39091D60A8091E9
S1130BA0D70A981711F4EFEF15C0E091D60AF0E0D8
S1130BB0EA5AF54FE0818091D60A8F3719F41092E2
S1130BC0D60A05C08091D60A8F5F8093D60AED308D
S1130BD009F4EAE08E2F90E008950E94320E9B0102
S1130BE0AC0160E074E284EF99E4A1D70E94040EA2
S1130BF06150704022E42093C80028E92093C90082
S1130C0026E02093CA002FEF2093CE001092D60A3C
S1130C101092D70A272F332727FD3A952093CD002A
S1130C206093CC007298739A85E895E06EEA75E05B
S1130C300E94980F9093D90A8093D80A089580EA65
S1130C4095E00E94331060E071EE80E090E0C5DF33
S1130C50789486E880937A0081E080937C000895FC
S1130C608130910551F08230910561F0892B71F446
S1130C7081E080937C00179809C082E080937C0017
S1130C80169804C083E080937C00159884E08A95CC
S1130C90F1F7EAE7F0E080818061808380818064FD
S1130CA08083808184FFFDCF8EEF82B9209178000C
S1130CB0309179008091E00A9091E10A820F931FAC
S1130CC09093E10A8093E00A2091DE0A3091DF0AD2
S1130CD02F5F3F4F3093DF0A2093DE0A2530310522
S1130CE0BCF02091E20A3091E30A3093E50A2093A4
S1130CF0E40A65E070E0F0D67093E30A6093E20AD8
S1130D001092DF0A1092DE0A1092E10A1092E00AB1
S1130D1008959F938F938FEA95E09F938F930E94FA
S1130D2020100F900F900F900F90089561E070E0E5
S1130D3080E090E0DCDB41E050E06FE270E08FE1C6
S1130D4090E059DB40E050E060E270E08EEF90E02C
S1130D5052DB40E050E068E170E08EEF90E083DB2E
S1130D602FE38DE093E0215080409040E1F700C0F4
S1130D70000008950F931F93CF93DF9300D0CDB756
S1130D80DEB720E23CE240E029833A834B83BE0194
S1130D906F5F7F4F0E94660F009789F008EF1AE09B
S1130DA00E94490FF801819391938F01BE016F5FF7
S1130DB07F4F80E090E00E94660F009789F70F90C4
S1130DC00F900F90DF91CF911F910F910895209173
S1130DD0FA0A3091FB0A22333105CCF4ACEFBAE0C5
S1130DE0220F331FC901880F991F880F991F880F7D
S1130DF0991F280F391FF901E45FFD4F225E3D4F13
S1130E008D919D9181939193E217F307C9F708950A
S1130E10CF92DF92EF92FF920F931F93CF93DF93C2
S1130E20CDB7DEB760970FB6F894DEBF0FBECDBF67
S1130E30FE01319680E1DF011D928A95E9F700E910
S1130E4015E07F010F2EF0EACF2EF5E0DF2EF02D16
S1130E5064E270E0F801819191918F01E6DAD701A3
S1130E608D939D937D010C151D0591F788898F93B2
S1130E708F858F938E858F938D858F938C858F939C
S1130E808B858F938A858F9389858F9388858F939C
S1130E908F818F938E818F938D818F938C818F938C
S1130EA08B818F938A818F9389818F931F9282E0A4
S1130EB08F9384EB95E09F938F930E9420100FB63D
S1130EC0F894DEBF0FBECDBF60960FB6F894DEBFB8
S1130ED00FBECDBFDF91CF911F910F91FF90EF9087
S1130EE0DF90CF900895FC01EE0FFF1F9F01220FAA
S1130EF0331F220F331F220F331FE20FF31FE45F50
S1130F00FD4F218D2F93208D2F9327892F93268991
S1130F102F9325892F9324892F930196880F991F46
S1130F20DC01AA0FBB1FAA0FBB1FAA0FBB1F8A0F8E
S1130F309B1FDC01A45FBD4F11968C9111978F9379
S1130F408C918F9381898F9380898F9387858F93D9
S1130F5086858F9385858F9384858F9383858F93DF
S1130F6082858F9381858F9380858F9387818F93DB
S1130F7086818F9385818F9384818F9383818F93CF
S1130F8082818F9381818F9380818F931F9283E0DD
S1130F908F9389ED95E09F938F930E9420108DB7D6
S1130FA09EB74E960FB6F8949EBF0FBE8DBF0895A0
S1130FB0CF92DF92EF92FF920F931F93CF93DF9321
S1130FC0CDB7DEB760970FB6F894DEBF0FBECDBFC6
S1130FD0FE01319680E1DF011D928A95E9F700E96F
S1130FE015E07F010F2EF0EACF2EF5E0DF2EF02D75
S1130FF068E270E0F801819191918F0116DAD701CE
S11310008D939D937D010C151D0591F7888D8F930C
S11310108F898F938E898F938D898F938C898F93EA
S11310208B898F938A898F9389898F9388898F93EA
S11310308F858F938E858F938D858F938C858F93DA
S11310408B858F938A858F9389858F9388858F93DA
S11310508F818F938E818F938D818F938C818F93CA
S11310608B818F938A818F9389818F931F9284E0E0
S11310708F9384E096E09F938F93E2D70FB6F89412
S1131080DEBF0FBECDBF60960FB6F894DEBF0FBEB5
S1131090CDBFDF91CF911F910F91FF90EF90DF9023
S11310A0CF900895CF92DF92EF92FF920F931F9308
S11310B0CF93DF93CDB7DEB760970FB6F894DEBF5A
S11310C00FBECDBFFE01319680E1DF011D928A95EE
S11310D0E9F700E915E07F010F2EF0EACF2EF5E0E5
S11310E0DF2EF02D6AE270E0F801819191918F0179
S11310F09CD93BD8D7018D939D937D010C151D057B
S113110089F7888D8F938F898F938E898F938D899B
S11311108F938C898F938B898F938A898F938989F5
S11311208F9388898F938F858F938E858F938D85E9
S11311308F938C858F938B858F938A858F938985E5
S11311408F9388858F938F818F938E818F938D81D9
S11311508F938C818F938B818F938A818F938981D5
S11311608F931F9285E08F9384E096E09F938F93F3
S113117067D70FB6F894DEBF0FBECDBF60960FB62B
S1131180F894DEBF0FBECDBFDF91CF911F910F91B9
S1131190FF90EF90DF90CF9008959093EF0A8093A3
S11311A0EE0A7093ED0A6093EC0A2091F40A3091F0
S11311B0F50A232B61F49093F70A8093F60A70934F
S11311C0F50A6093F40A1092ED0A1092EC0A08955D
S11311D09093F70A8093F60A7093F50A6093F40AE1
S11311E01092ED0A1092EC0A81E090E090930B02C9
S11311F080930A021092F30A1092F20A089581E091
S113120090E090930B0280930A021092F50A1092D8
S1131210F40A1092F30A1092F20A8FEF9FEF909360
S1131220090280930802089581E090E00E949B00E7
S1131230019719F481E396E016D782E090E00E94CA
S11312409B00019719F486E496E00DD784E090E0C2
S11312500E949B00019719F489E596E004D788E081
S113126090E00E949B00019719F489E696E0FBD672
S113127080E190E00E949B00019719F48DE796E0CD
S1131280F2D680E290E00E949B00019719F48DE869
S113129096E0E9D680E490E00E949B00019719F45F
S11312A08DE996E0E0C608958430910591F034F418
S11312B08230910551F0039781F01FC0863091056B
S11312C0A1F07CF00797A9F018C085EB96E0CBC697
S11312D0089586EE96E0C7C6089582E197E0C3C6F6
S11312E0089585E497E0BFC6089582E797E0BBC6FA
S11312F008958DE997E0B7C6089586EC97E0B3C6E4
S113130008950F931F93CF93DF93082F192FD62F90
S1131310C72F7F936F939F938F9382EE97E09F9352
S11313208F938ED68EEF90E00E948D0083E890E03C
S11313300E94900060E270E080E090E00E949300E0
S113134062E070E081E090E00E949300602F712FD2
S113135082E090E00E9493008D2F9C2F0E94B500A4
S1131360BC0183E090E00E9493008D2F9C2F0E948B
S1131370B900BC0184E090E00E94930087E090E013
S11313800E94980029D80E9488000F900F900F9017
S11313900F900F900F908130910511F445DF01C03B
S11313A083DFDF91CF911F910F9108952F923F9288
S11313B04F925F926F927F928F929F92AF92BF9261
S11313C0CF92DF92EF92FF920F931F93CF93DF930D
S11313D0CDB7DEB7AE970FB6F894DEBF0FBECDBF64
S11313E0823391050CF077C19AA789A7FE01319643
S11313F080E1DF011D928A95E9F720E935E03EA7F7
S11314002DA729A53AA5220F331FC901880F991FBB
S1131410880F991F880F991F820F931FAC01445F97
S11314205D4F5CA74BA71F015E0151E1A50EB11CE6
S11314308F01CBA4DCA40F2EF0E9EF2EF5E0FF2EF4
S1131440F02D812C912C64E270E0D7018D919D9157
S11314507D010E941502F601219131916F01A901CC
S1131460481B590BCA01992324F0D8014D935C936E
S113147006C0919581959109F80191838083D801E3
S11314808D919D918D01881699060CF44C010A15D5
S11314901B05C9F68E010F5E1F4F80E1F801119202
S11314A08A95E9F784E690E09A8B898BE9A5FAA5F9
S11314B0EE0FFF1FCF01880F991F880F991F880F08
S11314C0991FE80FF91FE45FFD4F60897189072EAA
S11314D0000C880B990BC6D369A37AA38BA39CA396
S11314E058016E01F1E2CF0ED11C9401990C440B0A
S11314F0550B2DA33EA34FA358A788248394912C66
S1131500D101ED90FD901D016DA17EA18FA198A543
S1131510A9D32B013C01B701FF0C880B990BA2D373
S1131520A301920104D39B01AC0169A17AA18BA10F
S11315309CA14CD464D36115710521F0F801718329
S1131540608303C0D8018D929C920E5F1F4F0C15CF
S11315501D05B1F689A59AA5880F991FFC01EE0F08
S1131560FF1FEE0FFF1FEE0FFF1F8E0F9F1FFC01CB
S1131570E45FFD4F608971898BEF93E1ADD2072E53
S1131580000C880B990B6ED3A30192011FD437D39F
S1131590161617062CF47093F10A6093F00A06C02D
S11315A081E090E09093F10A8093F00A8EEF90E04E
S11315B00E948D0083E890E00E94900060E270E059
S11315C080E090E00E94930062E070E081E090E0AF
S11315D00E9493000F2EF0E9CF2EF5E0DF2EF02DC0
S11315E002E010E0F601619171916F01C8010E945F
S11315F09300D501ED90FD905D01C7010E94B500F7
S1131600BC01C80101960E949300C7010E94B90061
S1131610BC01C80102960E9493000D5F1F4F0A315E
S1131620110501F78CE190E00E9498000E94EC0102
S11316300E9488008130910509F04CC0F5DD8EEFE1
S113164090E00E948D0083E890E00E9490006EE19B
S113165070E080E090E00E94930062E070E081E03E
S113166090E00E94930002E010E0CDA4DEA4EBA47D
S1131670FCA4F601619171916F01C8010E9493006D
S11316805701D7018D919D917D010E94B500BC0148
S1131690C80101960E949300F501808191810E9406
S11316A0B900BC01C80102960E9493000D5F1F4F50
S11316B00A311105F1F68CE190E00E9498000E9435
S11316C0EC010E9488008130910511F4ADDD03C066
S11316D0EBDD01C0E9DDAE960FB6F894DEBF0FBEB8
S11316E0CDBFDF91CF911F910F91FF90EF90DF90CD
S11316F0CF90BF90AF909F908F907F906F905F90AE
S11317004F903F902F9008956F927F928F929F9267
S1131710AF92BF92CF92DF92EF92FF920F931F93FB
S1131720CF93DF938CEF81B98EEF82B98FE787B9BE
S11317308EE788B980E78AB981E18BB9F7DA64D199
S11317407EDA89EE97E08FD48091E60A9091E70AD9
S1131750019741F440E050E068E170E08EEF90E0E2
S11317600E9433020F2EF4EFEF2EF7E0FF2EF02D40
S11317700F2EFCEBAF2EF02D6894BB24B1F8882417
S1131780839408EF1AE00F2EF0EADF2EF02D0F2ECF
S1131790F0E5CF2EF02D0F2EFFED9F2EF02D80E0E3
S11317A090E05EDA8091E20A9091E30A1816190635
S11317B00CF05AC0C091E40AD091E50A1C161D062B
S11317C00CF052C0C81BD90B09F44EC0D2F46627E2
S11317D077276C1B7D0B072E000C880B990B42D2CC
S11317E020E030E04DEC53E4A2D120E030EC4FE7B0
S11317F054E4ECD204D20F2EFCE26F2EF02D782CA0
S113180013C0BE010D2E000C880B990B2BD220E0C7
S113181030E04DEC53E48BD120E030EC4FE754E45E
S1131820D5D2EDD16A2C7B2C7F926F927F936F93EC
S1131830DF93CF93FF92EF9203D4AE0160E270E0A6
S113184081E190E00E94FB01462D572D6EE170E08E
S113185081E190E00E94FB01EDB7FEB738960FB628
S1131860F894FEBF0FBEEDBF8091DC0A9091DD0AB3
S11318700196893EF3E09F072CF49093DD0A809350
S1131880DC0A8FC01092DD0A1092DC0AC4D018164C
S113189019060CF081C00FD1EC01009709F47CC04B
S11318A069DAF801808191818630910509F45AC082
S11318B094F48230910509F442C034F4009701F1A4
S11318C0019709F43EC060C08430910509F446C014
S11318D00CF438C045C08930910551F134F4873097
S11318E09105B1F00897F9F04FC08B30910509F4D8
S11318F04EC00CF440C0873E934009F46CC044C011
S1131900F8018281938152DD81E090E002DA3FC0E8
S1131910F80164817581828193813FDC98B881E00C
S113192090E0F7D934C06BDC81E090E0F2D92FC0AD
S1131930F80164817581828193814ADC28C068DA68
S113194026C045DAF801828193818233910524F01F
S113195080E090E0DED91BC0C6DA19C029DB17C0CD
S1131960A1DB15C040E050E068E170E08EEF90E04C
S11319700E9433020CC01092E80A1092E90A1092F5
S1131980EA0A1092EB0A03C080E090E0C2D9FE019B
S11319902C2D11922A95E9F7F8012D2D11922A95F3
S11319A0E9F789EF90E00197F1F700C0000080911A
S11319B0E80A9091E90AA091EA0AB091EB0A01962B
S11319C0A11DB11D8093E80A9093E90AA093EA0A45
S11319D0B093EB0AE4CE87EE93E09BD960E070E02D
S11319E080E090E08EDC80E090E0DF91CF911F9169
S11319F00F91FF90EF90DF90CF90BF90AF909F90AA
S1131A008F907F906F90089560E071EE80E090E099
S1131A10E4D8789408950E94EA04181619060CF084
S1131A203EC08091F60B9091F70BCCD28A3011F026
S1131A308D3091F48091E80B9091E90B18161906FA
S1131A408CF51092E90B1092E80B81E090E09093F2
S1131A50EB0B8093EA0B0895882339F12091E80B6E
S1131A603091E90BA9014F5F5F4F5093E90B40930D
S1131A70E80BF901E856F44F80838091E80B9091CC
S1131A80E90B8F349105A4F01092E90B1092E80B46
S1131A9081E090E09093EB0B8093EA0B089580E053
S1131AA090E0089580E090E0089580E090E008954B
S1131AB080E090E008958091EA0B9091EB0B18166A
S1131AC019063CF41092EB0B1092EA0B88E99BE0A8
S1131AD0089580E090E0089597FB072E16F4009493
S1131AE006D077FD08D00BD007FC05D03EF49095C6
S1131AF081959F4F0895709561957F4F0895AA1B16
S1131B00BB1B51E107C0AA1FBB1FA617B70710F0E4
S1131B10A61BB70B881F991F5A95A9F78095909516
S1131B20BC01CD010895D9D008F481E008950CD00A
S1131B300FC107D140F0FED030F021F45F3F19F01F
S1131B40F0C0511139C1F3C014D198F39923C9F3EA
S1131B505523B1F3951B550BBB27AA2762177307AF
S1131B60840738F09F5F5F4F220F331F441FAA1F63
S1131B70A9F333D00E2E3AF0E0E830D09150504023
S1131B80E695001CCAF729D0FE2F27D0660F771FD1
S1131B90881FBB1F261737074807AB07B0E809F0B3
S1131BA0BB0B802DBF01FF2793585F4F2AF09E3F48
S1131BB0510568F0B6C000C15F3FECF3983EDCF31A
S1131BC0869577956795B795F7959F5FC9F7880FC1
S1131BD0911D9695879597F90895E1E0660F771F13
S1131BE0881FBB1F621773078407BA0720F0621BA4
S1131BF0730B840BBA0BEE1F88F7E095089504D09D
S1131C006894B111D9C00895BCD088F09F5790F062
S1131C10B92F9927B751A0F0D1F0660F771F881F0D
S1131C20991F1AF0BA95C9F712C0B13081F0C3D028
S1131C30B1E00895C0C0672F782F8827B85F39F0C6
S1131C40B93FCCF3869577956795B395D9F73EF46C
S1131C5090958095709561957F4F8F4F9F4F089514
S1131C60E89409C097FB3EF4909580957095619532
S1131C707F4F8F4F9F4F9923A9F0F92F96E9BB27E8
S1131C809395F695879577956795B795F111F8CF64
S1131C90FAF4BB0F11F460FF1BC06F5F7F4F8F4FCF
S1131CA09F4F16C0882311F096E911C0772321F0C5
S1131CB09EE8872F762F05C0662371F096E8862F5D
S1131CC070E060E02AF09A95660F771F881FDAF7B4
S1131CD0880F9695879597F90895990F0008550FE1
S1131CE0AA0BE0E8FEEF16161706E807F907C0F09E
S1131CF012161306E407F50798F0621B730B840BA6
S1131D00950B39F40A2661F0232B242B252B21F47F
S1131D1008950A2609F4A140A6958FEF811D811D1F
S1131D20089597F99F6780E870E060E008959FEF59
S1131D3080EC089500240A9416161706180609065E
S1131D40089500240A94121613061406050608952D
S1131D50092E0394000C11F4882352F0BB0F40F4B5
S1131D60BF2B11F460FF04C06F5F7F4F8F4F9F4FF5
S1131D70089557FD9058440F551F59F05F3F71F077
S1131D804795880F97FB991F61F09F3F79F08795DE
S1131D900895121613061406551FF2CF4695F1DF67
S1131DA008C0161617061806991FF1CF86957105F7
S1131DB0610508940895E894BB2766277727CB012B
S1131DC097F908958ADF08F48FEF08950BD0C0CFF8
S1131DD0B1DF28F0B6DF18F0952309F0A2CFA7CF22
S1131DE01124EACFC6DFA0F3959FD1F3950F50E0FD
S1131DF0551F629FF001729FBB27F00DB11D639FB9
S1131E00AA27F00DB11DAA1F649F6627B00DA11D5E
S1131E10661F829F2227B00DA11D621F739FB00D04
S1131E20A11D621F839FA00D611D221F749F332774
S1131E30A00D611D231F849F600D211D822F762F0D
S1131E406A2F11249F5750408AF0E1F088234AF00A
S1131E50EE0FFF1FBB1F661F771F881F9150504056
S1131E60A9F79E3F510570F05CCFA6CF5F3FECF31E
S1131E70983EDCF3869577956795B795F795E79542
S1131E809F5FC1F7FE2B880F911D9695879597F953
S1131E900895FC0188279927E89421912032E9F3D9
S1131EA0293010F02E30C8F32B3239F02D3231F4B2
S1131EB0689403C035D0820F911D219120532A309C
S1131EC0C8F31EF4909581959F4F08954AED5AE00A
S1131ED000C0FA01A191B081009719F41097E1F0C4
S1131EE0CD01DC01CD010D90002011F4C00113C01F
S1131EF0FB012191222319F02015D9F7F3CFFB011F
S1131F002191201519F41E92119606C02223C1F7BF
S1131F100D900020A1F7D001FA01A193B083089598
S1131F207AE0979F902D879F802D910D112408951D
S1131F300F931F93CF93DF93009731F461157105CD
S1131F4019F480E090E039C08B01EC016EE070E0A0
S1131F5081E090E0A6D2FC01892B99F380E8838389
S1131F600115110571F01387028781E8838380913D
S1131F70F60B9091F70B892B21F4F093F70BE09378
S1131F80F60B2097C9F0D187C08783818260838351
S1131F908091F80B9091F90B892B71F4F093F90B64
S1131FA0E093F80B8091FA0B9091FB0B892B21F4B1
S1131FB0F093FB0BE093FA0BCF01DF91CF911F91CC
S1131FC00F910895CF93DF93EC012B8120FF33C051
S1131FD026FF0AC02F7B2B838E819F8101969F83CE
S1131FE08E838A8190E029C022FF0FC0E881F981A5
S1131FF08081082E000C990B009719F420622B8322
S11320001AC03196F983E8830EC0EA85FB851995D9
S113201097FF09C02B81019611F080E201C080E195
S1132020822B8B8308C02E813F812F5F3F4F3F83DC
S11320302E83992702C08FEF9FEFDF91CF910895F0
S1132040CF93DF93CDB7DEB7AE014A5F5F4FFA019E
S113205061917191AF018091F80B9091F90B33D09C
S1132060DF91CF9108950F931F93CF93DF93E09166
S1132070F80BF091F90B238121FF1BC08C01D0E0F8
S1132080C0E0F80181918F016091F80B7091F90B18
S1132090DB011896ED91FC911997882331F019957D
S11320A0892B79F3DFEFCFEFECCF8AE01995892BF9
S11320B019F08FEF9FEF02C08D2F9C2FDF91CF91EE
S11320C01F910F9108952F923F924F925F926F92BA
S11320D07F928F929F92AF92BF92CF92DF92EF92B4
S11320E0FF920F931F93CF93DF93CDB7DEB72C9757
S11320F00FB6F894DEBF0FBECDBF7C016B018A0121
S1132100FC0117821682838181FFB0C1CE01019642
S11321104C01F7019381F60193FD859193FF819121
S11321206F01882309F49EC1853239F493FD8591AA
S113213093FF81916F01853221F4B70190E015D3AB
S1132140E8CF512C312C20E02032A0F48B3269F0FE
S113215030F4803259F0833269F420612CC08D321E
S113216039F0803339F4216026C02260246023C012
S1132170286021C027FD27C030ED380F3A3078F4AD
S113218026FF06C0FAE05F9E300D1124532E13C0C3
S11321908AE0389E300D1124332E20620CC08E321A
S11321A021F426FD5FC1206406C08C3611F420683A
S11321B002C0883641F4F60193FD859193FF819125
S11321C06F018111C1CF982F9F7D9554933028F4CE
S11321D00C5F1F4FFFE3F9830DC0833631F0833763
S11321E071F0833509F057C021C0F80180818983DB
S11321F00E5F1F4F44244394512C540114C03801E2
S1132200F2E06F0E711CF801A080B18026FF03C0BC
S1132210652D70E002C06FEF7FEFC5012C879AD265
S11322202C0183012C852F77222E16C03801F2E071
S11322306F0E711CF801A080B18026FF03C0652DCC
S113224070E002C06FEF7FEFC5012C8771D22C01C3
S11322502C852068222E830123FC19C0832D90E055
S113226048165906A0F4B70180E290E07ED23A9471
S1132270F5CFF50127FC859127FE81915F01B70118
S113228090E073D231103A94F1E04F1A510841149E
S1132290510479F7DEC0843611F0893631F5F8013E
S11322A027FF07C060817181828193810C5F1F4F7A
S11322B008C060817181072E000C880B990B0E5F9A
S11322C01F4F2F76722E97FF09C0909580957095B9
S11322D061957F4F8F4F9F4F2068722E2AE030E028
S11322E0A4017BD2A82EA81843C0853729F42F7ED9
S11322F0B22E2AE030E025C0F22FF97FBF2E8F36B0
S1132300C1F018F4883579F0ADC0803719F08837FA
S113231021F0A8C02F2F2061B22EB4FE0DC08B2D4A
S11323208460B82E09C024FF0AC09F2F9660B92E7E
S113233006C028E030E005C020E130E002C020E122
S113234032E0F801B7FE07C0608171818281938118
S11323500C5F1F4F06C06081718180E090E00E5FCA
S11323601F4FA4013AD2A82EA818FB2DFF777F2E69
S113237076FE0BC0372D3E7FA51450F474FE0AC0C0
S113238072FC08C0372D3E7E05C0BA2C372D03C021
S1132390BA2C01C0B52C34FF0DC0FE01EA0DF11DAD
S11323A08081803311F4397E09C032FF06C0B394B2
S11323B0B39404C0832F867809F0B39433FD12C01C
S11323C030FF06C05A2CB31418F4530C5B18B32C0A
S11323D0B31460F4B70180E290E03C87C6D1B394B3
S11323E03C85F6CFB31410F43B1801C0312C34FFF4
S11323F011C0B70180E390E03C87B7D13C8532FF40
S113240016C031FD03C088E790E002C088E590E083
S1132410B7010CC0832F867851F031FF02C08BE2E4
S113242001C080E237FD8DE2B70190E09ED1A51492
S113243030F4B70180E390E098D15A94F8CFAA948D
S1132440F401EA0DF11D8081B70190E08ED1A11055
S1132450F6CF332009F45DCEB70180E290E085D158
S11324603A94F7CFF7018681978102C08FEF9FEFEF
S11324702C960FB6F894DEBF0FBECDBFDF91CF917F
S11324801F910F91FF90EF90DF90CF90BF90AF908E
S11324909F908F907F906F905F904F903F902F9080
S11324A008950F931F93CF93DF93869F8001879F97
S11324B0100D969F100D1124C8010DD0EC0100974A
S11324C021F0A80160E070E03ED1CE01DF91CF9110
S11324D01F910F910895CF93DF938230910510F4EB
S11324E082E090E0E091FE0BF091FF0B20E030E001
S11324F0C0E0D0E0309711F140815181481759076D
S1132500C0F04817590761F482819381209719F02C
S11325109B838A832BC09093FF0B8093FE0B26C072
S11325202115310519F04217530718F49A01BE0119
S1132530DF01EF010280F381E02DDCCF21153105AD
S113254009F1281B390B2430310590F412968D9132
S11325509C9113976115710521F0FB01938382838C
S113256004C09093FF0B8093FE0BFD01329644C090
S1132570FD01E20FF31F81939193225031092D93B2
S11325803C933AC02091FC0B3091FD0B232B41F47A
S113259020910402309105023093FD0B2093FC0B33
S11325A020910202309103022115310541F42DB727
S11325B03EB74091060250910702241B350BE0916F
S11325C0FC0BF091FD0BE217F307A0F42E1B3F0B5D
S11325D02817390778F0AC014E5F5F4F2417350791
S11325E048F04E0F5F1F5093FD0B4093FC0B8193FB
S11325F0919302C0E0E0F0E0CF01DF91CF91089524
S11326000F931F93CF93DF93009709F48CC0FC01C1
S11326103297138212820091FE0B1091FF0B011569
S1132620110581F420813181820F931F2091FC0BCD
S11326303091FD0B2817390779F5F093FD0BE093E2
S1132640FC0B71C0D80140E050E0AE17BF0750F456
S113265012962D913C911397AD012115310509F185
S1132660D901F3CF9D01DA01338322836081718123
S1132670860F971F8217930769F4EC01288139812B
S1132680260F371F2E5F3F4F318320838A819B8122
S113269093838283452B29F4F093FF0BE093FE0B85
S11326A042C01396FC93EE931297ED014991599110
S11326B09E01240F351FE217F30771F48081918185
S11326C0840F951F029611969C938E938281938119
S11326D013969C938E931297E0E0F0E0D801129643
S11326E08D919C911397009719F0F8018C01F6CF06
S11326F08D919C9198012E5F3F4F820F931F2091E3
S1132700FC0B3091FD0B2817390769F4309729F435
S11327101092FF0B1092FE0B02C0138212821093D0
S1132720FD0B0093FC0BDF91CF911F910F91089546
S1132730FC010590615070400110D8F78095909588
S11327408E0F9F1F0895DC0101C06D9341505040CE
S1132750E0F70895FC016150704001900110D8F732
S1132760809590958E0F9F1F08950F931F93CF937D
S1132770DF93FB01238121FD03C08FEF9FEF28C06E
S113278022FF16C0468157812481358142175307A1
S113279044F4A081B1819D012F5F3F4F3183208399
S11327A08C93268137812F5F3F4F3783268310C058
S11327B0EB01092F182F0084F185E02D1995892B41
S11327C0E1F68E819F8101969F838E83812F902FC6
S11327D0DF91CF911F910F910895FA01AA27283014
S11327E051F1203181F1E8946F936E7F6E5F7F4FDA
S11327F08F4F9F4FAF4FB1E03ED0B4E03CD0670F56
S1132800781F891F9A1FA11D680F791F8A1F911DA8
S1132810A11D6A0F711D811D911DA11D20D009F4F8
S113282068943F912AE0269F11243019305D31933A
S1132830DEF6CF010895462F4770405D4193B3E023
S11328400FD0C9F7F6CF462F4F70405D4A3318F0CA
S1132850495D31FD4052419302D0A9F7EACFB4E07B
S1132860A6959795879577956795BA95C9F7009733
S11328706105710508959B01AC010A2E06945795D4
S1132880479537952795BA95C9F7620F731F841F2B
S10D2890951FA01D0895F894FFCFD2
S113289A01000000000C2000FFFF010070003D0150
S11328AA8E03C2028E03C20270003D0164007000EE
S11328BA33018E03C2028E03C2022500560164004C
S11328CA250000023203000232030002CD00000296
S11328DAC800CD0000023203000232030002CD0018
S11328EA00026400CD000002320300023203000237
S11328FACD0000026400CD0000023203000232035C
S113290A0002CD0000026400CD000002320300027E
S113291A32030002CD0000026400CD00000232033B
S113292A000232030002CD000002640066009A012C
S113293A980366029803660266009A016400CD0051
S113294A00023203000232030002CD0000026400D6
S113295ADE006501A203C2028E03C2022F006001D7
S113296AC8005C003D01C003E0025C039A027000E7
S113297A3D01C8005C003D01C003E002CF039F0291
S113298A70003D01C8005C003D0120039002CF03A2
S113299A9F0270003D01C80052002901A203C2022D
S11329AA8E03AE02A2004701C80052002901A20305
S11329BAC2028E03C2022F006001C80070003D01EA
S11329CA8E03C2028E03C20270003D0164007000CD
S11329DA3D018E03C2028E03C20270003D016400EF
S11329EA70003D018E03C2028E03C20270003D01D3
S11329FA640070003D018E03C2028E03C20270009D
S1132A0A3D016400660033019803CC029803CC02AA
S1132A1A660033013200660033019803CC0298033E
S1132A2ACC02660033013200660033019803CC02FB
S1132A3A9803CC026600330132006600330198031E
S1132A4ACC029803CC0266003301320066003301DB
S1132A5A9803CC029803CC02660033013200660064
S1132A6A33019803CC029803CC0266003301320086
S1132A7A660033019803CC029803CC026600330142
S1132A8A3200660033019803CC029803CC02660034
S1132A9A33013200660033019803CC029803CC0256
S1132AAA66003301320000003301980332039803AD
S1132ABA3203000033013200000033019803CC02D0
S1132ACA9803CC02000033013200660033019803F4
S1132ADACC029803CC0266003301320000003301B1
S1132AEA98033203980332030000330132000000D2
S1132AFA33019803CC029803CC020000330132005C
S1132B0A660033019803CC029803CC0266003301B1
S1132B1A32006600CD00FF03CC02FF03CC0266003C
S1132B2ACD00640066003301FF03CC02FF03CC022C
S1132B3A660033016400660033019803CC029803EB
S1132B4ACC026600330164006600CD00FF03CC02A8
S1132B5AFF03CC026600CD00640066003301FF0364
S1132B6ACC02FF03CC026600330164006600330121
S1132B7A9803CC029803CC026600330164009A01DC
S1132B8ACC02320300029803660200003301640097
S1132B9A330100023203000298030002CD0000024E
S1132BAA64003301000298030002320300020000A9
S1132BBA3301640033010002980300029803660299
S1132BCA66009A016400CD00000266023301FF0325
S1132BDACC0266009A016400CD000002CC02000215
S1132BEA3203000266000002640066000002CC029E
S1132BFA0002FF03CC02CD0000026400660000025A
S1132C0ACC0200029803660266009A016400CD00B1
S1132C1A00023203000232030002CD000002640003
S1132C2A020004000E00110005000700100006004F
S1132C3A2323232073656E736F72496E69740025AA
S1132C4A640A0A0025643A7B25642C2025642C2016
S1132C5A25642C2025642C2025642C2025642C2012
S1132C6A25642C2025647D0A0025643A25642C25D4
S1132C7A642C25642C25642C25642C25642C256459
S1132C8A2C25642C25642C25642C25642C25642C81
S1132C9A25640A0025643A25642C25642C25642CB1
S1132CAA25642C25642C25642C25642C25642C2568
S1132CBA642C25642C25642C25640A0025643B0AAB
S1132CCA00496E70757420766F6C7461676520654F
S1132CDA72726F722100416E676C65206C696D694E
S1132CEA74206572726F7221004F7665726865612D
S1132CFA74206572726F7221004F7574206F66209A
S1132D0A72616E6765206572726F7221004368652D
S1132D1A636B73756D206572726F7221004F7665ED
S1132D2A726C6F6164206572726F722100496E73EE
S1132D3A7472756374696F6E20636F64652065725B
S1132D4A726F722100434F4D4D5F54584641494CAE
S1132D5A3A204661696C6564207472616E736D69A8
S1132D6A7420696E737472756374696F6E2070610E
S1132D7A636B65742100434F4D4D5F54584552525D
S1132D8A4F523A20496E636F727265637420696E9A
S1132D9A737472756374696F6E207061636B6574A2
S1132DAA2100434F4D4D5F52584641494C3A204603
S1132DBA61696C65642067657420737461747573E2
S1132DCA207061636B65742066726F6D206465762A
S1132DDA6963652100434F4D4D5F52585741495429
S1132DEA494E473A204E6F77207265636965766962
S1132DFA6E6720737461747573207061636B657494
S1132E0A2100434F4D4D5F525854494D454F555437
S1132E1A3A205468657265206973206E6F20737452
S1132E2A61747573207061636B65742100434F4D3F
S1132E3A4D5F5258434F52525550543A20496E638B
S1132E4A6F72726563742073746174757320706130
S1132E5A636B657421005468697320697320756E05
S1132E6A6B6E6F776E206572726F7220636F646522
S1132E7A210025642025640A002323232073746116
S1132E8A72740D00232323204759524F203D2025D5
S1132E9A642C205350454544203D2025642C20476A
S1132EAA4F414C203D2025640D0A00232323206D25
S1132EBA6F7665203100232323206D6F74696F6E4A
S1132ECA436F756E74203E206D61782E206D6F7489
S1132EDA696F6E436F756E743A25642C206D617840
S1132EEA3A25640A00232323206D6F74696F6E43A5
S10D2EFA6F756E743A25640A000037
S9030000FC
