S01700004763634170706C69636174696F6E322E737265635A
S113000083C00000A2C00000A0C000009EC0000089
S11300109CC000009AC0000098C0000096C0000078
S113002094C0000092C0000090C000008EC0000088
S11300308CC000008AC0000088C0000086C0000098
S113004084C0000082C0000080C000007EC00000A8
S11300507CC000007AC0000078C0000076C00000B8
S113006074C0000042C4000070C000006EC00000F4
S11300706CC000006AC0000068C0000066C00000D8
S113008064C0000062C0000060C000005EC00000E8
S113009031C500005AC0000058C0000056C000001E
S11300A054C0000052C0000050C000004EC0000008
S11300B04CC000004AC0000048C0000046C0000018
S11300C044C0000042C0000040C00000036EDB36A4
S11300D03D9A9999993DABAAAA2A3E000000803F17
S11300E0072C7AA5BA6CC590DA3B9365FC8BBC539C
S11300F0F810FD3C5692834DBD879D3AB63DCBC961
S1130100BF5BBE73DA0FC93F11241FBECFEFD1E22C
S1130110DEBFCDBF00E00CBF18E0A0E0B2E0E6ED2A
S1130120FDE200E00BBF02C007900D92AC39B107AD
S1130130D9F72CE0ACE9B8E001C01D92AA33B207AC
S1130140E1F70E94B60B0C94E9165ACF8091000295
S113015090910102089580939E0808958093A008C9
S11301600895FC01E456F74F6583089580939F0832
S1130170089520E030E090914009982311F021E0A7
S113018030E0C901089580913F0990E00895FC0191
S1130190E45CF64F858190E00895362F20E0280F27
S11301A0391FC9010895282F30E0C90108958070CE
S11301B0892F90E008950F931F93CF93DF9380913D
S11301C0840990918509892B09F4B8C080919E080F
S11301D08E3F09F4A9C08091000290910102892BFD
S11301E029F41092830986E080938209809183091F
S11301F090E06091820970E0681B790B845C964FF3
S113020049D390918309980F90938309809182092F
S1130210981718F44AD2019771F070918309472F07
S113022050E0DA0111978A010250104060E0ED01BC
S1130230C45CD64F18C080918309882309F071C02B
S113024086E090E073C0F901E45CF64F80818F3F53
S113025019F481818F3F61F02017310719F48881E7
S11302608F3F31F06F5F262F30E02A173B075CF396
S11302706623A1F090E0421B530B08C0E45CF64FE8
S1130280DF01A20FB31F8C9180839F5FE92FF0E001
S1130290E417F5079CF3761B709383092091830977
S11302A080918209281728F190919E0880913E0937
S11302B09817B9F560913F096C5F6093820926171E
S11302C088F4822F90E070E0681B790B845C964F71
S11302D0E1D290918309980F9093830980918209C8
S11302E0981738F080913F09A82FB0E020E090E003
S11302F00CC085E090E090930102809300021EC040
S1130300E45CF64F8281980F2F5FE22FF0E0AE1786
S1130310BF07B4F7A45CB64F909513968C918917D8
S113032019F087E090E002C081E090E09093010230
S1130330809300021092850910928409DF91CF9175
S11303401F910F9108951F938091840990918509BD
S1130350019709F45DC081E090E090938509809352
S1130360840980919F08893940F49091A008892FCD
S11303708150863028F0933819F084E090E02FC043
S11303808FEF80939C0880939D0880919F08A82FED
S1130390B0E020E090E005C0E456F74F8281980F6A
S11303A02F5FE22FF0E0AE17BF07B4F7A456B74FA4
S11303B0909513969C938091000290910102069768
S11303C0029708F438D110919F081C5F8CE998E0DB
S11303D0612F70E035D1181759F082E090E09093C6
S11303E0010280930002109285091092840910C0C2
S11303F08091A008823029F48091A20890E00696AA
S113040002C086E090E040D11092010210920002F6
S11304101F91089598DF8091000290910102892B29
S113042039F4C9DE80910002909101020597C9F365
S11304300895282F8091840990918509892B91F43E
S113044020939E0883E08093A0086093A108CA01CA
S11304504093A20880709093A30885E080939F083E
S1130460D9CF0895FFCF282F8091840990918509D1
S1130470892BB1F420939E0882E08093A0086093B6
S1130480A1088093A20884E080939F08C3DF309181
S1130490420920E080914109280F311DC9010895C6
S11304A0FFCF282F8091840990918509892B71F4BD
S11304B020939E0883E08093A0086093A108409352
S11304C0A20884E080939F08A5CF0895FFCF282F2A
S11304D08091840990918509892B91F420939E0839
S11304E082E08093A0086093A10881E08093A20831
S11304F084E080939F088EDF8091410990E0089505
S1130500FFCF282F8091840990918509892B51F47C
S113051020939E0881E08093A00882E080939F0846
S113052079CF0895FFCF86C008950F931F938C0150
S11305306F5F7F4F882777FD8095982F0E94281042
S11305409B01AC0160E074E284EF99E40E948D0F9A
S1130550AB01BC01C80115D0892B19F420E030E0AF
S11305600CC081E090E0909301028093000210920D
S113057085091092840921E030E0C9011F910F918F
S11305800895EF92FF920F931F937A018B0182E4F7
S11305908093C00088E98093C10086E08093C20004
S11305A060E074E284EF99E4A80197010E948D0F42
S11305B00E94FA0F615070407093C5006093C400AC
S11305C060E074E284E799E4A80197010E948D0F2A
S11305D020E030E040E451E40E942D116093280CA7
S11305E07093290C80932A0C90932B0C2091280C47
S11305F03091290C40912A0C50912B0C60E070E052
S11306008AE793E40E948D0F0E94FA0F7093270CDF
S11306106093260C7298739A8FEF8093C6001092A1
S1130620860A1092870A81E090E01F910F91FF9053
S1130630EF90089508958091870A8093860A08951B
S1130640AC01F8947398729A20E030E011C0809164
S1130650C00085FFFCCF8091C00080648093C000FF
S1130660FA01E20FF31F80818093C6002F5F3F4F92
S11306702617370764F38091C00086FFFCCF729879
S1130680739A7894C901089510922F0C10922E0C2D
S11306902091260C3091270C265F3F4F280F391FDD
S11306A030932D0C20932C0C0895AF92BF92CF92CF
S11306B0DF92EF92FF920F931F9380912E0C9091F3
S11306C02F0C019690932F0C80932E0C20912E0CBE
S11306D030912F0C80912C0C90912D0C8217930744
S11306E018F421E030E074C0A090280CB090290CDC
S11306F0C0902A0CD0902B0CC601B5012BEA3AEA23
S11307004AEA50E40E942D117B018C0120E030E084
S113071040E85FE30E94890F882314F461E054C029
S1130720C801B70120E030E04FE753E40E942911EB
S113073018160CF045C0C601B50120E030E04AE7C8
S113074054E40E948D0F5B016C0120E030E04AE725
S113075055E40E942D117B018C0120E030E040E83B
S11307605FE30E94890F88231CF461E070E024C0D9
S1130770C801B70120E03FEF4FE757E40E94291179
S11307801816B4F4C601B50120E030E040E251E4AB
S11307900E942D110E94FA0F80E991E005C0FC012E
S11307A03197F1F76150704061157105C1F70EC0C2
S11307B0C801B7010E94FA0FCB010197F1F706C0F7
S11307C0C801B7010E94FA0F6A95F1F720E030E002
S11307D0C9011F910F91FF90EF90DF90CF90BF90D0
S11307E0AF9008959091860A8091870A981719F41A
S11307F020E030E017C09091860A8091870A98170C
S113080038F48091870A9091860A282F30E008C036
S11308108091870A9091860A282F30E020503F4F1C
S1130820291B3109C90108951F93182FDBDF8F3F5E
S1130830910591F0E091870AF0E0EA57F64F1083B2
S11308408091870A8F3F19F41092870A05C080911E
S1130850870A8F5F8093870A1F9108959091860A73
S11308608091870A981711F4EFEF12C0E091860A7D
S1130870F0E0EA57F64FE0818091860A8F3F19F441
S11308801092860A05C08091860A8F5F8093860A3B
S11308908E2F0895EF92FF920F931F93CF93DF93C0
S11308A07C01EB019091860A8091870A981719F4CC
S11308B000E010E012C096DF8C01C817D9070CF4D1
S11308C08E01C0E0D0E006C0C9DFF701EC0FFD1FC8
S11308D080832196C017D107BCF3C801DF91CF9163
S11308E01F910F91FF90EF9008951F920F920FB6F2
S11308F00F920BB60F9211242F933F934F935F9354
S11309006F937F938F939F93AF93BF93EF93FF93D3
S11309108091C60089DFFF91EF91BF91AF919F91C4
S11309208F917F916F915F914F913F912F910F9094
S11309300BBE0F900FBE0F901F901895AC0120E0D6
S113094030E00CC08091C80085FFFCCFFA01E20FB3
S1130950F31F80818093CE002F5F3F4F2617370708
S11309608CF30895DC019091080B8091090B981782
S113097011F480E008959091080B8091090B981769
S113098019F420E030E017C09091080B8091090B16
S1130990981738F48091090B9091080B282F30E0B8
S11309A008C08091090B9091080B282F30E0205843
S11309B03F4F291B3109A901621773070CF4AB01DE
S11309C020E030E020C09091080B8091090B98172B
S11309D011F49FEF12C0E091080BF0E0E857F54FD7
S11309E090818091080B8F3719F41092080B05C081
S11309F08091080B8F5F8093080BFD01E20FF31FBA
S1130A0090832F5F3F4F24173507ECF2842F08950E
S1130A109091080B8091090B981719F420E030E0AD
S1130A2017C09091080B8091090B981738F48091A6
S1130A30090B9091080B282F30E008C08091090B16
S1130A409091080B282F30E020583F4F291B310983
S1130A50C9010895482F9091080B8091090B9817AC
S1130A60D1F09091080B8091090B981738F480917C
S1130A70090B9091080B282F30E008C08091090BD6
S1130A809091080B282F30E020583F4F291B310943
S1130A902F37310591F0E091090BF0E0E857F54F5D
S1130AA040838091090B8F3719F41092090B089534
S1130AB08091090B8F5F8093090B08959091080B27
S1130AC08091090B981711F4EFEF12C0E091080B15
S1130AD0F0E0E857F54FE0818091080B8F3719F467
S1130AE01092080B05C08091080B8F5F8093080B50
S1130AF08E2F08951F920F920FB60F920BB60F927E
S1130B0011242F933F934F935F936F937F938F930E
S1130B109F93AF93BF93EF93FF938091CE009ADF9F
S1130B20FF91EF91BF91AF919F918F917F916F91C1
S1130B305F914F913F912F910F900BBE0F900FBE7D
S1130B400F901F901895DF93CF930F920F92CDB70C
S1130B50DEB7982F8A3099F48DE089839A83FE0159
S1130B6031969E012D5F3F4F8091C80085FFFCCFD9
S1130B7081918093CE00E217F307B1F706C080910C
S1130B80C80085FFFCCF9093CE0080E090E00F90EA
S1130B900F90CF91DF9108959091080B8091090BEC
S1130BA09817D1F39091080B8091090B981738F49A
S1130BB08091090B9091080B282F30E008C0809198
S1130BC0090B9091080B282F30E020583F4F291B28
S1130BD03109232B09F39091080B8091090B981785
S1130BE011F4EFEF15C0E091080BF0E0E857F54F72
S1130BF0E0818091080B8F3719F41092080B05C01F
S1130C008091080B8F5F8093080BED3009F4EAE0C4
S1130C108E2F90E008950E9428109B01AC0160E0A3
S1130C2074E284EF99E40E948D0F0E94FA0F6150E0
S1130C30704022E42093C80028E92093C90026E0EC
S1130C402093CA002FEF2093CE001092080B10922D
S1130C50090B272F332727FD3A952093CD00609366
S1130C60CC007298739A83EA95E06CEC75E00E946C
S1130C70361290930B0B80930A0B089588EA95E043
S1130C800E94D11260E071EE80E090E0C4DF7894BD
S1130C9086E880937A0081E080937C000895CF9366
S1130CA0DF938130910551F08230910561F0892BF9
S1130CB071F481E080937C00179809C082E08093EE
S1130CC07C00169804C083E080937C00159884E02F
S1130CD08A95F1F7EAE7F0E0808180618083808182
S1130CE080648083808184FFFDCF8EEF82B9C8E762
S1130CF0D0E0888199811FD7288139818091120B96
S1130D009091130B280F391F3093130B2093120B60
S1130D108091100B9091110B01969093110B80937D
S1130D20100B0597A4F08091140B9091150B9093E0
S1130D30170B8093160B3093150B2093140B109202
S1130D40110B1092100B1092130B1092120BDF91D7
S1130D50CF9108959F938F9387EB95E09F938F9303
S1130D600E94BE120F900F900F900F90089561E0B3
S1130D7070E080E090E0D9DB41E050E06FE270E0A9
S1130D808FE190E056DB40E050E060E270E08EEFEF
S1130D9090E04FDB40E050E068E170E08EEF90E0DF
S1130DA080DB2FE38DE093E0215080409040E1F719
S1130DB000C0000008950F931F93CF93DF9300D0DA
S1130DC0CDB7DEB720E23CE240E029833A834B838F
S1130DD0BE016F5F7F4F0E940412009789F00AE200
S1130DE01BE00E94E711F801819391938F01BE01EA
S1130DF06F5F7F4F80E090E00E940412009789F7B4
S1130E000F900F900F90DF91CF911F910F91089544
S1130E1020912C0B30912D0B22333105CCF4AEE212
S1130E20BBE0220F331FC901880F991F880F991F38
S1130E30880F991F280F391FF901E45FFD4F225EC7
S1130E403D4F8D919D9181939193E217F307C9F7DB
S1130E500895CF92DF92EF92FF920F931F93CF9357
S1130E60DF93CDB7DEB760970FB6F894DEBF0FBE41
S1130E70CDBFFE01319680E1DF011D928A95E9F72D
S1130E8000E915E07F010F2EF0EACF2EF5E0DF2E0A
S1130E90F02D64E270E0F801819191918F01E3DA21
S1130EA0D7018D939D937D010C151D0591F78889BC
S1130EB08F938F858F938E858F938D858F938C855C
S1130EC08F938B858F938A858F9389858F9388855C
S1130ED08F938F818F938E818F938D818F938C814C
S1130EE08F938B818F938A818F9389818F931F92A4
S1130EF082E08F938CEB95E09F938F930E94BE12B8
S1130F000FB6F894DEBF0FBECDBF60960FB6F8944F
S1130F10DEBF0FBECDBFDF91CF911F910F91FF9028
S1130F20EF90DF90CF900895FC01EE0FFF1F9F011B
S1130F30220F331F220F331F220F331FE20FF31F21
S1130F40E45FFD4F218D2F93208D2F9327892F93BD
S1130F5026892F9325892F9324892F930196880F0F
S1130F60991FDC01AA0FBB1FAA0FBB1FAA0FBB1F2F
S1130F708A0F9B1FDC01A45FBD4F11968C911197C2
S1130F808F938C918F9381898F9380898F93878599
S1130F908F9386858F9385858F9384858F9383859F
S1130FA08F9382858F9381858F9380858F9387819B
S1130FB08F9386818F9385818F9384818F9383818F
S1130FC08F9382818F9381818F9380818F931F92DE
S1130FD083E08F9381EE95E09F938F930E94BE12DE
S1130FE08DB79EB74E960FB6F8949EBF0FBE8DBFB9
S1130FF00895CF92DF92EF92FF920F931F93CF93B6
S1131000DF93CDB7DEB760970FB6F894DEBF0FBE9F
S1131010CDBFFE01319680E1DF011D928A95E9F78B
S113102000E915E07F010F2EF0EACF2EF5E0DF2E68
S1131030F02D68E270E0F801819191918F0113DA4B
S1131040D7018D939D937D010C151D0591F7888D16
S11310508F938F898F938E898F938D898F938C89AA
S11310608F938B898F938A898F9389898F938889AA
S11310708F938F858F938E858F938D858F938C859A
S11310808F938B858F938A858F9389858F9388859A
S11310908F938F818F938E818F938D818F938C818A
S11310A08F938B818F938A818F9389818F931F92E2
S11310B084E08F938CE096E09F938F930E94BE12FE
S11310C00FB6F894DEBF0FBECDBF60960FB6F8948E
S11310D0DEBF0FBECDBFDF91CF911F910F91FF9067
S11310E0EF90DF90CF900895CF92DF92EF92FF922E
S11310F00F931F93CF93DF93CDB7DEB760970FB6EF
S1131100F894DEBF0FBECDBFFE01319680E1DF0152
S11311101D928A95E9F700E915E07F010F2EF0EAA8
S1131120CF2EF5E0DF2EF02D6AE270E0F801819118
S113113091918F0198D937D8D7018D939D937D01D3
S11311400C151D0589F7888D8F938F898F938E8950
S11311508F938D898F938C898F938B898F938A89B1
S11311608F9389898F9388898F938F858F938E85A9
S11311708F938D858F938C858F938B858F938A85A1
S11311808F9389858F9388858F938F818F938E8199
S11311908F938D818F938C818F938B818F938A8191
S11311A08F9389818F931F9285E08F938CE096E0D3
S11311B09F938F930E94BE120FB6F894DEBF0FBEAA
S11311C0CDBF60960FB6F894DEBF0FBECDBFDF91E2
S11311D0CF911F910F91FF90EF90DF90CF900895E2
S11311E09093210B8093200B70931F0B60931E0B25
S11311F02091260B3091270B232B61F49093290B1C
S11312008093280B7093270B6093260B10921F0B6F
S113121010921E0B08959093290B8093280B7093C2
S1131220270B6093260B10921F0B10921E0B81E06C
S113123090E090930B0280930A021092250B109277
S1131240240B089581E090E090930B0280930A02AE
S11312501092270B1092260B1092250B1092240B40
S11312608FEF9FEF9093090280930802089581E025
S113127090E00E94B900019721F489E396E00E946E
S1131280D11282E090E00E94B900019721F48EE42B
S113129096E00E94D11284E090E00E94B900019788
S11312A021F481E696E00E94D11288E090E00E9449
S11312B0B900019721F481E796E00E94D11280E100
S11312C090E00E94B900019721F485E896E00E941D
S11312D0D11280E290E00E94B900019721F485E9DF
S11312E096E00E94D11280E490E00E94B900019738
S11312F021F485EA96E00C94D11208958430910586
S113130099F034F48230910551F0039791F025C09F
S113131086309105C1F094F00797D1F01EC08DEB93
S113132096E00C94D11208958EEE96E00C94D112AE
S113133008958AE197E00C94D11208958DE497E022
S11313400C94D11208958AE797E00C94D112089571
S113135085EA97E00C94D11208958EEC97E00C94F2
S1131360D11208950F931F93CF93DF93082F192F52
S1131370D62FC72F7F936F939F938F938AEE97E017
S11313809F938F930E94BE128EEF90E00E94AB0059
S113139083E890E00E94AE0060E270E080E090E0BC
S11313A00E94B10062E070E081E090E00E94B10030
S11313B0602F712F82E090E00E94B1008D2F9C2F4E
S11313C00E94D300BC0183E090E00E94B1008D2F05
S11313D09C2F0E94D700BC0184E090E00E94B100E1
S11313E087E090E00E94B60015D80E94A6000F90F6
S11313F00F900F900F900F900F908130910511F482
S113140036DF01C07BDFDF91CF911F910F910895EB
S11314102F923F924F925F926F927F928F929F9200
S1131420AF92BF92CF92DF92EF92FF920F931F93EE
S1131430CF93DF93CDB7DEB7AE970FB6F894DEBF88
S11314400FBECDBF823391050CF077C19AA789A74F
S1131450FE01319680E1DF011D928A95E9F720E9CA
S113146035E03EA72DA729A53AA5220F331FC901B0
S1131470880F991F880F991F880F991F820F931F38
S1131480AC01445F5D4F5CA74BA71F015E0151E1B6
S1131490A50EB11C8F01CBA4DCA40F2EF0E9EF2E16
S11314A0F5E0FF2EF02D812C912C64E270E0D70141
S11314B08D919D917D010E943302F601219131911C
S11314C06F01A901481B590BCA01992324F0D801C3
S11314D04D935C9306C0919581959109F801918390
S11314E08083D8018D919D918D01881699060CF405
S11314F04C010A151B05C9F68E010F5E1F4F80E1D2
S1131500F80111928A95E9F784E690E09A8B898B29
S1131510E9A5FAA5EE0FFF1FCF01880F991F880FC9
S1131520991F880F991FE80FF91FE45FFD4F608929
S11315307189072E000C880B990B8AD569A37AA3AD
S11315408BA39CA358016E01F1E2CF0ED11C940130
S1131550990C440B550B2DA33EA34FA358A78824E5
S11315608394912CD101ED90FD901D016DA17EA17C
S11315708FA198A56DD52B013C01B701FF0C880BF9
S1131580990B66D5A3019201C8D49B01AC0169A152
S11315907AA18BA19CA161D628D56115710521F092
S11315A0F8017183608303C0D8018D929C920E5F11
S11315B01F4F0C151D05B1F689A59AA5880F991F13
S11315C0FC01EE0FFF1FEE0FFF1FEE0FFF1F8E0F2C
S11315D09F1FFC01E45FFD4F608971898BEF93E1EC
S11315E0B7D3072E000C880B990B32D5A3019201B7
S11315F034D6FBD4161617062CF47093230B609381
S1131600220B06C081E090E09093230B8093220B81
S11316108EEF90E00E94AB0083E890E00E94AE0061
S113162060E270E080E090E00E94B10062E070E06F
S113163081E090E00E94B1000F2EF0E9CF2EF5E09A
S1131640DF2EF02D02E010E0F601619171916F013F
S1131650C8010E94B100D501ED90FD905D01C70164
S11316600E94D300BC01C80101960E94B100C701C9
S11316700E94D700BC01C80102960E94B1000D5F10
S11316801F4F0A31110501F78CE190E00E94B6006A
S11316900E940A020E94A6008130910509F04CC004
S11316A0E6DD8EEF90E00E94AB0083E890E00E94BC
S11316B0AE006EE170E080E090E00E94B10062E074
S11316C070E081E090E00E94B10002E010E0CDA45F
S11316D0DEA4EBA4FCA4F601619171916F01C80131
S11316E00E94B1005701D7018D919D917D010E9407
S11316F0D300BC01C80101960E94B100F5018081AC
S113170091810E94D700BC01C80102960E94B100D9
S11317100D5F1F4F0A311105F1F68CE190E00E9434
S1131720B6000E940A020E94A6008130910511F4BD
S11317309EDD03C0E3DD01C0E1DDAE960FB6F89493
S1131740DEBF0FBECDBFDF91CF911F910F91FF90F0
S1131750EF90DF90CF90BF90AF909F908F907F904D
S11317606F905F904F903F902F9008959F92AF920B
S1131770BF92CF92DF92EF92FF920F931F93CF937A
S1131780DF938CEF81B98EEF82B98FE787B98EE74B
S113179088B980E78AB981E18BB9E9DA70D26EDA67
S11317A081EF97E0FED68091180B9091190B019769
S11317B041F440E050E068E170E08EEF90E00E9478
S11317C051020F2EFCE29F2EF02DAA24A3940F2E7B
S11317D0FCEBCF2EF02D6894DD24D1F80AE21BE057
S11317E00F2EF0EAFF2EF02D0F2EF0E5EF2EF02D48
S11317F00F2EFFEDBF2EF02D80E090E050DA8091A7
S1131800140B9091150B18161906F4F44091160B4D
S11318105091170B14161506BCF4481B590BA1F074
S11318201AF0DC2DCD2D02C0D92DCA2D60E270E056
S113183081E190E00E9419024D2F5C2F6EE170E06F
S113184081E190E00E94190280910E0B90910F0BA0
S11318500196893E23E092072CF490930F0B80931A
S11318600E0B8FC010920F0B10920E0B10D2181685
S113187019060CF081C05BD2EC01009709F47CC01E
S11318809ADAF801808191818630910509F45AC071
S113189094F48230910509F442C034F4009701F1C4
S11318A0019709F43EC060C08430910509F446C034
S11318B00CF438C045C08930910551F134F48730B7
S11318C09105B1F00897F9F04FC08B30910509F4F8
S11318D04EC00CF440C0873E934009F46CC044C031
S11318E0F8018281938194DD81E090E033DA3FC096
S11318F0F801648175818281938172DCB8B881E0DA
S113190090E028DA34C09EDC81E090E023DA2FC036
S1131910F80164817581828193817DDC28C099DA24
S113192026C076DAF801828193818233910524F00E
S113193080E090E00FDA1BC0F7DA19C05ADB17C059
S1131940D3DB15C040E050E068E170E08EEF90E03A
S11319500E9451020CC010921A0B10921B0B109291
S11319601C0B10921D0B03C080E090E0F3D9FE0124
S11319702E2D11922A95E9F7F8012F2D11922A950F
S1131980E9F789EF90E00197F1F700C0000080913A
S11319901A0B90911B0BA0911C0BB0911D0B01967F
S11319A0A11DB11D80931A0B90931B0BA0931C0BCC
S11319B0B0931D0B21CF87EE93E0CCD960E070E0AB
S11319C080E090E0CFDC80E090E0DF91CF911F9148
S11319D00F91FF90EF90DF90CF90BF90AF909F90CA
S11319E008958F929F92AF92BF92CF92DF92EF921F
S11319F0FF920F931F93CF93DF932091A40530910F
S1131A00A5054091A6055091A7056091A005709188
S1131A10A1058091A2059091A30500D220E030E0B9
S1131A2040E05FE31AD46B017C018091CC0B909170
S1131A30CD0BBC01990F880B990B0AD3A701960112
S1131A40ECD14B015C0120E030E040E05FE3C701F2
S1131A50B60103D49B01AC01C501B4015ED2E62EEC
S1131A60F72E082F192F97FD03C0CCE4D8E002C04D
S1131A70CAE4D8E020E030E048EC52E46E2D7F2D3B
S1131A80802F912FEAD3B1D2CB016AE070E060D10C
S1131A909C01992324F422273327281B390B3F93D5
S1131AA02F9320E030E040E251E46E2D7F2D802F13
S1131AB0912FD3D39AD2CB016AE070E049D19C0133
S1131AC0992324F422273327281B390B3F932F9380
S1131AD06E2D7F2D802F912F88D27F936F93DF936C
S1131AE0CF938EE498E09F938F9348D56E2D7F2DEE
S1131AF0802F912FF7D120E030E044E353E4ADD3BD
S1131B0028ED3FE049E450E408D22DB73EB7265F04
S1131B103F4F0FB6F8943EBF0FBE2DBFDF91CF915C
S1131B201F910F91FF90EF90DF90CF90BF90AF90F7
S1131B309F908F900895CF92DF92EF92FF92209121
S1131B40CA0B3091CB0B24363105F8F4092E000C66
S1131B50AA0BBB0B4091CE0B5091CF0B6091D00BD5
S1131B607091D10B840F951FA61FB71F8093CE0BC6
S1131B709093CF0BA093D00BB093D10B2F5F3F4F1B
S1131B803093CB0B2093CA0B75C0243631050CF46B
S1131B9062C06091CE0B7091CF0B8091D00B90916D
S1131BA0D10B24E630E040E050E0E5D02093CC0BAC
S1131BB03093CD0B3F932F9388E698E09F938F93B8
S1131BC0DDD41092CB0B1092CA0B1092CE0B109254
S1131BD0CF0B1092D00B1092D10B03DF6B017C0161
S1131BE020E030E048EC52E438D3FFD1CB016AE086
S1131BF070E0AED09C01992324F422273327281BBC
S1131C00390B3F932F9320E030E040E251E4C701C9
S1131C10B60123D3EAD1CB016AE070E099D09C01EC
S1131C20992324F422273327281B390B3F932F931E
S1131C30C701B601DAD17F936F9388E798E09F9349
S1131C408F939CD48DB79EB70C960FB6F8949EBF15
S1131C500FBE8DBF0FC080E998E0A3D41092CB0BC8
S1131C601092CA0B1092CE0B1092CF0B1092D00B85
S1131C701092D10BFF90EF90DF90CF90089560E029
S1131C8071EE80E090E00E940B06789408950E9423
S1131C900805181619060CF03EC08091300C90917E
S1131CA0310C2ED48A3011F08D3091F48091220CB5
S1131CB09091230C181619068CF51092230C10928F
S1131CC0220C81E090E09093250C8093240C0895DD
S1131CD0882339F12091220C3091230CA9014F5F04
S1131CE05F4F5093230C4093220CF901EE52F44FB2
S1131CF080838091220C9091230C8F349105A4F061
S1131D001092230C1092220C81E090E09093250C09
S1131D108093240C089580E090E0089580E090E0A2
S1131D20089580E090E0089580E090E00895809127
S1131D30240C9091250C181619063CF41092250CCD
S1131D401092240C82ED9BE0089580E090E00895C9
S1131D5097FB072E16F4009406D077FD08D027D001
S1131D6007FC05D03EF4909581959F4F089570959A
S1131D7061957F4F0895052E97FB16F400940FD0BC
S1131D8057FD05D028D007FC02D046F408C0509572
S1131D904095309521953F4F4F4F5F4F0895909553
S1131DA08095709561957F4F8F4F9F4F0895AA1B23
S1131DB0BB1B51E107C0AA1FBB1FA617B70710F032
S1131DC0A61BB70B881F991F5A95A9F78095909564
S1131DD0BC01CD010895A1E21A2EAA1BBB1BFD0173
S1131DE00DC0AA1FBB1FEE1FFF1FA217B307E407F6
S1131DF0F50720F0A21BB30BE40BF50B661F771F4E
S1131E00881F991F1A9469F760957095809590952D
S1131E109B01AC01BD01CF0108955058BB27AA27EF
S1131E200ED0DDC1CED130F0D3D120F031F49F3FBC
S1131E3011F41EF48DC10EF4E095E7FB83C1E92F84
S1131E40DFD180F3BA17620773078407950718F088
S1131E5071F49EF5F7C10EF4E0950B2EBA2FA02D68
S1131E600B01B90190010C01CA01A0011124FF2743
S1131E70591B99F0593F50F4503E68F11A16F0403E
S1131E80A22F232F342F4427585FF3CF469537953D
S1131E902795A795F0405395C9F77EF41F16BA0B02
S1131EA0620B730B840BBAF09150A1F0FF0FBB1FB0
S1131EB0661F771F881FC2F70EC0BA0F621F731FF9
S1131EC0841F48F4879577956795B795F7959E3F56
S1131ED008F0B3CF9395880F08F09927EE0F9795E4
S1131EE0879508959F939F77EEE389379E0720F4A3
S1131EF0ECECF0E055D109C0E6D09058A2EA2AED06
S1131F003FE049EC5FE39BDF6AD10F9007FC9058F8
S1131F100895F4D008F481E008950CD060C158D13C
S1131F2040F04FD130F021F45F3F19F00BC1511153
S1131F308AC10EC165D198F39923C9F35523B1F32E
S1131F40951B550BBB27AA2762177307840738F024
S1131F509F5F5F4F220F331F441FAA1FA9F333D083
S1131F600E2E3AF0E0E830D091505040E695001C37
S1131F70CAF729D0FE2F27D0660F771F881FBB1FF3
S1131F80261737074807AB07B0E809F0BB0B802DCD
S1131F90BF01FF2793585F4F2AF09E3F510568F019
S1131FA0D1C051C15F3FECF3983EDCF38695779541
S1131FB06795B795F7959F5FC9F7880F911D96951B
S1131FC0879597F90895E1E0660F771F881FBB1F77
S1131FD0621773078407BA0720F0621B730B840B24
S1131FE0BA0BEE1F88F7E095089504D06894B111F8
S1131FF02AC108950DD188F09F5790F0B92F9927E1
S1132000B751A0F0D1F0660F771F881F991F1AF0FF
S1132010BA95C9F712C0B13081F014D1B1E0089576
S113202011C1672F782F8827B85F39F0B93FCCF3F7
S1132030869577956795B395D9F73EF490958095F5
S1132040709561957F4F8F4F9F4F0895E89409C015
S113205097FB3EF490958095709561957F4F8F4FD7
S11320609F4F9923A9F0F92F96E9BB279395F695ED
S1132070879577956795B795F111F8CFFAF4BB0F6B
S113208011F460FF1BC06F5F7F4F8F4F9F4F16C0CF
S1132090882311F096E911C0772321F09EE8872F59
S11320A0762F05C0662371F096E8862F70E060E015
S11320B02AF09A95660F771F881FDAF7880F96958E
S11320C0879597F90895DF93CF931F930F938B010F
S11320D0EC01E0EEF0E03FD082D09801AE018B013C
S11320E0EC0160E070E080E89FE397DE1DD1980189
S11320F0AE010F911F91CF91DF91BBC0990F0008E2
S1132100550FAA0BE0E8FEEF16161706E807F907C5
S1132110C0F012161306E407F50798F0621B730B60
S1132120840B950B39F40A2661F0232B242B252BE1
S113213021F408950A2609F4A140A6958FEF811D84
S1132140811D089597F99F6780E870E060E0089525
S11321509FEF80EC0895DF93CF931F930F93FF922B
S1132160EF92DF927B018C01689405C0DA2EEF01B7
S113217080D0FE01E894A591259135914591559122
S1132180AEF3EF015CDEFE019701A801DA9479F762
S1132190DF90EF90FF900F911F91CF91DF91089501
S11321A09F938F937F936F93FF93EF939B01AC0166
S11321B054D0EF91FF91CFDF2F913F914F915F91D9
S11321C04CC000240A94161617061806090608952A
S11321D000240A9412161306140605060895092EFF
S11321E00394000C11F4882352F0BB0F40F4BF2B6E
S11321F011F460FF04C06F5F7F4F8F4F9F4F0895AE
S113220057FD9058440F551F59F05F3F71F04795A3
S1132210880F97FB991F61F09F3F79F08795089588
S1132220121613061406551FF2CF4695F1DF08C0A7
S1132230161617061806991FF1CF869571056105C4
S113224008940895E894BB2766277727CB0197F96C
S1132250089554DF08F48FEF08950BD0C0CFB1DF99
S113226028F0B6DF18F0952309F06CCF71CF112454
S1132270EACFC6DFA0F3959FD1F3950F50E0551F29
S1132280629FF001729FBB27F00DB11D639FAA27C7
S1132290F00DB11DAA1F649F6627B00DA11D661F16
S11322A0829F2227B00DA11D621F739FB00DA11D37
S11322B0621F839FA00D611D221F749F3327A00DF1
S11322C0611D231F849F600D211D822F762F6A2F8D
S11322D011249F5750408AF0E1F088234AF0EE0F12
S11322E0FF1FBB1F661F771F881F91505040A9F71F
S11322F09E3F510570F026CFA6CF5F3FECF3983E8A
S1132300DCF3869577956795B795F795E7959F5F85
S1132310C1F7FE2B880F911D9695879597F908951F
S113232011F40EF415CF3EC073DFD0F39923D9F323
S1132330CEF39F57550B87FF43D00024A0E640EA15
S1132340900180585695979528F4805C660F771F06
S1132350881F20F026173707480730F4621B730BD9
S1132360840B202931294A2BA695179407942025FC
S113237031254A2758F7660F771F881F20F0261744
S11323803707480730F4620B730B840B200D311DA3
S1132390411DA09581F7B901842F9158880F969516
S11323A0879508959F3F31F0915020F48795779554
S11323B06795B795880F911D9695879597F9089518
S11323C091505040660F771F881FD2F70895FC0183
S11323D088279927E89421912032E9F3293010F0D5
S11323E02E30C8F32B3239F02D3231F4689403C007
S11323F035D0820F911D219120532A30C8F31EF449
S1132400909581959F4F08954CE05BE000C0FA01E0
S1132410A191B081009719F41097E1F0CD01DC018E
S1132420CD010D90002011F4C00113C0FB012191D6
S1132430222319F02015D9F7F3CFFB0121912015A0
S113244019F41E92119606C02223C1F70D900020A4
S1132450A1F7D001FA01A193B08308957AE0979F80
S1132460902D879F802D910D112408950F931F9314
S1132470CF93DF93009731F46115710519F480E06F
S113248090E039C08B01EC016EE070E081E090E0F7
S1132490A6D2FC01892B99F380E8838301151105E9
S11324A071F01387028781E883838091300C9091C7
S11324B0310C892B21F4F093310CE093300C2097EC
S11324C0C9F0D187C0878381826083838091320C75
S11324D09091330C892B71F4F093330CE093320C0C
S11324E08091340C9091350C892B21F4F093350CA8
S11324F0E093340CCF01DF91CF911F910F91089598
S1132500CF93DF93EC012B8120FF33C026FF0AC059
S11325102F7B2B838E819F8101969F838E838A815B
S113252090E029C022FF0FC0E881F9818081082E44
S1132530000C990B009719F420622B831AC0319672
S1132540F983E8830EC0EA85FB85199597FF09C0D6
S11325502B81019611F080E201C080E1822B8B83F4
S113256008C02E813F812F5F3F4F3F832E839927E1
S113257002C08FEF9FEFDF91CF910895CF93DF9348
S1132580CDB7DEB7AE014A5F5F4FFA016191719139
S1132590AF018091320C9091330C33D0DF91CF9105
S11325A008950F931F93CF93DF93E091320CF09132
S11325B0330C238121FF1BC08C01D0E0C0E0F80163
S11325C081918F016091320C7091330CDB0118966C
S11325D0ED91FC911997882331F01995892B79F3A2
S11325E0DFEFCFEFECCF8AE01995892B19F08FEF4D
S11325F09FEF02C08D2F9C2FDF91CF911F910F91E0
S113260008952F923F924F925F926F927F928F9292
S11326109F92AF92BF92CF92DF92EF92FF920F936D
S11326201F93CF93DF93CDB7DEB72C970FB6F894F3
S1132630DEBF0FBECDBF7C016B018A01FC01178296
S11326401682838181FFB0C1CE0101964C01F7014E
S11326509381F60193FD859193FF81916F01882306
S113266009F49EC1853239F493FD859193FF8191DC
S11326706F01853221F4B70190E015D3E8CF512CD6
S1132680312C20E02032A0F48B3269F030F4803217
S113269059F0833269F420612CC08D3239F08033D3
S11326A039F4216026C02260246023C0286021C040
S11326B027FD27C030ED380F3A3078F426FF06C0E6
S11326C0FAE05F9E300D1124532E13C08AE0389E29
S11326D0300D1124332E20620CC08E3221F426FDDD
S11326E05FC1206406C08C3611F4206802C08836AD
S11326F041F4F60193FD859193FF81916F0181115E
S1132700C1CF982F9F7D9554933028F40C5F1F4FB1
S1132710FFE3F9830DC0833631F0833771F08335DD
S113272009F057C021C0F801808189830E5F1F4FD3
S113273044244394512C540114C03801F2E06F0E28
S1132740711CF801A080B18026FF03C0652D70E0E4
S113275002C06FEF7FEFC5012C879AD22C01830151
S11327602C852F77222E16C03801F2E06F0E711CD3
S1132770F801A080B18026FF03C0652D70E002C07F
S11327806FEF7FEFC5012C8771D22C012C85206857
S1132790222E830123FC19C0832D90E0481659068C
S11327A0A0F4B70180E290E07ED23A94F5CFF5012F
S11327B027FC859127FE81915F01B70190E073D2D8
S11327C031103A94F1E04F1A51084114510479F749
S11327D0DEC0843611F0893631F5F80127FF07C0D1
S11327E060817181828193810C5F1F4F08C0608179
S11327F07181072E000C880B990B0E5F1F4F2F76EB
S1132800722E97FF09C090958095709561957F4FC2
S11328108F4F9F4F2068722E2AE030E0A4017BD2B4
S1132820A82EA81843C0853729F42F7EB22E2AE09B
S113283030E025C0F22FF97FBF2E8F36C1F018F497
S1132840883579F0ADC0803719F0883721F0A8C0F9
S11328502F2F2061B22EB4FE0DC08B2D8460B82EB4
S113286009C024FF0AC09F2F9660B92E06C028E035
S113287030E005C020E130E002C020E132E0F801A0
S1132880B7FE07C060817181828193810C5F1F4F05
S113289006C06081718180E090E00E5F1F4FA4014B
S11328A03AD2A82EA818FB2DFF777F2E76FE0BC0F8
S11328B0372D3E7FA51450F474FE0AC072FC08C084
S11328C0372D3E7E05C0BA2C372D03C0BA2C01C06B
S11328D0B52C34FF0DC0FE01EA0DF11D808180335B
S11328E011F4397E09C032FF06C0B394B39404C016
S11328F0832F867809F0B39433FD12C030FF06C0ED
S11329005A2CB31418F4530C5B18B32CB31460F49E
S1132910B70180E290E03C87C6D1B3943C85F6CF02
S1132920B31410F43B1801C0312C34FF11C0B701AB
S113293080E390E03C87B7D13C8532FF16C031FD7F
S113294003C088E790E002C088E590E0B7010CC0BE
S1132950832F867851F031FF02C08BE201C080E200
S113296037FD8DE2B70190E09ED1A51430F4B70194
S113297080E390E098D15A94F8CFAA94F401EA0D38
S1132980F11D8081B70190E08ED1A110F6CF3320E4
S113299009F45DCEB70180E290E085D13A94F7CF97
S11329A0F7018681978102C08FEF9FEF2C960FB6B7
S11329B0F894DEBF0FBECDBFDF91CF911F910F9171
S11329C0FF90EF90DF90CF90BF90AF909F908F904B
S11329D07F906F905F904F903F902F9008950F934A
S11329E01F93CF93DF93869F8001879F100D969F3F
S11329F0100D1124C8010DD0EC01009721F0A8019D
S1132A0060E070E03ED1CE01DF91CF911F910F9134
S1132A100895CF93DF938230910510F482E090E023
S1132A20E091380CF091390C20E030E0C0E0D0E0C7
S1132A30309711F14081518148175907C0F0481768
S1132A40590761F482819381209719F09B838A83CB
S1132A502BC09093390C8093380C26C02115310576
S1132A6019F04217530718F49A01BE01DF01EF0170
S1132A700280F381E02DDCCF2115310509F1281BFB
S1132A80390B2430310590F412968D919C91139753
S1132A906115710521F0FB019383828304C0909337
S1132AA0390C8093380CFD01329644C0FD01E20FCD
S1132AB0F31F81939193225031092D933C933AC093
S1132AC02091360C3091370C232B41F420910402D1
S1132AD0309105023093370C2093360C209102027A
S1132AE0309103022115310541F42DB73EB74091D1
S1132AF0060250910702241B350BE091360CF0912D
S1132B00370CE217F307A0F42E1B3F0B28173907E5
S1132B1078F0AC014E5F5F4F2417350748F04E0F35
S1132B205F1F5093370C4093360C8193919302C0EE
S1132B30E0E0F0E0CF01DF91CF9108950F931F9370
S1132B40CF93DF93009709F48CC0FC013297138272
S1132B5012820091380C1091390C0115110581F481
S1132B6020813181820F931F2091360C3091370CD4
S1132B702817390779F5F093370CE093360C71C0B8
S1132B80D80140E050E0AE17BF0750F412962D91E3
S1132B903C911397AD012115310509F1D901F3CF0A
S1132BA09D01DA013383228360817181860F971F2F
S1132BB08217930769F4EC0128813981260F371FA6
S1132BC02E5F3F4F318320838A819B81938382834D
S1132BD0452B29F4F093390CE093380C42C013963A
S1132BE0FC93EE931297ED01499159919E01240FA4
S1132BF0351FE217F30771F480819181840F951FCB
S1132C00029611969C938E938281938113969C9342
S1132C108E931297E0E0F0E0D80112968D919C918A
S1132C201397009719F0F8018C01F6CF8D919C91C0
S1132C3098012E5F3F4F820F931F2091360C3091E5
S1132C40370C2817390769F4309729F41092390C96
S1132C501092380C02C0138212821093370C009326
S1132C60360CDF91CF911F910F910895FC010590CF
S1132C70615070400110D8F7809590958E0F9F1F7A
S1132C800895DC0101C06D9341505040E0F7089570
S1132C90FC016150704001900110D8F78095909527
S1132CA08E0F9F1F08950F931F93CF93DF93FB0104
S1132CB0238121FD03C08FEF9FEF28C022FF16C0A0
S1132CC046815781248135814217530744F4A081FA
S1132CD0B1819D012F5F3F4F318320838C932681E7
S1132CE037812F5F3F4F3783268310C0EB01092FB5
S1132CF0182F0084F185E02D1995892BE1F68E813A
S1132D009F8101969F838E83812F902FDF91CF9196
S1132D101F910F910895FA01AA27283051F120310B
S1132D2081F1E8946F936E7F6E5F7F4F8F4F9F4F5B
S1132D30AF4FB1E03ED0B4E03CD0670F781F891F9D
S1132D409A1FA11D680F791F8A1F911DA11D6A0F6B
S1132D50711D811D911DA11D20D009F468943F911E
S1132D602AE0269F11243019305D3193DEF6CF011D
S1132D700895462F4770405D4193B3E00FD0C9F7E3
S1132D80F6CF462F4F70405D4A3318F0495D31FD50
S1132D904052419302D0A9F7EACFB4E0A6959795A3
S1132DA0879577956795BA95C9F700976105710579
S1132DB008959B01AC010A2E0694579547953795C3
S1132DC02795BA95C9F7620F731F841F951FA01D1D
S1092DD00895F894FFCF02
S1132DD6010000003A0C2000FFFF010070003D01D5
S1132DE68E03C2028E03C20270003D0164007000AD
S1132DF633018E03C2028E03C2022500560164000B
S1132E06250000023203000232030002CD00000254
S1132E16C800CD0000023203000232030002CD00D6
S1132E2600026400CD0000023203000232030002F5
S1132E36CD0000026400CD0000023203000232031A
S1132E460002CD0000026400CD000002320300023D
S1132E5632030002CD0000026400CD0000023203FA
S1132E66000232030002CD000002640066009A01EB
S1132E76980366029803660266009A016400CD0010
S1132E8600023203000232030002CD000002640095
S1132E96DE006501A203C2028E03C2022F00600196
S1132EA6C8005C003D01C003E0025C039A027000A6
S1132EB63D01C8005C003D01C003E002CF039F0250
S1132EC670003D01C8005C003D0120039002CF0361
S1132ED69F0270003D01C80052002901A203C202EC
S1132EE68E03AE02A2004701C80052002901A203C4
S1132EF6C2028E03C2022F006001C80070003D01A9
S1132F068E03C2028E03C20270003D01640070008B
S1132F163D018E03C2028E03C20270003D016400AD
S1132F2670003D018E03C2028E03C20270003D0191
S1132F36640070003D018E03C2028E03C20270005B
S1132F463D016400660033019803CC029803CC0269
S1132F56660033013200660033019803CC029803FD
S1132F66CC02660033013200660033019803CC02BA
S1132F769803CC02660033013200660033019803DD
S1132F86CC029803CC02660033013200660033019A
S1132F969803CC029803CC02660033013200660023
S1132FA633019803CC029803CC0266003301320045
S1132FB6660033019803CC029803CC026600330101
S1132FC63200660033019803CC029803CC026600F3
S1132FD633013200660033019803CC029803CC0215
S1132FE6660033013200000033019803320398036C
S1132FF63203000033013200000033019803CC028F
S11330069803CC02000033013200660033019803B2
S1133016CC029803CC02660033013200000033016F
S11330269803320398033203000033013200000090
S113303633019803CC029803CC020000330132001A
S1133046660033019803CC029803CC026600330170
S113305632006600CD00FF03CC02FF03CC026600FB
S1133066CD00640066003301FF03CC02FF03CC02EB
S1133076660033016400660033019803CC029803AA
S1133086CC026600330164006600CD00FF03CC0267
S1133096FF03CC026600CD00640066003301FF0323
S11330A6CC02FF03CC0266003301640066003301E0
S11330B69803CC029803CC026600330164009A019B
S11330C6CC02320300029803660200003301640056
S11330D6330100023203000298030002CD0000020D
S11330E66400330100029803000232030002000068
S11330F63301640033010002980300029803660258
S113310666009A016400CD00000266023301FF03E3
S1133116CC0266009A016400CD000002CC020002D3
S11331263203000266000002640066000002CC025C
S11331360002FF03CC02CD00000264006600000218
S1133146CC0200029803660266009A016400CD0070
S113315600023203000232030002CD0000026400C2
S1133166020004000E00110005000700100006000E
S113317600C03544000079432323232073656E730E
S11331866F72496E69740025640A0A0025643A7BE5
S113319625642C2025642C2025642C2025642C20D1
S11331A625642C2025642C2025642C2025647D0A86
S11331B60025643A25642C25642C25642C25642C6E
S11331C625642C25642C25642C25642C25642C2547
S11331D6642C25642C25642C25640A0025643A2570
S11331E6642C25642C25642C25642C25642C2564E8
S11331F62C25642C25642C25642C25642C25642C10
S113320625640A0025643B0A00496E7075742076AD
S11332166F6C74616765206572726F722100416E0E
S1133226676C65206C696D6974206572726F7221B2
S1133236004F76657268656174206572726F7221DB
S1133246004F7574206F662072616E676520657223
S1133256726F722100436865636B73756D206572C6
S1133266726F7221004F7665726C6F6164206572AD
S1133276726F722100496E737472756374696F6E2E
S113328620636F6465206572726F722100434F4D2F
S11332964D5F54584641494C3A204661696C656411
S11332A6207472616E736D697420696E73747275BD
S11332B66374696F6E207061636B65742100434F9C
S11332C64D4D5F54584552524F523A20496E636FE2
S11332D6727265637420696E737472756374696F50
S11332E66E207061636B65742100434F4D4D5F52D0
S11332F6584641494C3A204661696C6564206765C5
S11333067420737461747573207061636B657420C3
S113331666726F6D206465766963652100434F4D5F
S11333264D5F525857414954494E473A204E6F779C
S113333620726563696576696E6720737461747556
S113334673207061636B65742100434F4D4D5F526A
S11333565854494D454F55543A2054686572652072
S11333666973206E6F207374617475732070616362
S11333766B65742100434F4D4D5F5258434F525273
S11333865550543A20496E636F72726563742073A4
S11333967461747573207061636B6574210054687D
S11333A6697320697320756E6B6E6F776E20657214
S11333B6726F7220636F6465210025642025640A98
S11333C6002323232073746172740D0023232320A6
S11333D66D6F7665203100232323206D6F74696F2A
S11333E66E436F756E74203E206D61782E206D6F6E
S11333F674696F6E436F756E743A25642C206D6123
S1133406783A25640A00232323206D6F74696F6E4E
S1133416436F756E743A25640A002D002B0023232E
S11334262320677261766974795820257325642E82
S113343625642564470D0A00232323206D477972EA
S11334466F582025640D0A002323232067657441E1
S11334566E676C65582025642E256425640D0A0064
S10F3466232323204F6F7073210D0000FE
S9030000FC
