:1000000065C0000084C0000082C0000080C0000005
:100010007EC000007CC000007AC0000078C00000F4
:1000200076C0000074C0000072C0000070C0000004
:100030006EC000006CC000006AC0000068C0000014
:1000400066C0000064C0000062C0000060C0000024
:100050005EC000005CC000005AC0000058C0000034
:1000600056C000000DC4000052C0000050C0000087
:100070004EC000004CC000004AC0000048C0000054
:1000800046C0000044C0000042C0000040C0000064
:10009000FCC400003CC000003AC0000038C00000B2
:1000A00036C0000034C0000032C0000030C0000084
:1000B0002EC000002CC000002AC0000028C0000094
:1000C00026C0000024C0000022C0000011241FBE72
:1000D000CFEFD1E2DEBFCDBF00E00CBF19E0A0E062
:1000E000B2E0E8E0F4E300E00BBF02C007900D923D
:1000F000A437B107D9F71DE0A4E7B9E001C01D920C
:10010000AA30B107E1F70E94A6120C94021A78CF28
:100110008091CC049091CD04089580937609089540
:10012000809378090895FC01EC58F64F6583089593
:1001300080937709089520E030E09091180A982381
:1001400011F021E030E0C90108958091170A90E094
:100150000895FC01EC5EF54F858190E00895362FFF
:1001600020E0280F391FC9010895282F30E0C90168
:1001700008958070892F90E008950F931F93CF9377
:10018000DF9380915C0A90915D0A892B09F4B8C0D5
:10019000809176098E3F09F4A9C08091CC0490919A
:1001A000CD04892B29F410925B0A86E080935A0AC9
:1001B00080915B0A90E060915A0A70E0681B790BAD
:1001C0008C5E954F32D390915B0A980F90935B0AA7
:1001D00080915A0A981718F43ED2019771F07091E5
:1001E0005B0A472F50E0DA0111978A010250104054
:1001F00060E0ED01CC5ED54F18C080915B0A88238A
:1002000009F071C086E090E073C0F901EC5EF54F33
:1002100080818F3F19F481818F3F61F02017310772
:1002200019F488818F3F31F06F5F262F30E02A1755
:100230003B075CF36623A1F090E0421B530B08C020
:10024000EC5EF54FDF01A20FB31F8C9180839F5F9F
:10025000E92FF0E0E417F5079CF3761B70935B0A37
:1002600020915B0A80915A0A281728F1909176090B
:100270008091160A9817B9F56091170A6C5F609320
:100280005A0A261788F4822F90E070E0681B790BD9
:100290008C5E954FCAD290915B0A980F90935B0A3F
:1002A00080915A0A981738F08091170AA82FB0E069
:1002B00020E090E00CC085E090E09093CD04809326
:1002C000CC041EC0EC5EF54F8281980F2F5FE22FA9
:1002D000F0E0AE17BF07B4F7AC5EB54F909513963C
:1002E0008C91891719F087E090E002C081E090E0DE
:1002F0009093CD048093CC0410925D0A10925C0A16
:10030000DF91CF911F910F9108951F9380915C0A07
:1003100090915D0A019709F45DC081E090E09093AF
:100320005D0A80935C0A80917709893940F4909145
:100330007809892F8150863028F0933819F084E0AD
:1003400090E02FC08FEF809374098093750980919E
:100350007709A82FB0E020E090E005C0EC58F64FF8
:100360008281980F2F5FE22FF0E0AE17BF07B4F73E
:10037000AC58B64F909513969C938091CC04909175
:10038000CD040697029708F42CD1109177091C5FD1
:1003900084E799E0612F70E029D1181759F082E0C5
:1003A00090E09093CD048093CC0410925D0A10925B
:1003B0005C0A10C080917809823029F480917A0912
:1003C00090E0069602C086E090E034D11092CD0411
:1003D0001092CC041F91089598DF8091CC049091E5
:1003E000CD04892B39F4C9DE8091CC049091CD04E1
:1003F0000597C9F30895282F80915C0A90915D0AB2
:10040000892B89F42093760983E08093780960939F
:100410007909CA0140937A09807090937B0985E03D
:1004200080937709D9CFFFCF282F80915C0A9091D4
:100430005D0A892BB1F42093760982E080937809D4
:100440006093790980937A0984E080937709C4DF07
:1004500030911A0A20E08091190A280F311DC90134
:100460000895FFCF282F80915C0A90915D0A892B17
:1004700069F42093760983E0809378096093790981
:1004800040937A0984E080937709A6CFFFCF282F85
:1004900080915C0A90915D0A892B91F420937609F2
:1004A00082E0809378096093790981E080937A09EA
:1004B00084E08093770990DF8091190A90E0089595
:1004C000FFCF282F80915C0A90915D0A892B49F417
:1004D0002093760981E08093780982E08093770900
:1004E0007BCFFFCF7DC00F931F938C016F5F7F4F3A
:1004F000882777FD8095982F7AD79B01AC0160E023
:1005000074E284EF99E443D6AB01BC01C80115D075
:10051000892B19F420E030E00CC081E090E090934A
:10052000CD048093CC0410925D0A10925C0A21E005
:1005300030E0C9011F910F910895EF92FF920F9340
:100540001F937A018B0182E48093C00088E9809335
:10055000C10086E08093C20060E074E284EF99E419
:10056000A801970114D652D3615070407093C50012
:100570006093C40060E074E284E799E4A801970105
:1005800006D620E030E040E451E40AD56093F80C50
:100590007093F90C8093FA0C9093FB0C2091F80C5B
:1005A0003091F90C4091FA0C5091FB0C60E070E036
:1005B0008AE793E4ECD52AD37093F70C6093F60C9A
:1005C0007298739A8FEF8093C60010925E0B109210
:1005D0005F0B81E090E01F910F91FF90EF900895E5
:1005E000089580915F0B80935E0B0895AC01F894A1
:1005F0007398729A20E030E011C08091C00085FFAE
:10060000FCCF8091C00080648093C000FA01E20FAB
:10061000F31F80818093C6002F5F3F4F2617370757
:1006200064F38091C00086FFFCCF7298739A78942F
:10063000C90108951092FF0C1092FE0C2091F60C47
:100640003091F70C265F3F4F280F391F3093FD0C78
:100650002093FC0C0895AF92BF92CF92DF92EF925D
:10066000FF920F931F938091FE0C9091FF0C0196C7
:100670009093FF0C8093FE0C2091FE0C3091FF0CA8
:100680008091FC0C9091FD0C8217930718F421E0E7
:1006900030E069C0A090F80CB090F90CC090FA0C52
:1006A000D090FB0CC601B5012BEA3AEA4AEA50E4C5
:1006B00077D47B018C0120E030E040E85FE36AD62C
:1006C000882314F461E04BC0C801B70120E030E09A
:1006D0004FE753E405D618160CF03EC0C601B5012D
:1006E00020E030E04AE754E452D55B016C0120E0A1
:1006F00030E04AE755E454D47B018C0120E030E03F
:1007000040E85FE347D688231CF461E070E020C036
:10071000C801B70120E03FEF4FE757E4E1D51816D5
:10072000A4F4C601B50120E030E040E251E438D441
:100730006DD280E991E005C0FC013197F1F761507D
:10074000704061157105C1F70CC0C801B7015ED2D8
:10075000CB010197F1F705C0C801B70157D26A95DF
:10076000F1F720E030E0C9011F910F91FF90EF9069
:10077000DF90CF90BF90AF90089590915E0B8091E5
:100780005F0B981719F420E030E017C090915E0BD2
:1007900080915F0B981738F480915F0B90915E0BFE
:1007A000282F30E008C080915F0B90915E0B282FBE
:1007B00030E020503F4F291B3109C90108951F9394
:1007C000182FDBDF8F3F910591F0E0915F0BF0E098
:1007D000E25AF54F108380915F0B8F3F19F410920E
:1007E0005F0B05C080915F0B8F5F80935F0B1F9144
:1007F000089590915E0B80915F0B981711F4EFEFC5
:1008000012C0E0915E0BF0E0E25AF54FE08180917A
:100810005E0B8F3F19F410925E0B05C080915E0B4A
:100820008F5F80935E0B8E2F0895EF92FF920F9350
:100830001F93CF93DF937C01EB0190915E0B80912E
:100840005F0B981719F400E010E012C096DF8C01DE
:10085000C817D9070CF48E01C0E0D0E006C0C9DF8C
:10086000F701EC0FFD1F80832196C017D107BCF361
:10087000C801DF91CF911F910F91FF90EF900895E4
:100880001F920F920FB60F920BB60F9211242F9357
:100890003F934F935F936F937F938F939F93AF9308
:1008A000BF93EF93FF938091C60089DFFF91EF9193
:1008B000BF91AF919F918F917F916F915F914F9178
:1008C0003F912F910F900BBE0F900FBE0F901F9076
:1008D0001895AC0120E030E00CC08091C80085FF85
:1008E000FCCFFA01E20FF31F80818093CE002F5FCF
:1008F0003F4F261737078CF30895DC019091E00BEA
:100900008091E10B981711F480E008959091E00B2D
:100910008091E10B981719F420E030E017C0909116
:10092000E00B8091E10B981738F48091E10B9091E6
:10093000E00B282F30E008C08091E10B9091E00B94
:10094000282F30E020583F4F291B3109A901621799
:1009500073070CF4AB0120E030E020C09091E00B75
:100960008091E10B981711F49FEF12C0E091E00B1A
:10097000F0E0E05AF44F90818091E00B8F3719F44A
:100980001092E00B05C08091E00B8F5F8093E00B2D
:10099000FD01E20FF31F90832F5F3F4F24173507B0
:1009A000ECF2842F08959091E00B8091E10B981761
:1009B00019F420E030E017C09091E00B8091E10B3A
:1009C000981738F48091E10B9091E00B282F30E0DC
:1009D00008C08091E10B9091E00B282F30E0205867
:1009E0003F4F291B3109C9010895482F9091E00B11
:1009F0008091E10B9817D1F09091E00B8091E10B81
:100A0000981738F48091E10B9091E00B282F30E09B
:100A100008C08091E10B9091E00B282F30E0205826
:100A20003F4F291B31092F37310591F0E091E10B40
:100A3000F0E0E05AF44F40838091E10B8F3719F4D6
:100A40001092E10B08958091E10B8F5F8093E10B91
:100A500008959091E00B8091E10B981711F4EFEF5E
:100A600012C0E091E00BF0E0E05AF44FE081809199
:100A7000E00B8F3719F41092E00B05C08091E00B6A
:100A80008F5F8093E00B8E2F08951F920F920FB609
:100A90000F920BB60F9211242F933F934F935F93B6
:100AA0006F937F938F939F93AF93BF93EF93FF9336
:100AB0008091CE009ADFFF91EF91BF91AF919F910E
:100AC0008F917F916F915F914F913F912F910F90F7
:100AD0000BBE0F900FBE0F901F901895DF93CF9312
:100AE0000F920F92CDB7DEB7982F8A3099F48DE030
:100AF00089839A83FE0131969E012D5F3F4F80913D
:100B0000C80085FFFCCF81918093CE00E217F307E8
:100B1000B1F706C08091C80085FFFCCF9093CE004E
:100B200080E090E00F900F90CF91DF910895909129
:100B3000E00B8091E10B9817D1F39091E00B80913D
:100B4000E10B981738F48091E10B9091E00B282F7E
:100B500030E008C08091E10B9091E00B282F30E04D
:100B600020583F4F291B3109232B09F39091E00BAB
:100B70008091E10B981711F4EFEF15C0E091E00BB5
:100B8000F0E0E05AF44FE0818091E00B8F3719F4E8
:100B90001092E00B05C08091E00B8F5F8093E00B1B
:100BA000ED3009F4EAE08E2F90E0089520D49B0107
:100BB000AC0160E074E284EF99E4E9D227D061509F
:100BC000704022E42093C80028E92093C90026E061
:100BD0002093CA002FEF2093CE001092E00B1092CA
:100BE000E10B272F332727FD3A952093CD00609303
:100BF000CC007298739A8EE695E067E975E00E94E2
:100C000070159093E30B8093E20B0895EF92FF929F
:100C10000F931F937B018C0120E030E040E05FE404
:100C20008CD388237CF0C801B70120E030E040E09D
:100C30005FE460D138D49B01AC012050304040408B
:100C4000504805C0C801B7012ED49B01AC01B901C1
:100C5000CA011F910F91FF90EF900895A0E0B0E0BE
:100C6000E4E3F6E00C94EA14DC012B01FA019C9118
:100C7000923008F439C1EB018881823008F433C125
:100C8000943069F4843009F02FC111969C9111972A
:100C90008981981709F428C1AEECB4E025C18430ED
:100CA00009F421C18230A9F4923009F01DC19A01E2
:100CB000AD0188E0EA010990AE01E90109929E01C7
:100CC0008150C1F7E201898111969C91892381832A
:100CD00008C1923009F407C112962D903C901397E9
:100CE000EB018A819B811496AD90BD90CD90DC90F4
:100CF0001797EC80FD800E811F819101281B390B15
:100D0000B90137FF04C066277727621B730B603277
:100D100071050CF061C0121613066CF5370148011D
:100D2000062E04C096948794779467940A94D2F719
:100D300021E030E040E050E004C0220F331F441FA8
:100D4000551F6A95D2F721503040404050402E2127
:100D50003F2140235123211531054105510521F043
:100D600021E030E040E050E079018A01E628F728F0
:100D7000082919293CC0232BD1F1260E371E350135
:100D80004601062E04C096948794779467940A943B
:100D9000D2F721E030E040E050E004C0220F331FE2
:100DA000441F551F6A95D2F72150304040405040B3
:100DB0002A213B214C215D21211531054105510599
:100DC00021F021E030E040E050E059016A01A6281E
:100DD000B728C828D9280BC0821593052CF01C0110
:100DE000AA24BB24650103C0EE24FF2487011196C9
:100DF0009C91D20111968C91981709F445C09923C2
:100E000039F0A80197012A193B094C095D0906C070
:100E1000A60195012E193F09400B510B57FD08C043
:100E200011823382228224833583468357831DC0F7
:100E300081E081833382228288279927DC01821B0B
:100E4000930BA40BB50B84839583A683B7830DC046
:100E5000220F331F441F551F248335834683578336
:100E60008281938101979383828324813581468196
:100E70005781DA01C9010197A109B1098F5F9F4F1D
:100E8000AF4FBF4328F30BC0918333822282EA0C19
:100E9000FB1C0C1D1D1DE482F5820683178383E075
:100EA0008083248135814681578157FF1AC0C9014B
:100EB000AA2797FDA095BA2F81709070A070B0708E
:100EC0005695479537952795822B932BA42BB52BB9
:100ED00084839583A683B7838281938101969383CC
:100EE0008283DF0101C0D201CD01CDB7DEB7E2E1DF
:100EF0000C940615A0E2B0E0E0E8F7E00C94F614DC
:100F000069837A838B839C832D833E834F835887A9
:100F1000E9E0EE2EF12CEC0EFD1ECE010196B7019C
:100F200039D48E010F5E1F4FCE010596B80132D421
:100F30008A8991E089278A8BC701B801AE01475E93
:100F40005F4F8CDE52D3A096E6E00C941215A0E21F
:100F5000B0E0EDEAF7E00C94F61469837A838B83B2
:100F60009C832D833E834F835887F9E0EF2EF12C2D
:100F7000EC0EFD1ECE010196B7010CD48E010F5E62
:100F80001F4FCE010596B80105D4C701B801AE01C7
:100F9000475E5F4F63DE29D3A096E6E00C941215FE
:100FA000A0E2B0E0E6EDF7E00C94EA1469837A83FE
:100FB0008B839C832D833E834F835887CE0101967C
:100FC000BE01675F7F4FE6D3CE010596BE016F5E1F
:100FD0007F4FE0D39985923088F089898230C8F0BC
:100FE000943019F4823051F404C0843029F49230E2
:100FF00081F48EEC94E0C6C0923049F420E09A85EA
:101000008A89981321E02A87CE010996BBC08230D5
:1010100049F420E09A858A89981321E02A8BCE0131
:101020004196B0C02D843E844F8458886D887E8858
:101030008F88988CEE24FF248701AA24BB246501A5
:1010400040E050E060E070E0E0E0F0E0C10181707D
:101050009070892BE9F0E60CF71C081D191D9A0108
:10106000AB012A0D3B1D4C1D5D1D80E090E0A0E012
:10107000B0E0E614F7040805190520F481E090E0DB
:10108000A0E0B0E0BA01A901480F591F6A1F7B1FF9
:10109000AA0CBB1CCC1CDD1C97FE08C081E090E0B4
:1010A000A0E0B0E0A82AB92ACA2ADB2A3196E032A9
:1010B000F10549F0660C771C881C991C56944794DE
:1010C00037942794C3CFFA85EA892B893C898B858D
:1010D0009C85280F391F2E5F3F4F17C0CA018170B2
:1010E0009070892B61F016950795F794E79480E04E
:1010F00090E0A0E0B0E8E82AF92A0A2B1B2B7695AD
:101100006795579547952F5F3F4F77FDE7CF0CC009
:10111000440F551F661F771F17FD4160EE0CFF1C23
:10112000001F111F21503040403090E0590790E0DF
:10113000690790E4790760F32B8F3C8FDB01CA01CC
:101140008F779070A070B07080349105A105B105C3
:1011500061F447FD0AC0E114F1040105110529F00D
:10116000405C5F4F6F4F7F4F40781A8EFE1711F033
:1011700081E08A8F4D8F5E8F6F8F78A383E0898F98
:10118000CE01499632D2A096E2E10C940615A8E170
:10119000B0E0EDECF8E00C94F21469837A838B8371
:1011A0009C832D833E834F835887B9E0EB2EF12C2F
:1011B000EC0EFD1ECE010196B701ECD28E010F5E42
:1011C0001F4FCE010596B801E5D22985223008F4DB
:1011D0007EC03989323010F4B8017CC08A859A8982
:1011E00089278A87243011F0223031F4231709F03F
:1011F0006EC06EEC74E06EC0343039F41D861E860D
:101200001F86188A1C861B8604C0323021F484E0B5
:101210008987B7015FC02B853C858B899C89281BFA
:10122000390B3C872B87ED84FE840F851889AD88A8
:10123000BE88CF88D88CEA14FB040C051D0540F449
:10124000EE0CFF1C001F111F215030403C872B87E4
:1012500020E030E040E050E080E090E0A0E0B0E44A
:1012600060E070E0EA14FB040C051D0540F0282B3B
:10127000392B4A2B5B2BEA18FB080C091D09B69584
:10128000A79597958795EE0CFF1C001F111F6F5FA8
:101290007F4F6F31710531F7DA01C9018F77907097
:1012A000A070B07080349105A105B10561F427FDEF
:1012B0000AC0E114F1040105110529F0205C3F4F3B
:1012C0004F4F5F4F20782D873E874F87588BBE0149
:1012D000675F7F4FCB0189D16896EAE00C940E15C9
:1012E000A8E1B0E0E6E7F9E00C94F61469837A83AC
:1012F0008B839C832D833E834F83588789E0E82E20
:10130000F12CEC0EFD1ECE010196B70143D28E01E9
:101310000F5E1F4FCE010596B8013CD28985823001
:1013200038F08989823020F0C701B801ABD201C002
:101330008FEF6896E6E00C941215A8E1B0E0E3EABE
:10134000F9E00C94F61469837A838B839C832D8354
:101350003E834F83588789E0E82EF12CEC0EFD1E6A
:10136000CE010196B70116D28E010F5E1F4FCE013E
:101370000596B8010FD28985823038F0898982308C
:1013800020F0C701B8017ED201C08FEF6896E6E079
:101390000C941215A8E1B0E0E0EDF9E00C94F6141D
:1013A00069837A838B839C832D833E834F83588705
:1013B00089E0E82EF12CEC0EFD1ECE010196B7015E
:1013C000E9D18E010F5E1F4FCE010596B801E2D123
:1013D0008985823038F08989823020F0C701B801D0
:1013E00051D201C081E06896E6E00C941215A8E0A5
:1013F000B0E0EDEFF9E00C94F3149B01AC0183E055
:101400008983DA01C9018827B7FD83959927AA271F
:10141000BB27B82E211531054105510519F482E08D
:10142000898339C08823A9F0203080E0380780E024
:10143000480780E8580729F460E070E080E09FECFE
:101440002EC0EE24FF248701E21AF30A040B150BC9
:1014500002C079018A018EE1C82ED12CDC82CB82B8
:10146000ED82FE820F831887C801B7016FD0019704
:101470001816190684F4082E04C0EE0CFF1C001F79
:10148000111F0A94D2F7ED82FE820F831887C81AC3
:10149000D90ADC82CB82BA82CE010196A6D02896E8
:1014A000E9E00C940F15ACE0B0E0E9E5FAE00C944B
:1014B000FA1469837A838B839C83CE010196BE01E3
:1014C0006B5F7F4F67D18D81823061F1823050F147
:1014D000843021F48E81882351F12EC02F813885EC
:1014E00037FD20C06E812F3131051CF06623F9F0E5
:1014F00023C08EE190E0821B930B29853A854B85B2
:101500005C8504C056954795379527958A95D2F7FF
:101510006623B1F050954095309521953F4F4F4F40
:101520005F4F0EC020E030E040E050E009C02FEFF8
:101530003FEF4FEF5FE704C020E030E040E050E8CD
:10154000B901CA012C96E2E00C941615EF92FF92B5
:101550000F931F937B018C0180E0E81680E0F80672
:1015600081E0080780E0180788F48FEFE816F1049F
:101570000105110531F028F088E090E0A0E0B0E02E
:1015800017C080E090E0A0E0B0E012C080E0E81674
:1015900080E0F80680E0080781E0180728F088E17D
:1015A00090E0A0E0B0E004C080E190E0A0E0B0E016
:1015B00020E230E040E050E0281B390B4A0B5B0B87
:1015C00004C016950795F794E7948A95D2F7F7012A
:1015D000EA52FB4F8081281B310941095109C90199
:1015E0001F910F91FF90EF900895DF92EF92FF927D
:1015F0000F931F93FC01E480F58006811781D18051
:101600008081823048F480E090E0A0E1B0E0E82AF8
:10161000F92A0A2B1B2BA5C0843009F49FC0823005
:1016200021F4EE24FF24870105C0E114F104010533
:10163000110519F4E0E0F0E096C0628173819FEF3C
:10164000623879070CF05BC022E83FEF261B370BAE
:101650002A3131052CF020E030E040E050E02AC093
:10166000B801A701022E04C0769567955795479556
:101670000A94D2F781E090E0A0E0B0E004C0880FC7
:10168000991FAA1FBB1F2A95D2F70197A109B1097B
:101690008E219F21A023B1230097A105B10521F040
:1016A00081E090E0A0E0B0E09A01AB01282B392B5B
:1016B0004A2B5B2BDA01C9018F779070A070B07054
:1016C00080349105A105B10539F427FF09C0205CDC
:1016D0003F4F4F4F5F4F04C0215C3F4F4F4F5F4F15
:1016E000E0E0F0E02030A0E03A07A0E04A07A0E404
:1016F0005A0710F0E1E0F0E079018A0127C0603874
:10170000710564F5FB01E158FF4FD801C7018F77E0
:101710009070A070B07080349105A105B10539F4C6
:10172000E7FE0DC080E490E0A0E0B0E004C08FE3ED
:1017300090E0A0E0B0E0E80EF91E0A1F1B1F17FFA3
:1017400005C016950795F794E794319687E01695AE
:101750000795F794E7948A95D1F705C0EE24FF2406
:101760008701EFEFF0E06E2F679566276795902F62
:101770009F77D794DD24D7948E2F8695492F462BBB
:10178000582F5D29B701CA011F910F91FF90EF906B
:10179000DF900895FC01DB01408151812281622F9D
:1017A0006F7770E0221F2227221F9381892F880FD5
:1017B000822B282F30E0991F9927991F11969C930F
:1017C000119721153105A9F54115510561057105DF
:1017D00011F482E037C082E89FEF13969C938E93BA
:1017E00012979A01AB0167E0220F331F441F551F68
:1017F0006A95D1F783E08C930DC0220F331F441FED
:10180000551F12968D919C911397019713969C9357
:101810008E931297203080E0380780E0480780E4FC
:10182000580758F314962D933D934D935C93179757
:1018300008952F3F310579F4411551056105710572
:1018400019F484E08C93089564FF03C081E08C93C5
:1018500012C01C9210C02F57304013963C932E9309
:10186000129783E08C9387E0440F551F661F771F04
:101870008A95D1F7706414964D935D936D937C9324
:10188000179708951F93DC01FB019C91923008F497
:1018900047C08081823008F443C0943051F41196DF
:1018A0001C91843099F58181682F70E0611B71096A
:1018B0003FC0843021F0923031F48230B9F181811F
:1018C000882389F12DC011961C9111978230F1F077
:1018D00081811817D9F412962D913C91139782812A
:1018E00093818217930794F028173907BCF0149658
:1018F0008D919D910D90BC91A02D248135814681C3
:101900005781281739074A075B0718F4112341F05C
:101910000AC082179307A407B50740F4112319F0F2
:1019200061E070E005C06FEF7FEF02C060E070E043
:10193000CB011F9108958130910571F0823091059E
:10194000A1F0892BD1F481E080937C00E2E2F0E009
:1019500080818F77808311C082E080937C00E2E2F7
:10196000F0E080818F7B808308C083E080937C00DF
:10197000E2E2F0E080818F7D808384E08A95F1F758
:10198000EAE7F0E0808180618083808180648083E9
:10199000808184FFFDCF8EEF82B920917800309155
:1019A000790080919C0C90919D0C280F391F3093E9
:1019B0009D0C20939C0C80919E0C90919F0C019605
:1019C00090939F0C80939E0C0597C4F080919A0C85
:1019D00090919B0C9093990C8093980CC90165E0B1
:1019E00070E0D1D770939B0C60939A0C10929F0C6F
:1019F00010929E0C10929D0C10929C0C0895809158
:101A0000E80B9091E90B82339105CCF4EAEEFBE010
:101A1000880F991F9C01220F331F220F331F220FA3
:101A2000331F820F931FDC01A451BA4F2CEF3BE010
:101A3000819191918D939D93E217F307C9F70895D2
:101A40009C0190938F0C80938E0C7093910C6093FB
:101A5000900C8091880C9091890C892B61F43093C3
:101A6000870C2093860C7093890C6093880C1092DD
:101A7000910C1092900C08959093870C8093860C93
:101A80007093890C6093880C1092910C1092900CBA
:101A900081E090E0909371098093700910928B0C13
:101AA00010928A0C089581E090E0909371098093E0
:101AB00070091092890C1092880C10928B0C109265
:101AC0008A0C8FEF9FEF90937309809372090895AA
:101AD00084309105B1F08530910534F48230910560
:101AE00061F0039711F511C086309105B1F0863091
:101AF00091057CF00797C9F414C080E092E00C9443
:101B00000E1681E392E00C940E168DE592E00C9493
:101B10000E1680E992E00C940E168DEB92E00C9478
:101B20000E1688EE92E00C940E1681E193E00C9470
:101B30000E1681E090E00E949B00019721F48DE257
:101B400093E00E940E1682E090E00E949B000197B5
:101B500021F482E493E00E940E1684E090E00E945B
:101B60009B00019721F485E593E00E940E1688E022
:101B700090E00E949B00019721F485E693E00E948B
:101B80000E1680E190E00E949B00019721F489E706
:101B900093E00E940E1680E290E00E949B00019765
:101BA00021F489E893E00E940E1680E490E00E9400
:101BB0009B00019721F489E993E00C940E16089597
:101BC0002F923F924F925F926F927F928F929F924D
:101BD000AF92BF92CF92DF92EF92FF920F931F933B
:101BE000DF93CF93CDB7DEB7AA970FB6F894DEBFD9
:101BF0000FBECDBF4C01823391050CF079C1FE01BF
:101C0000319680E1DF011D928A95E9F72CED35E0F0
:101C10003EA32DA3C401880F991F9C01220F331FDF
:101C2000220F331F220F331F820F931FDC01A45199
:101C3000BA4FBCA3ABA35F01EDA1FEA1FAA3E9A338
:101C40007D018501CC24DD240F2EFCEE6F2EF5E006
:101C50007F2EF02DA9A1BAA18D919C9164E270E034
:101C60000E941402F70120813181281B390BD80111
:101C700011963C932E93332334F488279927821BA3
:101C8000930B8D939C93F80180819181C816D9069E
:101C90000CF46C0129A13AA12E5F3F4F3AA329A36E
:101CA00082E090E0E80EF91E0E5F1F4F2615370503
:101CB00089F68E010F5E1F4F80E1D8011D928A9533
:101CC000E9F784E690E09A8B898BF401EE0FFF1F11
:101CD000CF01880F991F880F991F880F991FE80F50
:101CE000F91FE450FA4F2081318138A72FA3B901A1
:101CF000882777FD8095982F7ADB1B012C01360110
:101D0000882477FC8094982C1AA709A7C401B301F2
:101D10006EDB6B017C01D5016D917C91882777FD8D
:101D20008095982F64DBA701960131DA9B01AC0105
:101D3000C201B10135D9B7DBF80171836083672B2C
:101D400021F421E030E03183208382E090E0A80E8E
:101D5000B91E0E5F1F4FA9A5BAA5AA16BB06B1F6FC
:101D60008BEF93E16FA178A50ED6882777FD80953C
:101D7000982F3DDBA701960113D995DB70938D0C4D
:101D800060938C0C1616170634F081E090E0909367
:101D90008D0C80938C0C8EEF90E00E948D0083E878
:101DA00090E00E94900080E090E060E270E00E948D
:101DB000930081E090E062E070E00E949300CC2408
:101DC000DD24EE24FF246894E1F80F2EFCED8F2E25
:101DD000F5E09F2EF02D0F2EF1E1AF2EBB24F02D5C
:101DE000AC0EBD1EF401EC0DFD1D60817181C701BB
:101DF0000E949300F501EC0DFD1D00811181C801C9
:101E00000E94B500BC01C70101960E949300C80161
:101E10000E94B900BC01C70102960E949300E2E053
:101E2000F0E0CE0EDF1E23E030E0E20EF31E30E1E4
:101E3000C316D104B9F68CE190E00E9498000E948C
:101E4000EC010E9488008130910509F050C071DEDC
:101E50008EEF90E00E948D0083E890E00E94900059
:101E600080E090E06EE170E00E94930081E090E0FD
:101E700062E070E00E94930002E010E0ADA1BEA11C
:101E80006D917D91BEA3ADA3C8010E949300EBA10B
:101E9000FCA1808191810E94B500BC01C80101961E
:101EA0000E949300ABA1BCA18D919D91BCA3ABA35B
:101EB0000E94B900BC01C80102960E9493000D5F08
:101EC0001F4FEDA1FEA129A13AA1E217F307B1F638
:101ED0008CE190E00E9498000E94EC010E94880032
:101EE0008130910511F425DE03C0F2DD01C0F0DD83
:101EF000AA960FB6F894DEBF0FBECDBFCF91DF918B
:101F00001F910F91FF90EF90DF90CF90BF90AF9017
:101F10009F908F907F906F905F904F903F902F9009
:101F20000895EF92FF920F931F937C018B0100D0D5
:101F300000D0EDB7FEB7319684E094E091838083C2
:101F4000F382E2827583648358D68DB79EB7069676
:101F50000FB6F8949EBF0FBE8DBF8EEF90E00E942B
:101F60008D0083E890E00E94900080E090E060E2C5
:101F700070E00E94930081E090E062E070E00E94D7
:101F8000930082E090E0B7010E949300C8010E9494
:101F9000B500BC0183E090E00E949300C8010E945C
:101FA000B900BC0184E090E00E94930087E090E0DB
:101FB0000E9498000E94EC010E94880081309105E7
:101FC00011F4B7DD01C084DD1F910F91FF90EF90F8
:101FD0000895CF92DF92EF92FF920F931F93DF93BA
:101FE000CF93CDB7DEB760970FB6F894DEBF0FBEC4
:101FF000CDBFFE01319680E1DF011D928A95E9F7A0
:1020000000E010E00F2EFCEDCF2EF5E0DF2EF02DDE
:102010007F01F601E00FF11F808191816AE270E09B
:102020000E9414020E94B500F701E00FF11F918396
:1020300080830E5F1F4F0031110559F78DB79EB792
:102040004C970FB6F8949EBF0FBE8DBFEDB7FEB78D
:1020500031968BE094E09183808385E090E09383D8
:10206000828389819A81958384838B819C819783E4
:1020700086838D819E81918780878F8198859387C4
:10208000828789859A85958784878B859C859787A4
:1020900086878D859E85918B808B8F859889938B84
:1020A000828B89899A89958B848B8B899C89978B64
:1020B000868B8D899E89918F808F8F89988D938F44
:1020C000828F9BD5ADB7BEB75C960FB6F894BEBFF6
:1020D0000FBEADBF60960FB6F894DEBF0FBECDBF8A
:1020E000CF91DF911F910F91FF90EF90DF90CF90F4
:1020F0000895CF92DF92EF92FF920F931F93DF9399
:10210000CF93CDB7DEB760970FB6F894DEBF0FBEA2
:10211000CDBFFE01319680E1DF011D928A95E9F77E
:1021200000E010E00F2EFCEDCF2EF5E0DF2EF02DBD
:102130007F01F601E00FF11F8081918168E270E07C
:102140000E941402F701E00FF11F918380830E5F5C
:102150001F4F0031110569F78DB79EB74C970FB629
:10216000F8949EBF0FBE8DBFEDB7FEB731968BE0E2
:1021700094E09183808384E090E0938382838981DB
:102180009A81958384838B819C81978386838D81BB
:102190009E81918780878F819885938782878985A3
:1021A0009A85958784878B859C85978786878D857B
:1021B0009E85918B808B8F859889938B828B898963
:1021C0009A89958B848B8B899C89978B868B8D893B
:1021D0009E89918F808F8F89988D938F828F0DD557
:1021E000ADB7BEB75C960FB6F894BEBF0FBEADBF1D
:1021F00060960FB6F894DEBF0FBECDBFCF91DF91D2
:102200001F910F91FF90EF90DF90CF9008952DB721
:102210003EB72E5130400FB6F8943EBF0FBE2DBFD3
:10222000ADB7BEB7119623E334E011963C932E93DD
:1022300023E030E013963C932E9312976CEE75E0FA
:102240009C01220F331FA901440F551F440F551F36
:10225000440F551F240F351FAB01420F531FFA01C6
:102260002081318115963C932E9314979C01220F67
:10227000331F220F331F220F331F280F391F2F5FE9
:102280003F4F220F331FFB01E20FF31F20813181EB
:1022900017963C932E931697FA012481358119964F
:1022A0003C932E931897268137811B963C932E934F
:1022B0001A97208531851D963C932E931C97228575
:1022C00033851F963C932E931E9724853585519612
:1022D0003C932E9350972685378553963C932E93A7
:1022E00052972089318955963C932E9354970196A5
:1022F000880F991F9C01220F331F220F331F220FBB
:10230000331F820F931F680F791FFB01808191811A
:1023100057969C938E935697FA018489958959967E
:102320009C938E935897868997895B969C938E93FE
:102330005A97808D918D5D969C938E935C975DD41A
:102340002DB73EB7225E3F4F0FB6F8943EBF0FBE8B
:102350002DBF0895CF92DF92EF92FF920F931F93BC
:10236000DF93CF93CDB7DEB760970FB6F894DEBF9B
:102370000FBECDBFFE01319680E1DF011D928A952F
:10238000E9F700E010E00F2EFCEDCF2EF5E0DF2E98
:10239000F02D7F01F601E00FF11F8081918164E251
:1023A00070E00E941402F701E00FF11F9183808317
:1023B0000E5F1F4F0031110569F78DB79EB7449727
:1023C0000FB6F8949EBF0FBE8DBFEDB7FEB7319626
:1023D0008EE594E09183808382E090E09383828312
:1023E00089819A81958384838B819C81978386835D
:1023F0008D819E81918780878F8198859387828741
:1024000089859A85958784878B859C85978786871C
:102410008D859E85918B808B8F859889938B828B00
:10242000ECD3ADB7BEB754960FB6F894BEBF0FBE8F
:10243000ADBF60960FB6F894DEBF0FBECDBFCF9193
:10244000DF911F910F91FF90EF90DF90CF90089553
:1024500000D00F92EDB7FEB7319623E834E0318318
:10246000208393838283C9D30F900F900F900F9096
:102470000895EF92FF920F931F93DF93CF9300D0B5
:10248000CDB7DEB7DE011196E8E8F4E023E0019075
:102490000D922150E1F7BE016F5F7F4FEFD20097A1
:1024A00089F006EE1BE07E010894E11CF11CC9D204
:1024B000F801819391938F0180E090E0B701DED223
:1024C0000097A9F70F900F900F90CF91DF911F9178
:1024D0000F91FF90EF90089580E090E061E070E050
:1024E0000E9473028FE190E06FE270E041E050E003
:1024F0000E94FB018EEF90E060E270E040E050E06F
:102500000E94FB018EEF90E068E170E040E050E057
:102510000E94320220E137E249E150E0CA0101970E
:10252000F1F721503040D1F708958BE894E076D34D
:1025300060E071EE80E090E00E94D605789486E835
:1025400080937A0081E080937C0008952F923F92DF
:102550004F925F926F927F928F929F92AF92BF92B3
:10256000CF92DF92EF92FF920F931F93CF93DF935F
:102570008CEF81B98EEF82B98FE787B98EE788B982
:1025800080E78AB981E18BB9A7DFF5D1CEDF8AE98F
:1025900094E044D38091960C9091970C019741F46C
:1025A0008EEF90E068E170E040E050E00E9432027F
:1025B0000F2EF5EA4F2EF4E05F2EF02D0F2EFCEBE0
:1025C0002F2EF2E03F2EF02D0F2EF6EECF2EFBE059
:1025D000DF2EF02D0F2EF0EA9F2EF02D0F2EF0E5BE
:1025E0008F2EF02D0F2EF8EEAF2EFBE0BF2EF02D2C
:1025F00066247724689461F86A0C7B1C0F2EFAEF2E
:10260000EF2EFF24F02D80E090E095D960919A0C98
:1026100070919B0C161617060CF06FC04091980C29
:102620005091990C141615060CF067C0EA01C61BF0
:10263000D70B09F462C0DD23ECF4662777276C1B07
:102640007D0B882777FD8095982F0E94F70920E061
:1026500030E04DEC53E40E94C70820E030EC4FE737
:1026600054E40E94D0070E94530A8CE291E0082FA4
:10267000192F18C0BE01882777FD8095982F0E94DA
:10268000F70920E030E04DEC53E40E94C70820E059
:1026900030EC4FE754E40E94D0070E94530AC10176
:1026A000022D192F8DB79EB708970FB6F8949EBFCD
:1026B0000FBE8DBFEDB7FEB7319651824082D383F6
:1026C000C283758364830683178397D2EDB7FEB701
:1026D00038960FB6F894FEBF0FBEEDBF81E190E0D3
:1026E00060E270E0AE010E94FB0181E190E06EE1EA
:1026F00070E0402F512F0E94FB018091A00C90911F
:10270000A10C01969093A10C8093A00C895E93403C
:102710000CF4BBC01092A10C1092A00CE0D01816C3
:1027200019060CF0ADC0C8D0EC01009709F4A8C0A0
:10273000A0DEF601808191818630910509F469C09F
:1027400087309105ACF48230910509F44FC0833095
:10275000910534F4009731F1019709F089C048C020
:102760008430910509F451C005970CF050C041C068
:102770008930910599F18A3091053CF487309105B3
:10278000C9F0089709F074C024C08B30910509F492
:1027900072C08B3091050CF445C0875E934009F000
:1027A00067C049C0F501808191810ADA81E090E03B
:1027B0004FDE61C0F30160817181F50180819181FB
:1027C0003FD92FEDE8E2F0E0208381E090E040DEA9
:1027D00052C069D981E090E03BDE4DC0F3016081D9
:1027E0007181F5018081918147D945C0B3DD43C036
:1027F00006D9F501808191818233910524F080E032
:1028000090E026DE38C003DD36C073DC34C0E1DB87
:1028100032C08EEF90E068E170E040E050E00E944E
:10282000320229C01092920C1092930C1092940CC8
:102830001092950C20C087EE93E00ADE80E090E0D5
:1028400060E070E06EDB80E090E0DF91CF911F915F
:102850000F91FF90EF90DF90CF90BF90AF909F903F
:102860008F907F906F905F904F903F902F90089542
:1028700080E090E0EDDDFE01282D11922A95E9F728
:10288000F601292D11922A95E9F7C7010197F1F771
:102890008091920C9091930CA091940CB091950C16
:1028A0000196A11DB11D8093920C9093930CA0935F
:1028B000940CB093950CA7CE8091A20C9091A30C90
:1028C000181619061CF020E030E006C01092A30C88
:1028D0001092A20C26EA3CE0822F932F08950E94CA
:1028E000D304181619060CF041C08091000D909188
:1028F000010D41D1282F8A3011F08D30A1F4809143
:10290000A40C9091A50C1816190684F51092A50C2C
:102910001092A40C81E090E09093A30C8093A20C01
:1029200021E030E025C0882309F18091A40C90912A
:10293000A50CFC01EA55F34F208301969093A50C5A
:102940008093A40C8091A40C9091A50C8F349105D8
:102950006CF01092A50C1092A40C81E090E0909382
:10296000A30C8093A20C21E030E002C020E030E014
:10297000822F932F089560E071EE80E090E00E9436
:10298000D6057894089597FB092E07260AD077FD7F
:1029900004D00CD006D000201AF4709561957F4FBA
:1029A0000895F6F7909581959F4F0895AA1BBB1B3C
:1029B00051E107C0AA1FBB1FA617B70710F0A61B3F
:1029C000B70B881F991F5A95A9F780959095BC0160
:1029D000CD0108952F923F924F925F926F927F9216
:1029E0008F929F92AF92BF92CF92DF92EF92FF921F
:1029F0000F931F93CF93DF93CDB7DEB7CA1BDB0BCB
:102A00000FB6F894DEBF0FBECDBF19942A8839885F
:102A100048885F846E847D848C849B84AA84B98476
:102A2000C884DF80EE80FD800C811B81AA81B98182
:102A3000CE0FD11D0FB6F894DEBF0FBECDBFED0196
:102A40000895FC0188279927E89421912032E9F321
:102A5000293010F02E30C8F32B3239F02D3231F4FA
:102A6000689403C035D0820F911D219120532A30E4
:102A7000C8F31EF4909581959F4F089544EE5BE056
:102A800000C0FA01A191B081009719F41097E1F00C
:102A9000CD01DC01CD010D90002011F4C00113C067
:102AA000FB012191222319F02015D9F7F3CFFB0167
:102AB0002191201519F41E92119606C02223C1F708
:102AC0000D900020A1F7D001FA01A193B0830895E1
:102AD0007AE0979F902D879F802D910D1124089566
:102AE0000F931F93CF93DF938C01EB01009731F489
:102AF0006115710519F420E030E037C081E090E005
:102B00006EE070E0B9D2FC019C01009771F180E8A1
:102B10008383209771F0D387C28781E88383809174
:102B2000000D9091010D892B21F4F093010DE0939C
:102B3000000D01151105C9F011870087838182609E
:102B400083838091020D9091030D892B71F4F09392
:102B5000030DE093020D8091040D9091050D892BDA
:102B600021F4F093050DE093040DC901DF91CF919D
:102B70001F910F910895CF93DF93EC014B8140FF9C
:102B80001AC046FF0AC04F7B4B838E819F810196FE
:102B90009F838E838A81282F2BC042FF13C0E88138
:102BA000F9818081282F332727FD309521153105A4
:102BB00029F440624B832FEF3FEF1BC03196F9831E
:102BC000E88311C0EA85FB85CE0119959C0197FF2A
:102BD0000AC09B812F5F3F4F11F080E201C080E16E
:102BE000892B8B83E8CF8E819F8101969F838E8373
:102BF00030E0C901DF91CF910895DF93CF93CDB736
:102C0000DEB7FE013696619171918091020D90912F
:102C1000030DAF0138D0CF91DF9108950F931F932B
:102C2000CF93DF938C01E091020DF091030D83812E
:102C300081FF21C0C0E0D0E00DC0E091020DF09115
:102C4000030D20853185BF01F9011995892B11F0FC
:102C5000CFEFDFEFF80181918F01882371F7E091C9
:102C6000020DF091030D208531858AE0BF01F90145
:102C70001995892B11F0CFEFDFEFCE01DF91CF91C6
:102C80001F910F9108952F923F924F925F926F92F2
:102C90007F928F929F92AF92BF92CF92DF92EF92EC
:102CA000FF920F931F93DF93CF93CDB7DEB72B9790
:102CB0000FB6F894DEBF0FBECDBF3C012B015A0109
:102CC000FC0117821682838181FD03C06FEF7FEFC5
:102CD000B9C19AE0892E1E010894211C311CF30110
:102CE0002381F20123FD859123FF81912F01882308
:102CF00009F4A5C1853239F423FD859123FF819123
:102D00002F01853221F490E0B301F2D2E8CF982F61
:102D1000FF24EE249924FFE1FF15D0F09B3269F0E7
:102D20009C3228F4903259F0933291F40EC09D32C7
:102D300049F0903369F441E024C052E0F52A84E080
:102D4000F82A28C098E0F92A25C0E0E1FE2A22C02E
:102D5000F7FC29C0892F80538A3070F4F6FE05C035
:102D6000989C902C1124980E15C0E89CE02C1124FE
:102D7000E80EF0E2FF2A0EC09E3229F4F6FC5FC195
:102D800040E4F42A07C09C3619F450E8F52A02C042
:102D9000983649F4F20123FD959123FF91912F017B
:102DA000992309F0B8CF892F8554833018F08052C9
:102DB000833038F444E050E0A40EB51E5FE359833D
:102DC0000FC0933631F0933779F0933509F052C044
:102DD0001FC0F5018081898342E050E0A40EB51E3A
:102DE000610101E010E011C0F501C080D180F6FC66
:102DF00003C06FEF7FEF02C0692D70E042E050E04A
:102E0000A40EB51EC60169D28C015FE7F52213C07E
:102E1000F501C080D180F6FC03C06FEF7FEF02C0E8
:102E2000692D70E042E050E0A40EB51EC60143D209
:102E30008C0150E8F52AF3FE06C018C080E290E04D
:102E4000B30156D2EA948E2D90E008171907B0F31B
:102E50000DC0F601F7FC8591F7FE81916F0190E0BE
:102E6000B30146D2E110EA9401501040011511055A
:102E700081F7E2C0943611F0993661F5F7FE08C08B
:102E8000F501208131814281538184E090E00AC0C4
:102E9000F501808191819C01442737FD4095542F95
:102EA00082E090E0A80EB91E9FE6F92257FF09C004
:102EB00050954095309521953F4F4F4F5F4FE0E83B
:102EC000FE2ACA01B901A1012AE030E03DD2D82E84
:102ED000D2183FC0953729F41F2D1F7E2AE030E01D
:102EE0001DC01F2D197F9F3661F0903720F4983553
:102EF00009F0A5C00FC0903739F0983709F09FC08E
:102F000004C028E030E00AC0106114FD146020E124
:102F100030E004C014FD166020E132E017FF08C065
:102F2000F501608171818281938144E050E008C0A5
:102F3000F50180819181BC0180E090E042E050E0A9
:102F4000A40EB51EA10100D2D82ED2188FE7F82EFC
:102F5000F122F6FE0BC05EEFF522D91438F4F4FE30
:102F600007C0F2FC05C08FEEF82202C01D2D01C083
:102F7000192DF4FE0DC0FE01ED0DF11D8081803391
:102F800019F499EEF92208C01F5FF2FE05C003C0D4
:102F90008F2D867809F01F5F0F2DF3FC13C0F0FE14
:102FA0000EC01E1510F09D2C0AC09D2C9E0C911A6F
:102FB0001E2D05C080E290E0B3019AD11F5F1E155F
:102FC000C8F304C01E1510F4E11A01C0EE2404FF7A
:102FD0000EC080E390E0B3018BD102FF1BC001FD66
:102FE00003C088E790E00EC088E590E00BC0802F1A
:102FF000867881F001FF02C08BE201C080E2F7FC1D
:103000008DE290E0B30174D105C080E390E0B3019C
:103010006FD19A94D914C8F3DA94F101ED0DF11D32
:10302000808190E0B30164D1DD20B1F705C080E27A
:1030300090E0B3015DD1EA94EE20C9F750CEF301E0
:1030400066817781CB012B960FB6F894DEBF0FBE59
:10305000CDBFCF91DF911F910F91FF90EF90DF9047
:10306000CF90BF90AF909F908F907F906F905F9028
:103070004F903F902F9008950F931F93CF93DF931E
:10308000689F8001699F100D789F100D1124C80161
:103090000DD0EC01009721F060E070E0A80116D19E
:1030A000CE01DF91CF911F910F910895CF93DF93C0
:1030B000BC018230910510F462E070E0A091080D2F
:1030C000B091090DED01E0E0F0E040E050E021C0FA
:1030D000888199818617970769F48A819B81309747
:1030E00019F09383828304C09093090D8093080D97
:1030F000FE0134C06817790738F44115510519F0FD
:103100008417950708F4AC01FE018A819B819C011C
:10311000E9012097E9F641155105A9F1CA01861B7D
:10312000970B049708F4BA01E0E0F0E02AC08D9113
:103130009C91119784179507F9F46417750781F42A
:1031400012968D919C911397309719F093838283F7
:1031500004C09093090D8093080DFD0132964FC075
:10316000CA01861B970BFD01E80FF91F619371934C
:1031700002978D939C9343C0FD01828193819C01B2
:10318000D9011097A1F68091060D9091070D892B1A
:1031900041F48091D8059091D9059093070D8093C3
:1031A000060D4091DA055091DB054115510541F4BA
:1031B0004DB75EB78091D6059091D705481B590B46
:1031C0002091060D3091070D24173507B0F4CA0180
:1031D000821B930B8617970780F0AB014E5F5F4F02
:1031E0008417950750F0420F531F5093070D4093DB
:1031F000060DF9016193719302C0E0E0F0E0CF01A8
:10320000DF91CF910895CF93DF93009709F450C0D9
:10321000EC0122971B821A82A091080DB091090D32
:10322000109709F140E050E0AC17BD0708F1BB83EF
:10323000AA83FE0121913191E20FF31FAE17BF0760
:1032400079F48D919C911197280F391F2E5F3F4F74
:103250003983288312968D919C9113979B838A833F
:103260004115510571F4D093090DC093080D20C08C
:1032700012968D919C911397AD01009711F0DC018E
:10328000D3CFFA01D383C28321913191E20FF31F8F
:10329000CE17DF0769F488819981280F391F2E5FC7
:1032A0003F4FFA01318320838A819B8193838283FC
:1032B000DF91CF910895FC0105906150704001109D
:1032C000D8F7809590958E0F9F1F0895DC0101C05F
:1032D0006D9341505040E0F70895FC0161507040FB
:1032E00001900110D8F7809590958E0F9F1F08953B
:1032F0000F931F93CF93DF938C01EB018B8181FFA1
:103300001BC082FF0DC02E813F818C819D812817BB
:10331000390764F4E881F9810193F983E88306C0F1
:10332000E885F985802F1995892B31F48E819F814D
:1033300001969F838E8302C00FEF1FEFC801DF91BC
:10334000CF911F910F910895FA01AA27283051F1CA
:10335000203181F1E8946F936E7F6E5F7F4F8F4FC6
:103360009F4FAF4FB1E03ED0B4E03CD0670F781F25
:10337000891F9A1FA11D680F791F8A1F911DA11D0A
:103380006A0F711D811D911DA11D20D009F4689443
:103390003F912AE0269F11243019305D3193DEF6EB
:1033A000CF010895462F4770405D4193B3E00FD0A1
:1033B000C9F7F6CF462F4F70405D4A3318F0495D8C
:1033C00031FD4052419302D0A9F7EACFB4E0A6956F
:1033D0009795879577956795BA95C9F70097610591
:1033E000710508959B01AC010A2E069457954795E7
:1033F00037952795BA95C9F7620F731F841F951FDC
:08340000A01D0895F894FFCF10
:10340800434F4D4D5F54584641494C3A20466169F7
:103418006C6564207472616E736D697420696E7373
:103428007472756374696F6E207061636B65742163
:1034380000434F4D4D5F54584552524F523A204920
:103448006E636F727265637420696E7374727563EC
:1034580074696F6E207061636B65742100434F4D12
:103468004D5F52584641494C3A204661696C656443
:103478002067657420737461747573207061636B61
:1034880065742066726F6D206465766963652100D6
:10349800434F4D4D5F525857414954494E473A2082
:1034A8004E6F7720726563696576696E67207374FD
:1034B80061747573207061636B65742100434F4DAF
:1034C8004D5F525854494D454F55543A20546865FC
:1034D8007265206973206E6F207374617475732030
:1034E8007061636B65742100434F4D4D5F525843C3
:1034F8004F52525550543A20496E636F7272656349
:103508007420737461747573207061636B657421C2
:10351800005468697320697320756E6B6E6F776EDF
:10352800206572726F7220636F64652100496E7046
:10353800757420766F6C74616765206572726F723E
:103548002100416E676C65206C696D697420657235
:10355800726F7221004F76657268656174206572BA
:10356800726F7221004F7574206F662072616E67EA
:1035780065206572726F722100436865636B7375AD
:103588006D206572726F7221004F7665726C6F6183
:1035980064206572726F722100496E73747275636C
:1035A80074696F6E20636F6465206572726F722133
:1035B8000025643B0A00232323206D6F76652031A4
:1035C80000232323206D6F74696F6E436F756E74CB
:1035D800203E206D61782E206D6F74696F6E436F89
:1035E800756E743A25642C206D61783A25640A005A
:1035F800232323206D6F74696F6E436F756E743A61
:1036080025640A0025642025640A0025643A256497
:103618002C25642C25642C25642C25642C25642CED
:1036280025642C25642C25642C25642C25642C25E4
:10363800640A0025643A25642C25642C25642C250D
:10364800642C25642C25642C25642C25642C256485
:103658002C25642C25642C25642C25640A002564FB
:103668003A7B25642C2025642C2025642C20256495
:103678002C2025642C2025642C2025642C202564EE
:103688007D0A0025640A0A00202C002323232073C6
:10369800656E736F72496E697400232323207374F7
:1036A8006172740D00232323204759524F203D2077
:1036B80025642C205350454544203D2025642C206A
:1036C800474F414C203D2025640D0A0001000000B1
:1036D80000000000000000010202030303030404C9
:1036E8000404040404040505050505050505050588
:1036F8000505050505050606060606060606060668
:103708000606060606060606060606060606060651
:103718000606060606060707070707070707070737
:103728000707070707070707070707070707070721
:103738000707070707070707070707070707070711
:103748000707070707070707070707070707070701
:1037580007070707070708080808080808080808E7
:1037680008080808080808080808080808080808D1
:1037780008080808080808080808080808080808C1
:1037880008080808080808080808080808080808B1
:1037980008080808080808080808080808080808A1
:1037A8000808080808080808080808080808080891
:1037B8000808080808080808080808080808080881
:1037C8000808080808080808080808080808080871
:1037D80008080808080820000A0D00000200040074
:1037E8000E001100050007001000060070003D01E2
:1037F8008E03C2028E03C20270003D016400700095
:1038080033018E03C2028E03C202250056016400F2
:10381800250000023203000232030002CD0000023C
:10382800C800CD0000023203000232030002CD00BE
:1038380000026400CD0000023203000232030002DD
:10384800CD0000026400CD00000232030002320302
:103858000002CD0000026400CD0000023203000225
:1038680032030002CD0000026400CD0000023203E2
:10387800000232030002CD000002640066009A01D3
:10388800980366029803660266009A016400CD00F8
:1038980000023203000232030002CD00000264007D
:1038A800DE006501A203C2028E03C2022F0060017E
:1038B800C8005C003D01C003E0025C039A0270008E
:1038C8003D01C8005C003D01C003E002CF039F0238
:1038D80070003D01C8005C003D0120039002CF0349
:1038E8009F0270003D01C80052002901A203C202D4
:1038F8008E03AE02A2004701C80052002901A203AC
:10390800C2028E03C2022F006001C80070003D0190
:103918008E03C2028E03C20270003D016400700073
:103928003D018E03C2028E03C20270003D01640095
:1039380070003D018E03C2028E03C20270003D0179
:10394800640070003D018E03C2028E03C202700043
:103958003D016400660033019803CC029803CC0251
:10396800660033013200660033019803CC029803E5
:10397800CC02660033013200660033019803CC02A2
:103988009803CC02660033013200660033019803C5
:10399800CC029803CC026600330132006600330182
:1039A8009803CC029803CC0266003301320066000B
:1039B80033019803CC029803CC026600330132002D
:1039C800660033019803CC029803CC0266003301E9
:1039D8003200660033019803CC029803CC026600DB
:1039E80033013200660033019803CC029803CC02FD
:1039F8006600330132000000330198033203980354
:103A08003203000033013200000033019803CC0276
:103A18009803CC020000330132006600330198039A
:103A2800CC029803CC026600330132000000330157
:103A38009803320398033203000033013200000078
:103A480033019803CC029803CC0200003301320002
:103A5800660033019803CC029803CC026600330158
:103A680032006600CD00FF03CC02FF03CC026600E3
:103A7800CD00640066003301FF03CC02FF03CC02D3
:103A8800660033016400660033019803CC02980392
:103A9800CC026600330164006600CD00FF03CC024F
:103AA800FF03CC026600CD00640066003301FF030B
:103AB800CC02FF03CC0266003301640066003301C8
:103AC8009803CC029803CC026600330164009A0183
:103AD800CC0232030002980366020000330164003E
:103AE800330100023203000298030002CD000002F5
:103AF8006400330100029803000232030002000050
:103B0800330164003301000298030002980366023F
:103B180066009A016400CD00000266023301FF03CB
:103B2800CC0266009A016400CD000002CC020002BB
:103B38003203000266000002640066000002CC0244
:103B48000002FF03CC02CD00000264006600000200
:103B5800CC0200029803660266009A016400CD0058
:103B680000023203000232030002CD0000026400AA
:043B78000100FFFF4A
:00000001FF
