:1000000065C0000084C0000082C0000080C0000005
:100010007EC000007CC000007AC0000078C00000F4
:1000200076C0000074C0000072C0000070C0000004
:100030006EC000006CC000006AC0000068C0000014
:1000400066C0000064C0000062C0000060C0000024
:100050005EC000005CC000005AC0000058C0000034
:1000600056C0000024C4000052C0000050C0000070
:100070004EC000004CC000004AC0000048C0000054
:1000800046C0000044C0000042C0000040C0000064
:1000900013C500003CC000003AC0000038C000009A
:1000A00036C0000034C0000032C0000030C0000084
:1000B0002EC000002CC000002AC0000028C0000094
:1000C00026C0000024C0000022C0000011241FBE72
:1000D000CFEFD1E2DEBFCDBF00E00CBF1AE0A0E061
:1000E000B2E0E6E4FFE200E00BBF02C007900D9231
:1000F000AC38B107D9F72EE0ACE8BAE001C01D92E8
:10010000AC33B207E1F70E94E70C0C94A11778CF4B
:100110008091000290910102089580938E0A0895C3
:100120008093900A0895FC01E457F54F6583089584
:1001300080938F0A089520E030E09091300B98234F
:1001400011F021E030E0C901089580912F0B90E07B
:100150000895FC01E45DF44F858190E00895362F09
:1001600020E0280F391FC9010895282F30E0C90168
:1001700008958070892F90E008950F931F93CF9377
:10018000DF938091740B9091750B892B09F4B8C0A3
:1001900080918E0A8E3F09F4A9C08091000290914F
:1001A0000102892B29F41092730B86E08093720B65
:1001B0008091730B90E06091720B70E0681B790B7B
:1001C000845D944F49D39091730B980F9093730B68
:1001D0008091720B981718F44AD2019771F07091C0
:1001E000730B472F50E0DA0111978A01025010403B
:1001F00060E0ED01C45DD44F18C08091730B88237B
:1002000009F071C086E090E073C0F901E45DF44F3D
:1002100080818F3F19F481818F3F61F02017310772
:1002200019F488818F3F31F06F5F262F30E02A1755
:100230003B075CF36623A1F090E0421B530B08C020
:10024000E45DF44FDF01A20FB31F8C9180839F5FA9
:10025000E92FF0E0E417F5079CF3761B7093730B1E
:100260002091730B8091720B281728F190918E0AC0
:1002700080912E0B9817B9F560912F0B6C5F6093EE
:10028000720B261788F4822F90E070E0681B790BC0
:10029000845D944FE1D29091730B980F9093730B00
:1002A0008091720B981738F080912F0BA82FB0E037
:1002B00020E090E00CC085E090E0909301028093F4
:1002C00000021EC0E45DF44F8281980F2F5FE22F81
:1002D000F0E0AE17BF07B4F7A45DB44F9095139646
:1002E0008C91891719F087E090E002C081E090E0DE
:1002F00090930102809300021092750B1092740B80
:10030000DF91CF911F910F9108951F938091740BEE
:100310009091750B019709F45DC081E090E0909396
:10032000750B8093740B80918F0A893940F49091FA
:10033000900A892F8150863028F0933819F084E094
:1003400090E02FC08FEF80938C0A80938D0A80916C
:100350008F0AA82FB0E020E090E005C0E457F54FE9
:100360008281980F2F5FE22FF0E0AE17BF07B4F73E
:10037000A457B54F909513969C938091000290914D
:1003800001020697029708F438D110918F0A1C5F7A
:100390008CE89AE0612F70E035D1181759F082E0AF
:1003A00090E090930102809300021092750B1092DE
:1003B000740B10C08091900A823029F48091920AC7
:1003C00090E0069602C086E090E040D110920102D3
:1003D000109200021F91089598DF80910002909181
:1003E0000102892B39F4C9DE80910002909101024B
:1003F0000597C9F30895282F8091740B9091750B80
:10040000892B91F420938E0A83E08093900A609365
:10041000910ACA014093920A80709093930A85E0F2
:1004200080938F0AD9CF0895FFCF282F8091740B26
:100430009091750B892BB1F420938E0A82E0809302
:10044000900A6093910A8093920A84E080938F0AC5
:10045000C3DF3091320B20E08091310B280F311D2A
:10046000C9010895FFCF282F8091740B9091750BCF
:10047000892B71F420938E0A83E08093900A609315
:10048000910A4093920A84E080938F0AA5CF089541
:10049000FFCF282F8091740B9091750B892B91F4CD
:1004A00020938E0A82E08093900A6093910A81E003
:1004B0008093920A84E080938F0A8EDF8091310BC3
:1004C00090E00895FFCF282F8091740B9091750BC9
:1004D000892B51F420938E0A81E08093900A82E068
:1004E00080938F0A79CF0895FFCF86C008950F9328
:1004F0001F938C016F5F7F4F882777FD8095982F22
:100500000E9488119B01AC0160E074E284EF99E4E1
:100510000E94ED10AB01BC01C80115D0892B19F464
:1005200020E030E00CC081E090E0909301028093E5
:1005300000021092750B1092740B21E030E0C9019B
:100540001F910F910895EF92FF920F931F937A01DD
:100550008B0182E48093C00088E98093C10086E02B
:100560008093C20060E074E284EF99E4A8019701EF
:100570000E94ED100E945A11615070407093C500A6
:100580006093C40060E074E284E799E4A8019701F5
:100590000E94ED1020E030E040E451E40E943C1263
:1005A00060932A0E70932B0E80932C0E90932D0E39
:1005B00020912A0E30912B0E40912C0E50912D0E31
:1005C00060E070E08AE793E40E94ED100E945A1107
:1005D0007093290E6093280E7298739A8FEF809310
:1005E000C6001092760C1092770C81E090E01F917B
:1005F0000F91FF90EF90089508958091770C80936C
:10060000760C0895AC01F8947398729A20E030E06B
:1006100011C08091C00085FFFCCF8091C000806434
:100620008093C000FA01E20FF31F80818093C6001F
:100630002F5F3F4F2617370764F38091C00086FF76
:10064000FCCF7298739A7894C90108951092310E74
:100650001092300E2091280E3091290E265F3F4FC8
:10066000280F391F30932F0E20932E0E0895AF922E
:10067000BF92CF92DF92EF92FF920F931F938091E0
:10068000300E9091310E01969093310E8093300E82
:100690002091300E3091310E80912E0E90912F0EC0
:1006A0008217930718F421E030E074C0A0902A0E5E
:1006B000B0902B0EC0902C0ED0902D0EC601B5011F
:1006C0002BEA3AEA4AEA50E40E943C127B018C0190
:1006D00020E030E040E85FE30E94E910882314F452
:1006E00061E054C0C801B70120E030E04FE753E4B7
:1006F0000E94381218160CF045C0C601B50120E062
:1007000030E04AE754E40E94ED105B016C0120E008
:1007100030E04AE755E40E943C127B018C0120E066
:1007200030E040E85FE30E94E91088231CF461E0B8
:1007300070E024C0C801B70120E03FEF4FE757E465
:100740000E9438121816B4F4C601B50120E030E05A
:1007500040E251E40E943C120E945A1180E991E06B
:1007600005C0FC013197F1F76150704061157105CA
:10077000C1F70EC0C801B7010E945A11CB01019701
:10078000F1F706C0C801B7010E945A116A95F1F746
:1007900020E030E0C9011F910F91FF90EF90DF90B2
:1007A000CF90BF90AF9008959091760C8091770C88
:1007B000981719F420E030E017C09091760C8091E2
:1007C000770C981738F48091770C9091760C282F3D
:1007D00030E008C08091770C9091760C282F30E0A3
:1007E00020503F4F291B3109C90108951F93182F2D
:1007F000DBDF8F3F910591F0E091770CF0E0EA5854
:10080000F44F10838091770C8F3F19F41092770C7E
:1008100005C08091770C8F5F8093770C1F910895AE
:100820009091760C8091770C981711F4EFEF12C02D
:10083000E091760CF0E0EA58F44FE0818091760C7C
:100840008F3F19F41092760C05C08091760C8F5F63
:100850008093760C8E2F0895EF92FF920F931F9343
:10086000CF93DF937C01EB019091760C8091770C14
:10087000981719F400E010E012C096DF8C01C81739
:10088000D9070CF48E01C0E0D0E006C0C9DFF70143
:10089000EC0FFD1F80832196C017D107BCF3C80160
:1008A000DF91CF911F910F91FF90EF9008951F92CC
:1008B0000F920FB60F920BB60F9211242F933F9306
:1008C0004F935F936F937F938F939F93AF93BF9358
:1008D000EF93FF938091C60089DFFF91EF91BF9165
:1008E000AF919F918F917F916F915F914F913F91C8
:1008F0002F910F900BBE0F900FBE0F901F90189569
:10090000AC0120E030E00CC08091C80085FFFCCF36
:10091000FA01E20FF31F80818093CE002F5F3F4FDB
:10092000261737078CF30895DC019091F80C80911D
:10093000F90C981711F480E008959091F80C8091CB
:10094000F90C981719F420E030E017C09091F80CDA
:100950008091F90C981738F48091F90C9091F80C6B
:10096000282F30E008C08091F90C9091F80C282FC6
:1009700030E020583F4F291B3109A9016217730746
:100980000CF4AB0120E030E020C09091F80C809195
:10099000F90C981711F49FEF12C0E091F80CF0E0F9
:1009A000E858F34F90818091F80C8F3719F410922A
:1009B000F80C05C08091F80C8F5F8093F80CFD0156
:1009C000E20FF31F90832F5F3F4F24173507ECF2A0
:1009D000842F08959091F80C8091F90C981719F4D0
:1009E00020E030E017C09091F80C8091F90C981736
:1009F00038F48091F90C9091F80C282F30E008C061
:100A00008091F90C9091F80C282F30E020583F4F3E
:100A1000291B3109C9010895482F9091F80C809144
:100A2000F90C9817D1F09091F80C8091F90C981767
:100A300038F48091F90C9091F80C282F30E008C020
:100A40008091F90C9091F80C282F30E020583F4FFE
:100A5000291B31092F37310591F0E091F90CF0E0B5
:100A6000E858F34F40838091F90C8F3719F41092B6
:100A7000F90C08958091F90C8F5F8093F90C08951B
:100A80009091F80C8091F90C981711F4EFEF12C0C7
:100A9000E091F80CF0E0E858F34FE0818091F80C19
:100AA0008F3719F41092F80C05C08091F80C8F5F05
:100AB0008093F80C8E2F08951F920F920FB60F920D
:100AC0000BB60F9211242F933F934F935F936F9325
:100AD0007F938F939F93AF93BF93EF93FF938091F7
:100AE000CE009ADFFF91EF91BF91AF919F918F91CF
:100AF0007F916F915F914F913F912F910F900BBE1E
:100B00000F900FBE0F901F901895DF93CF930F9209
:100B10000F92CDB7DEB7982F8A3099F48DE0898394
:100B20009A83FE0131969E012D5F3F4F8091C80050
:100B300085FFFCCF81918093CE00E217F307B1F7D8
:100B400006C08091C80085FFFCCF9093CE0080E066
:100B500090E00F900F90CF91DF9108959091F80C55
:100B60008091F90C9817D1F39091F80C8091F90CC1
:100B7000981738F48091F90C9091F80C282F30E0F8
:100B800008C08091F90C9091F80C282F30E0205883
:100B90003F4F291B3109232B09F39091F80C8091C9
:100BA000F90C981711F4EFEF15C0E091F80CF0E094
:100BB000E858F34FE0818091F80C8F3719F41092C8
:100BC000F80C05C08091F80C8F5F8093F80CED3025
:100BD00009F4EAE08E2F90E008950E9488119B01AD
:100BE000AC0160E074E284EF99E40E94ED100E9491
:100BF0005A116150704022E42093C80028E92093E4
:100C0000C90026E02093CA002FEF2093CE00109257
:100C1000F80C1092F90C272F332727FD3A952093D3
:100C2000CD006093CC007298739A85E895E06EEAE7
:100C300075E00E94EE129093FB0C8093FA0C0895DD
:100C40008F929F92AF92BF92CF92DF92EF92FF92DC
:100C50000F931F93CF93DF938091FE0C9091FF0C25
:100C6000803D27E0920734F401969093FF0C809327
:100C7000FE0C29C10E940A0F8F3191050CF47EC031
:100C800080E497E00E9489131092FF0C1092FE0CF2
:100C900000E217E00F2EFCE0EF2EF2E0FF2EF02D29
:100CA00088248394912CC0E0D0E06801570109C0EA
:100CB00021968FEF881A980A0E5F1F4FE2E0EE0E22
:100CC000F11CC230D105A1F448EC50E060E270E0C4
:100CD000F601848195818FDBF5014481558144566D
:100CE00051096EE170E0F6018481958184DBE0CFEB
:100CF000C830D10591F448EC50E060E270E0F601B4
:100D00008089918978DBF501408951896EE170E035
:100D1000F601808991896FDBCBCFC530D10519F001
:100D2000CB30D105A1F448EC50E060E270E0F8016E
:100D30008081918160DBF7014081518144515109EB
:100D40006EE170E0F8018081918155DB11C048ECC3
:100D500050E060E270E0F801808191814CDBF701A6
:100D6000408151816EE170E0F8018081918143DB27
:100D7000FCE08F1691040CF49BCFA5C0823E9F4FE0
:100D80000CF07EC08FE497E00E9489131092FF0C54
:100D90001092FE0C00E217E00F2EFCE0EF2EF2E0C6
:100DA000FF2EF02D88248394912CC0E0D0E06801C0
:100DB000570109C021968FEF881A980A0E5F1F4FBE
:100DC000E2E0EE0EF11CC230D10591F448EC50E0A7
:100DD00060E270E0F601848195810DDBF5014481CC
:100DE00055816EE170E0F6018481958104DBE2CFEC
:100DF000C830D105A1F448EC50E060E270E0F601A3
:100E000080899189F8DAF501408951894C595F4F01
:100E10006EE170E0F60180899189EDDACBCFC530C3
:100E2000D10519F0CB30D105A1F448EC50E060E2D7
:100E300070E0F80180819181DEDAF7014081518113
:100E40004C5E5F4F6EE170E0F80180819181D3DAF2
:100E500011C048EC50E060E270E0F80180819181BF
:100E6000CADAF701408151816EE170E0F8018081BA
:100E70009181C1DAFCE08F1691040CF49BCF23C062
:100E80008FE597E00E9489130CE012E0C0E2D7E002
:100E90000F2EF8E3CF2EF7E0DF2EF02D7E0144E693
:100EA00050E060E270E089919991A5DAF8014191F2
:100EB00051918F016EE170E0F701808191819BDAA1
:100EC000CC15DD0559F7DF91CF911F910F91FF9060
:100ED000EF90DF90CF90BF90AF909F908F9008954C
:100EE00086E897E00E94891360E071EE80E090E070
:100EF00074DE789486E880937A0081E080937C00A9
:100F000008959C018130910551F08230910561F086
:100F1000892B71F481E080937C00179809C082E0EE
:100F200080937C00169804C083E080937C00159821
:100F300084E08A95F1F7EAE7F0E0808180618083C0
:100F4000808180648083908194FFFDCF8EEF82B991
:100F50002130310559F02230310571F0232B89F40D
:100F6000809178009091790032D60BC08091780002
:100F7000909179008DD605C080917800909179008C
:100F8000E8D620917800309179008091040D9091FD
:100F9000050D280F391F3093050D2093040D809106
:100FA000020D9091030D01969093030D8093020D15
:100FB0000597A4F08091060D9091070D9093090D6F
:100FC0008093080D3093070D2093060D1092030DAA
:100FD0001092020D1092050D1092040D08959F932A
:100FE0008F9385E997E09F938F930E9476130F90DC
:100FF0000F900F900F90089561E070E080E090E016
:1010000076DA41E050E06FE270E08FE190E0F3D9F2
:1010100040E050E060E270E08EEF90E0ECD940E01C
:1010200050E068E170E08EEF90E01DDA2FE38DE094
:1010300093E0215080409040E1F700C00000089507
:101040000F931F93CF93DF9300D0CDB7DEB720E28D
:101050003CE240E029833A834B83BE016F5F7F4FC0
:101060000E94BC12009789F00CE11DE00E949F12C3
:10107000F801819391938F01BE016F5F7F4F80E0F4
:1010800090E00E94BC12009789F70F900F900F908C
:10109000DF91CF911F910F91089580911E0D909136
:1010A0001F0D823391059CF4E0E2FDE02AE1289FC8
:1010B000D001299FB00D1124A45FBD4F2AE33DE06C
:1010C000819191918D939D93E217F307C9F708954C
:1010D000CF92DF92EF92FF920F931F93CF93DF9304
:1010E000CDB7DEB768970FB6F894DEBF0FBECDBFA1
:1010F000FE01319688E1DF011D928A95E9F700E251
:1011000017E07F010F2EF8E3CF2EF7E0DF2EF02D52
:1011100064E270E0F801819191918F0186D9D70145
:101120008D939D937D010C151D0591F7888D8F93EF
:101130008F898F938E898F938D898F938C898F93CD
:101140008B898F938A898F9389898F9388898F93CD
:101150008F858F938E858F938D858F938C858F93BD
:101160008B858F938A858F9389858F9388858F93BD
:101170008F818F938E818F938D818F938C818F93AD
:101180008B818F938A818F9389818F931F9282E0C5
:101190008F938AE997E09F938F930E9476130FB6FF
:1011A000F894DEBF0FBECDBF68960FB6F894DEBFD1
:1011B0000FBECDBFDF91CF911F910F91FF90EF90A8
:1011C000DF90CF9008952AE1AC01249FC001259FB4
:1011D000900D1124FC01E45FFD4F818D8F93808D74
:1011E0008F9387898F9386898F9385898F9384893D
:1011F0008F9383898F9382898F9381898F9380893D
:101200008F9387858F9386858F9385858F9384852C
:101210008F9383858F9382858F9381858F9380852C
:101220008F9387818F9386818F9385818F9384811C
:101230008F9383818F9382818F9381818F9380811C
:101240008F931F9283E08F938FEC97E09F938F9300
:101250000E9476138DB79EB74E960FB6F8949EBF38
:101260000FBE8DBF0895CF92DF92EF92FF920F9342
:101270001F93CF93DF93CDB7DEB768970FB6F8947F
:10128000DEBF0FBECDBFFE01319688E1DF011D92AA
:101290008A95E9F700E217E07F010F2EF8E3CF2EE1
:1012A000F7E0DF2EF02D68E270E0F8018191919176
:1012B0008F01BBD8D7018D939D937D010C151D0522
:1012C00091F7888D8F938F898F938E898F938D89D6
:1012D0008F938C898F938B898F938A898F93898938
:1012E0008F9388898F938F858F938E858F938D852C
:1012F0008F938C858F938B858F938A858F93898528
:101300008F9388858F938F818F938E818F938D811B
:101310008F938C818F938B818F938A818F93898117
:101320008F931F9284E08F938AEF97E09F938F9320
:101330000E9476130FB6F894DEBF0FBECDBF68963D
:101340000FB6F894DEBF0FBECDBFDF91CF911F91D6
:101350000F91FF90EF90DF90CF900895CF92DF92A2
:10136000EF92FF920F931F93CF93DF93CDB7DEB72A
:1013700068970FB6F894DEBF0FBECDBFFE01319661
:1013800088E1DF011D928A95E9F700E217E07F010D
:101390000F2EF8E3CF2EF7E0DF2EF02D6AE270E09B
:1013A000F801819191918F0140D80E94B500D70139
:1013B0008D939D937D010C151D0581F7888D8F936D
:1013C0008F898F938E898F938D898F938C898F933B
:1013D0008B898F938A898F9389898F9388898F933B
:1013E0008F858F938E858F938D858F938C858F932B
:1013F0008B858F938A858F9389858F9388858F932B
:101400008F818F938E818F938D818F938C818F931A
:101410008B818F938A818F9389818F931F9285E02F
:101420008F938AEF97E09F938F930E9476130FB666
:10143000F894DEBF0FBECDBF68960FB6F894DEBF3E
:101440000FBECDBFDF91CF911F910F91FF90EF9015
:10145000DF90CF9008959093130D8093120D7093A9
:10146000110D6093100D2091180D3091190D232B43
:1014700061F490931B0D80931A0D7093190D609376
:10148000180D1092110D1092100D089590931B0DD0
:1014900080931A0D7093190D6093180D1092110D11
:1014A0001092100D81E090E090930B0280930A025D
:1014B0001092170D1092160D089581E090E0909310
:1014C0000B0280930A021092190D1092180D1092BF
:1014D000170D1092160D8FEF9FEF909309028093D6
:1014E0000802089581E090E00E949B00019721F49A
:1014F00087E298E00E94891382E090E00E949B00BE
:10150000019721F48CE398E00E94891384E090E035
:101510000E949B00019721F48FE498E00E948913B8
:1015200088E090E00E949B00019721F48FE598E00D
:101530000E94891380E190E00E949B00019721F4B2
:1015400083E798E00E94891380E290E00E949B006C
:10155000019721F483E898E00E94891380E490E0E9
:101560000E949B00019721F483E998E00C94891371
:1015700008958430910599F034F48230910551F04A
:10158000039791F025C086309105C1F094F007973C
:10159000D1F01EC08BEA98E00C94891308958CED6D
:1015A00098E00C948913089588E099E00C948913CD
:1015B00008958BE399E00C948913089588E699E0E7
:1015C0000C948913089583E999E00C948913089584
:1015D0008CEB99E00C94891308950F931F93CF938C
:1015E000DF93082F192FD62FC72F7F936F939F93C9
:1015F0008F9388ED99E09F938F930E9476138EEFDF
:1016000090E00E948D0083E890E00E94900060E2EC
:1016100070E080E090E00E94930062E070E081E082
:1016200090E00E949300602F712F82E090E00E9472
:1016300093008D2F9C2F0E94B500BC0183E090E0A9
:101640000E9493008D2F9C2F0E94B900BC0184E062
:1016500090E00E94930087E090E00E9498000E9432
:10166000EC010E9488000F900F900F900F900F9048
:101670000F908130910511F435DF01C07ADFDF91E1
:10168000CF911F910F9108952F923F924F925F92A9
:101690006F927F928F929F92AF92BF92CF92DF9282
:1016A000EF92FF920F931F93CF93DF93CDB7DEB7E7
:1016B000EE970FB6F894DEBF0FBECDBF8233910513
:1016C0000CF06CC19AAF89AFFE01319688E1DF0161
:1016D0001D928A95E9F720E237E03EAF2DAF2AE16F
:1016E00049AD5AAD249FC001259F900D1124DC0106
:1016F000A45FBD4FBCAFABAF1F015E01B9E1AB0E44
:10170000B11C8F01CBACDCAC0F2EF0E2EF2EF7E07A
:10171000FF2EF02D812C912C64E270E0F701819175
:1017200091917F010E941502D6012D913D916D018D
:10173000F901E81BF90BCF0122F0D801ED93FC93DE
:1017400006C0919581959109F80191838083D80114
:101750008D919D918D01881699060CF44C010A1506
:101760001B05D1F68E01075E1F4F88E1F80111922B
:101770008A95E9F784E690E09A8F898F8AE129AD0E
:101780003AAD829FF001839FF00D1124E45FFD4F7D
:10179000608D718D072E000C880B990BB9D569AB44
:1017A0007AAB8BAB9CAB38016E0131E3C30ED11C1D
:1017B000C401990CAA0BBB0B8DAB9EABAFABB8AF02
:1017C00044244394512CD101ED90FD901D016DA94D
:1017D0007EA98FA998AD9CD54B015C01B701FF0C88
:1017E000880B990B95D5A5019401F7D49B01AC0109
:1017F00069A97AA98BA99CA93FD657D5611571050E
:1018000021F0F8017183608303C0D8014D925C928E
:101810000E5F1F4F0C151D05B1F68AE129AD3AADDB
:10182000829FF001839FF00D1124E45FFD4F608DD6
:10183000718D8BEF93E103D4072E000C880B990B6D
:1018400067D5A501940118D630D5161617062CF4C5
:101850007093150D6093140D06C081E090E0909395
:10186000150D8093140D8EEF90E00E948D0083E89B
:1018700090E00E94900060E270E080E090E00E94C2
:10188000930062E070E081E090E00E9493000F2EF0
:10189000F8E3AF2EF7E0BF2EF02D0F2EF0E2EF2E83
:1018A000F7E0FF2EF02D02E010E0D7016D917D9161
:1018B0007D01C8010E949300F301C190D1903F01C6
:1018C000C6010E94B500BC01C80101960E949300A8
:1018D000C6010E94B900BC01C80102960E94930093
:1018E0000D5F1F4FEA14FB0401F788E290E00E94AD
:1018F00098000E94EC010E9488008130910509F057
:101900004CC0F0DD8EEF90E00E948D0083E890E007
:101910000E9490006EE170E080E090E00E949300F1
:1019200062E070E081E090E00E94930002E010E04D
:10193000CDACDEACEBACFCACD6016D917D916D0114
:10194000C8010E9493005701F701819191917F0195
:101950000E94B500BC01C80101960E949300D50108
:101960008D919C910E94B900BC01C80102960E9411
:1019700093000D5F1F4F06321105F1F688E290E0EB
:101980000E9498000E94EC010E948800813091051D
:1019900011F4A8DD03C0EDDD01C0EBDDEE960FB65E
:1019A000F894DEBF0FBECDBFDF91CF911F910F9195
:1019B000FF90EF90DF90CF90BF90AF909F908F906F
:1019C0007F906F905F904F903F902F900895CF92AF
:1019D000DF92FF920F931F93CF93DF938CEF81B928
:1019E0008EEF82B98FE787B98EE788B980E78AB929
:1019F00081E18BB901DBBAD273DA8FED99E089D638
:101A000080910A0D90910B0D019741F440E050E058
:101A100068E170E08EEF90E00E943302CCE1DDE0FF
:101A200010EA00E50F2EFFEDFF2EF02D80E090E094
:101A300068DA81E090E065DA82E090E062DA00D96D
:101A40008091000D9091010D0196893E23E092074F
:101A50002CF49093010D8093000D8DC01092010D18
:101A60001092000D8BD2181619060CF07FC0D6D23A
:101A70006C01009709F47AC0E3DA288139812630B5
:101A8000310509F459C0A4F42230310509F442C0EB
:101A900044F42115310511F12130310509F43CC020
:101AA0005DC02430310509F443C00CF436C042C097
:101AB0002930310549F13CF427303105B1F02830A7
:101AC0003105E9F04BC02B30310509F44AC00CF464
:101AD0003CC0273E334009F468C040C08A819B81E6
:101AE000D3DD81E090E07BDA3CC06C817D818A812E
:101AF0009B81B1DCF8B881E090E071DA32C0DDDCC6
:101B000081E090E06CDA2DC06C817D818A819B81BF
:101B1000BDDC27C0DDDA25C0C0DA8A819B81823333
:101B2000910524F080E090E05ADA1BC04CDB19C02C
:101B30009ADB17C013DC15C040E050E068E170E0AC
:101B40008EEF90E00E9433020CC010920C0D1092A8
:101B50000D0D10920E0D10920F0D03C080E090E05D
:101B60003EDAF601202F11922A95E9F7FE01212F86
:101B700011922A95E9F789EF90E00197F1F700C0FB
:101B8000000080910C0D90910D0DA0910E0DB09163
:101B90000F0D0196A11DB11D80930C0D90930D0D9D
:101BA000A0930E0DB0930F0D41CF87EE93E017DA9F
:101BB00060E070E080E090E010DD80E090E0DF9198
:101BC000CF911F910F91FF90DF90CF9008952091BA
:101BD000C00D3091C10D2A30310548F54091C60D38
:101BE0005091C70D452B21F49093C70D8093C60DDE
:101BF000092E000CAA0BBB0B4091D00D5091D10DBA
:101C00006091D20D7091D30D840F951FA61FB71F41
:101C10008093D00D9093D10DA093D20DB093D30D9E
:101C20002F5F3F4F3093C10D2093C00D08952A3090
:101C30003105F4F06091D00D7091D10D8091D20DED
:101C40009091D30D2AE030E040E050E00BD2309389
:101C5000C70D2093C60D1092C10D1092C00D1092A9
:101C6000D00D1092D10D1092D20D1092D30D089577
:101C700088E39AE04ED51092C10D1092C00D1092DB
:101C8000D00D1092D10D1092D20D1092D30D089557
:101C90002091BE0D3091BF0D2A30310548F540919D
:101CA000C40D5091C50D452B21F49093C50D809323
:101CB000C40D092E000CAA0BBB0B4091CC0D50910A
:101CC000CD0D6091CE0D7091CF0D840F951FA61F85
:101CD000B71F8093CC0D9093CD0DA093CE0DB093F4
:101CE000CF0D2F5F3F4F3093BF0D2093BE0D089552
:101CF0002A303105F4F06091CC0D7091CD0D8091BA
:101D0000CE0D9091CF0D2AE030E040E050E0AAD116
:101D10003093C50D2093C40D1092BF0D1092BE0DCF
:101D20001092CC0D1092CD0D1092CE0D1092CF0DC1
:101D3000089588E39AE0EDD41092BF0D1092BE0D85
:101D40001092CC0D1092CD0D1092CE0D1092CF0DA1
:101D500008952091BC0D3091BD0D2A30310548F514
:101D60004091C20D5091C30D452B21F49093C30DAA
:101D70008093C20D092E000CAA0BBB0B4091C80D1D
:101D80005091C90D6091CA0D7091CB0D840F951FB4
:101D9000A61FB71F8093C80D9093C90DA093CA0DBD
:101DA000B093CB0D2F5F3F4F3093BD0D2093BC0DF3
:101DB00008952A303105F4F06091C80D7091C90D75
:101DC0008091CA0D9091CB0D2AE030E040E050E0C8
:101DD00049D13093C30D2093C20D1092BD0D1092C6
:101DE000BC0D1092C80D1092C90D1092CA0D109220
:101DF000CB0D089588E39AE08CD41092BD0D10921B
:101E0000BC0D1092C80D1092C90D1092CA0D1092FF
:101E1000CB0D08954F925F926F927F928F929F9217
:101E2000AF92BF92CF92DF92EF92FF920F931F93E8
:101E3000CF93DF93C0903807D0903907E0903A07EE
:101E4000F0903B0720913C0730913D0740913E07C1
:101E500050913F07C701B60158D120E030E040E083
:101E60005FE30AD34B015C018091C60D9091C70DD1
:101E7000BC01990F880B990B4BD2A501940144D159
:101E80002B013C01A5019401C701B6013DD19B0185
:101E9000AC01C301B201A1D1662E772E082F192FF4
:101EA00097FD03C0C5E4DAE002C0C3E4DAE020E055
:101EB00030E048EC52E4662D772D802F912FDCD254
:101EC000F4D14B015C01CB016AE070E0B8D09C0119
:101ED000992324F422273327281B390B3F932F9370
:101EE00020E030E040E251E4662D772D802F912FE5
:101EF000C3D2DBD1CB016AE070E0A1D09C01992371
:101F000024F422273327281B390B3F932F93662D68
:101F1000772D802F912FC9D19B01772324F422277D
:101F20003327261B370B3F932F93DF93CF9387E401
:101F30009AE09F938F93DAD38DB79EB70A960FB628
:101F4000F8949EBF0FBE8DBFC401DF91CF911F914A
:101F50000F91FF90EF90DF90CF90BF90AF909F9048
:101F60008F907F906F905F904F90089560E071EE3A
:101F700080E090E00E94ED05789408950E94EA04C4
:101F8000181619060CF03EC08091320E9091330E57
:101F90006FD38A3011F08D3091F48091240E90919E
:101FA000250E181619068CF51092250E1092240E87
:101FB00081E090E09093270E8093260E0895882369
:101FC00039F12091240E3091250EA9014F5F5F4F0A
:101FD0005093250E4093240EF901EC52F24F80836A
:101FE0008091240E9091250E8F349105A4F01092CB
:101FF000250E1092240E81E090E09093270E80939E
:10200000260E089580E090E0089580E090E0089525
:1020100080E090E0089580E090E008958091260EA1
:102020009091270E181619063CF41092270E109264
:10203000260E84ED9DE0089580E090E0089597FBE2
:10204000072E16F4009406D077FD08D027D007FCA1
:1020500005D03EF4909581959F4F089570956195B8
:102060007F4F0895052E97FB16F400940FD057FD6F
:1020700005D028D007FC02D046F408C05095409502
:10208000309521953F4F4F4F5F4F08959095809524
:10209000709561957F4F8F4F9F4F0895AA1BBB1B73
:1020A00051E107C0AA1FBB1FA617B70710F0A61B58
:1020B000B70B881F991F5A95A9F780959095BC0179
:1020C000CD010895A1E21A2EAA1BBB1BFD010DC074
:1020D000AA1FBB1FEE1FFF1FA217B307E407F507D8
:1020E00020F0A21BB30BE40BF50B661F771F881FB4
:1020F000991F1A9469F760957095809590959B014A
:10210000AC01BD01CF0108955058BB27AA270ED0BE
:1021100075C166D130F06BD120F031F49F3F11F4DE
:102120001EF45BC10EF4E095E7FB51C1E92F77D1B6
:1021300080F3BA17620773078407950718F071F4E4
:102140009EF58FC10EF4E0950B2EBA2FA02D0B013A
:10215000B90190010C01CA01A0011124FF27591BEC
:1021600099F0593F50F4503E68F11A16F040A22FF2
:10217000232F342F4427585FF3CF46953795279563
:10218000A795F0405395C9F77EF41F16BA0B620B62
:10219000730B840BBAF09150A1F0FF0FBB1F661FA9
:1021A000771F881FC2F70EC0BA0F621F731F841FEC
:1021B00048F4879577956795B795F7959E3F08F012
:1021C000B3CF9395880F08F09927EE0F97958795D1
:1021D0000895D9D008F481E008950CD00FC107D13B
:1021E00040F0FED030F021F45F3F19F0F0C0511103
:1021F00039C1F3C014D198F39923C9F35523B1F32E
:10220000951B550BBB27AA2762177307840738F065
:102210009F5F5F4F220F331F441FAA1FA9F333D0C4
:102220000E2E3AF0E0E830D091505040E695001C78
:10223000CAF729D0FE2F27D0660F771F881FBB1F34
:10224000261737074807AB07B0E809F0BB0B802D0E
:10225000BF01FF2793585F4F2AF09E3F510568F05A
:10226000B6C000C15F3FECF3983EDCF386957795EE
:102270006795B795F7959F5FC9F7880F911D96955C
:10228000879597F90895E1E0660F771F881FBB1FB8
:10229000621773078407BA0720F0621B730B840B65
:1022A000BA0BEE1F88F7E095089504D06894B11139
:1022B000D9C00895BCD088F09F5790F0B92F9927C6
:1022C000B751A0F0D1F0660F771F881F991F1AF041
:1022D000BA95C9F712C0B13081F0C3D0B1E008950A
:1022E000C0C0672F782F8827B85F39F0B93FCCF38B
:1022F000869577956795B395D9F73EF49095809537
:10230000709561957F4F8F4F9F4F0895E89409C056
:1023100097FB3EF490958095709561957F4F8F4F18
:102320009F4F9923A9F0F92F96E9BB279395F6952E
:10233000879577956795B795F111F8CFFAF4BB0FAC
:1023400011F460FF1BC06F5F7F4F8F4F9F4F16C010
:10235000882311F096E911C0772321F09EE8872F9A
:10236000762F05C0662371F096E8862F70E060E056
:102370002AF09A95660F771F881FDAF7880F9695CF
:10238000879597F90895990F0008550FAA0BE0E873
:10239000FEEF16161706E807F907C0F01216130627
:1023A000E407F50798F0621B730B840B950B39F467
:1023B0000A2661F0232B242B252B21F408950A26CD
:1023C00009F4A140A6958FEF811D811D089597F90D
:1023D0009F6780E870E060E008959FEF80EC0895CB
:1023E00000240A94161617061806090608950024F4
:1023F0000A9412161306140605060895092E03946E
:10240000000C11F4882352F0BB0F40F4BF2B11F4E1
:1024100060FF04C06F5F7F4F8F4F9F4F089557FD40
:102420009058440F551F59F05F3F71F04795880F42
:1024300097FB991F61F09F3F79F0879508951216D9
:1024400013061406551FF2CF4695F1DF08C0161685
:1024500017061806991FF1CF869571056105089436
:102460000895E894BB2766277727CB0197F908954D
:102470008ADF08F48FEF08950BD0C0CFB1DF28F0CA
:10248000B6DF18F0952309F0A2CFA7CF1124EACF29
:10249000C6DFA0F3959FD1F3950F50E0551F629FC3
:1024A000F001729FBB27F00DB11D639FAA27F00DAD
:1024B000B11DAA1F649F6627B00DA11D661F829FD4
:1024C0002227B00DA11D621F739FB00DA11D621FB9
:1024D000839FA00D611D221F749F3327A00D611DD6
:1024E000231F849F600D211D822F762F6A2F1124B8
:1024F0009F5750408AF0E1F088234AF0EE0FFF1F0B
:10250000BB1F661F771F881F91505040A9F79E3F41
:10251000510570F05CCFA6CF5F3FECF3983EDCF343
:10252000869577956795B795F795E7959F5FC1F77E
:10253000FE2B880F911D9695879597F90895FC01BC
:1025400088279927E89421912032E9F3293010F067
:102550002E30C8F32B3239F02D3231F4689403C099
:1025600035D0820F911D219120532A30C8F31EF4DB
:10257000909581959F4F08954CEF5CE000C0FA0163
:10258000A191B081009719F41097E1F0CD01DC0121
:10259000CD010D90002011F4C00113C0FB01219169
:1025A000222319F02015D9F7F3CFFB012191201533
:1025B00019F41E92119606C02223C1F70D90002037
:1025C000A1F7D001FA01A193B08308957AE0979F13
:1025D000902D879F802D910D112408950F931F93A7
:1025E000CF93DF93009731F46115710519F480E002
:1025F00090E039C08B01EC016EE070E081E090E08A
:10260000A6D2FC01892B99F380E88383011511057B
:1026100071F01387028781E883838091320E909155
:10262000330E892B21F4F093330EE093320E209772
:10263000C9F0D187C0878381826083838091340E03
:102640009091350E892B71F4F093350EE093340E92
:102650008091360E9091370E892B21F4F093370E2E
:10266000E093360ECF01DF91CF911F910F91089526
:10267000CF93DF93EC012B8120FF33C026FF0AC0EC
:102680002F7B2B838E819F8101969F838E838A81EE
:1026900090E029C022FF0FC0E881F9818081082ED7
:1026A000000C990B009719F420622B831AC0319605
:1026B000F983E8830EC0EA85FB85199597FF09C069
:1026C0002B81019611F080E201C080E1822B8B8387
:1026D00008C02E813F812F5F3F4F3F832E83992774
:1026E00002C08FEF9FEFDF91CF910895CF93DF93DB
:1026F000CDB7DEB7AE014A5F5F4FFA0161917191CC
:10270000AF018091340E9091350E33D0DF91CF918F
:1027100008950F931F93CF93DF93E091340EF091C0
:10272000350E238121FF1BC08C01D0E0C0E0F801F1
:1027300081918F016091340E7091350EDB011896F6
:10274000ED91FC911997882331F01995892B79F334
:10275000DFEFCFEFECCF8AE01995892B19F08FEFDF
:102760009FEF02C08D2F9C2FDF91CF911F910F9172
:1027700008952F923F924F925F926F927F928F9225
:102780009F92AF92BF92CF92DF92EF92FF920F9300
:102790001F93CF93DF93CDB7DEB72C970FB6F89486
:1027A000DEBF0FBECDBF7C016B018A01FC01178229
:1027B0001682838181FFB0C1CE0101964C01F701E1
:1027C0009381F60193FD859193FF81916F01882399
:1027D00009F49EC1853239F493FD859193FF81916F
:1027E0006F01853221F4B70190E015D3E8CF512C69
:1027F000312C20E02032A0F48B3269F030F48032AA
:1028000059F0833269F420612CC08D3239F0803365
:1028100039F4216026C02260246023C0286021C0D2
:1028200027FD27C030ED380F3A3078F426FF06C078
:10283000FAE05F9E300D1124532E13C08AE0389EBB
:10284000300D1124332E20620CC08E3221F426FD6F
:102850005FC1206406C08C3611F4206802C088363F
:1028600041F4F60193FD859193FF81916F018111F0
:10287000C1CF982F9F7D9554933028F40C5F1F4F44
:10288000FFE3F9830DC0833631F0833771F0833570
:1028900009F057C021C0F801808189830E5F1F4F66
:1028A00044244394512C540114C03801F2E06F0EBB
:1028B000711CF801A080B18026FF03C0652D70E077
:1028C00002C06FEF7FEFC5012C879AD22C018301E4
:1028D0002C852F77222E16C03801F2E06F0E711C66
:1028E000F801A080B18026FF03C0652D70E002C012
:1028F0006FEF7FEFC5012C8771D22C012C852068EA
:10290000222E830123FC19C0832D90E0481659061E
:10291000A0F4B70180E290E07ED23A94F5CFF501C1
:1029200027FC859127FE81915F01B70190E073D26A
:1029300031103A94F1E04F1A51084114510479F7DB
:10294000DEC0843611F0893631F5F80127FF07C063
:1029500060817181828193810C5F1F4F08C060810B
:102960007181072E000C880B990B0E5F1F4F2F767D
:10297000722E97FF09C090958095709561957F4F55
:102980008F4F9F4F2068722E2AE030E0A4017BD247
:10299000A82EA81843C0853729F42F7EB22E2AE02E
:1029A00030E025C0F22FF97FBF2E8F36C1F018F42A
:1029B000883579F0ADC0803719F0883721F0A8C08C
:1029C0002F2F2061B22EB4FE0DC08B2D8460B82E47
:1029D00009C024FF0AC09F2F9660B92E06C028E0C8
:1029E00030E005C020E130E002C020E132E0F80133
:1029F000B7FE07C060817181828193810C5F1F4F98
:102A000006C06081718180E090E00E5F1F4FA401DD
:102A10003AD2A82EA818FB2DFF777F2E76FE0BC08A
:102A2000372D3E7FA51450F474FE0AC072FC08C016
:102A3000372D3E7E05C0BA2C372D03C0BA2C01C0FD
:102A4000B52C34FF0DC0FE01EA0DF11D80818033ED
:102A500011F4397E09C032FF06C0B394B39404C0A8
:102A6000832F867809F0B39433FD12C030FF06C07F
:102A70005A2CB31418F4530C5B18B32CB31460F431
:102A8000B70180E290E03C87C6D1B3943C85F6CF95
:102A9000B31410F43B1801C0312C34FF11C0B7013E
:102AA00080E390E03C87B7D13C8532FF16C031FD12
:102AB00003C088E790E002C088E590E0B7010CC051
:102AC000832F867851F031FF02C08BE201C080E293
:102AD00037FD8DE2B70190E09ED1A51430F4B70127
:102AE00080E390E098D15A94F8CFAA94F401EA0DCB
:102AF000F11D8081B70190E08ED1A110F6CF332077
:102B000009F45DCEB70180E290E085D13A94F7CF29
:102B1000F7018681978102C08FEF9FEF2C960FB649
:102B2000F894DEBF0FBECDBFDF91CF911F910F9103
:102B3000FF90EF90DF90CF90BF90AF909F908F90DD
:102B40007F906F905F904F903F902F9008950F93DC
:102B50001F93CF93DF93869F8001879F100D969FD1
:102B6000100D1124C8010DD0EC01009721F0A8012F
:102B700060E070E03ED1CE01DF91CF911F910F91C7
:102B80000895CF93DF938230910510F482E090E0B6
:102B9000E0913A0EF0913B0E20E030E0C0E0D0E052
:102BA000309711F14081518148175907C0F04817FB
:102BB000590761F482819381209719F09B838A835E
:102BC0002BC090933B0E80933A0E26C02115310501
:102BD00019F04217530718F49A01BE01DF01EF0103
:102BE0000280F381E02DDCCF2115310509F1281B8E
:102BF000390B2430310590F412968D919C911397E6
:102C00006115710521F0FB019383828304C09093C9
:102C10003B0E80933A0EFD01329644C0FD01E20F57
:102C2000F31F81939193225031092D933C933AC025
:102C30002091380E3091390E232B41F4209104025B
:102C4000309105023093390E2093380E2091020204
:102C5000309103022115310541F42DB73EB7409163
:102C6000060250910702241B350BE091380EF091BB
:102C7000390EE217F307A0F42E1B3F0B2817390774
:102C800078F0AC014E5F5F4F2417350748F04E0FC8
:102C90005F1F5093390E4093380E8193919302C079
:102CA000E0E0F0E0CF01DF91CF9108950F931F9303
:102CB000CF93DF93009709F48CC0FC013297138205
:102CC000128200913A0E10913B0E0115110581F40C
:102CD00020813181820F931F2091380E3091390E5F
:102CE0002817390779F5F093390EE093380E71C043
:102CF000D80140E050E0AE17BF0750F412962D9176
:102D00003C911397AD012115310509F1D901F3CF9C
:102D10009D01DA013383228360817181860F971FC1
:102D20008217930769F4EC0128813981260F371F38
:102D30002E5F3F4F318320838A819B8193838283DF
:102D4000452B29F4F0933B0EE0933A0E42C01396C4
:102D5000FC93EE931297ED01499159919E01240F36
:102D6000351FE217F30771F480819181840F951F5D
:102D7000029611969C938E938281938113969C93D5
:102D80008E931297E0E0F0E0D80112968D919C911D
:102D90001397009719F0F8018C01F6CF8D919C9153
:102DA00098012E5F3F4F820F931F2091380E309174
:102DB000390E2817390769F4309729F410923B0E21
:102DC00010923A0E02C0138212821093390E0093B1
:102DD000380EDF91CF911F910F910895FC0105905E
:102DE000615070400110D8F7809590958E0F9F1F0D
:102DF0000895DC0101C06D9341505040E0F7089503
:102E0000FC016150704001900110D8F780959095B9
:102E10008E0F9F1F08950F931F93CF93DF93FB0196
:102E2000238121FD03C08FEF9FEF28C022FF16C032
:102E300046815781248135814217530744F4A0818C
:102E4000B1819D012F5F3F4F318320838C93268179
:102E500037812F5F3F4F3783268310C0EB01092F47
:102E6000182F0084F185E02D1995892BE1F68E81CC
:102E70009F8101969F838E83812F902FDF91CF9129
:102E80001F910F910895FA01AA27283051F120319E
:102E900081F1E8946F936E7F6E5F7F4F8F4F9F4FEE
:102EA000AF4FB1E03ED0B4E03CD0670F781F891F30
:102EB0009A1FA11D680F791F8A1F911DA11D6A0FFE
:102EC000711D811D911DA11D20D009F468943F91B1
:102ED0002AE0269F11243019305D3193DEF6CF01B0
:102EE0000895462F4770405D4193B3E00FD0C9F776
:102EF000F6CF462F4F70405D4A3318F0495D31FDE3
:102F00004052419302D0A9F7EACFB4E0A695979535
:102F1000879577956795BA95C9F70097610571050B
:102F200008959B01AC010A2E069457954795379555
:102F30002795BA95C9F7620F731F841F951FA01DAF
:062F40000895F894FFCF94
:102F4600010000003C0E2000FFFF0100900212036A
:102F5600F401CB023A0206025C011802F6012601D0
:102F6600C101F4016400700033018E03C2028E03B6
:102F7600C2022500560164000000000000000000A7
:102F8600250000023203000232030002CD000002D7
:102F9600C8000000000000000000CD00000232035F
:102FA600000232030002CD000002640000000000AF
:102FB60000000000CD0000023203000232030002CE
:102FC600CD00000264000000000000000000CD00FB
:102FD60000023203000232030002CD000002640048
:102FE6000000000000000000CD00000232030002D5
:102FF60032030002CD000002640000000000000061
:103006000000CD0000023203000232030002CD00B0
:1030160000026400000000000000000066009A0143
:10302600980366029803660266009A01640000002F
:10303600000000000000CD0000023203000232034F
:103046000002CD0000026400000000000000000045
:10305600DE006501A203C2028E03C2022F006001D8
:10306600C80000000000000000005C003D01C00335
:10307600E0025C039A0270003D01C80000000000F7
:10308600000000005C003D01C003E002CF039F0288
:1030960070003D01C80000000000000000005C0058
:1030A6003D0120039002CF039F0270003D01C8003E
:1030B600000000000000000052002901A203C20225
:1030C6008E03AE02A2004701C80000000000000007
:1030D600000052002901A203C2028E03C2022F0081
:1030E6006001C800000000000000000070003D0103
:1030F6008E03C2028E03C20270003D01640000000E
:1031060000000000000070003D018E03C2028E0325
:10311600C20270003D0164000000000000000000D3
:1031260070003D018E03C2028E03C20270003D0193
:103136006400000000000000000070003D018E03E6
:10314600C2028E03C20270003D016400000000004E
:1031560000000000660033019803CC029803CC02FD
:103166006600330132000000000000000000660027
:1031760033019803CC029803CC0266003301320077
:103186000000000000000000660033019803CC0236
:103196009803CC02660033013200000000000000F4
:1031A6000000660033019803CC029803CC02660047
:1031B6003301320000000000000000006600330109
:1031C6009803CC029803CC0266003301320000005B
:1031D600000000000000660033019803CC0298034B
:1031E600CC0266003301320000000000000000003F
:1031F600660033019803CC029803CC0266003301C3
:103206003200000000000000000066003301980351
:10321600CC029803CC0266003301320000000000A5
:1032260000000000660033019803CC029803CC022C
:1032360066003301320000000000000000000000BC
:10324600330198033203980332030000330132003E
:103256000000000000000000000033019803CC02CB
:103266009803CC0200003301320000000000000089
:103276000000660033019803CC029803CC02660076
:10328600330132000000000000000000000033019E
:103296009803320398033203000033013200000022
:1032A600000000000000000033019803CC029803E0
:1032B600CC020000330132000000000000000000D4
:1032C600660033019803CC029803CC0266003301F2
:1032D600320000000000000000006600CD00FF0381
:1032E600CC02FF03CC026600CD00640000000000A3
:1032F6000000000066003301FF03CC02FF03CC028E
:103306006600330164000000000000000000660053
:1033160033019803CC029803CC02660033016400A3
:1033260000000000000000006600CD00FF03CC0294
:10333600FF03CC026600CD00640000000000000020
:10334600000066003301FF03CC02FF03CC026600D7
:103356003301640000000000000000006600330135
:103366009803CC029803CC02660033016400000087
:103376000000000000009A01CC023203000298030C
:103386006602000033016400000000000000000037
:10339600330100023203000298030002CD0000024E
:1033A60064000000000000000000330100029803E2
:1033B6000002320300020000330164000000000036
:1033C6000000000033010002980300029803660221
:1033D60066009A0164000000000000000000CD00B5
:1033E600000266023301FF03CC0266009A01640004
:1033F6000000000000000000CD000002CC02000228
:1034060032030002660000026400000000000000B3
:10341600000066000002CC020002FF03CC02CD00D1
:1034260000026400000000000000000066000002C8
:10343600CC0200029803660266009A01640000004E
:10344600000000000000CD0000023203000232033B
:103456000002CD0000026400000000000000000031
:103466000D0008000A00050009000C000400060013
:10347600100013000F000B0000C035440000794314
:10348600232323204C65616E204C6566740D002352
:103496002323204C65616E2052696768740D0023F2
:1034A6002323204E6F7420696E636C696E656420F9
:1034B600746F20746865206C656674206F72207264
:1034C600696768740D002323232073656E736F721A
:1034D600496E69740025640A0A0025643A7B2564EE
:1034E6002C2025642C2025642C2025642C20256482
:1034F6002C2025642C2025642C2025642C20256472
:103506002C2025642C2025642C2025647D0A00258A
:10351600643A25642C25642C25642C25642C2564AA
:103526002C25642C25642C25642C25642C25642CE0
:1035360025642C25642C25640A0025643A25642C10
:1035460025642C25642C25642C25642C25642C25C7
:10355600642C25642C25642C25642C25642C256478
:103566000A0025643B0A00496E70757420766F6CFC
:1035760074616765206572726F722100416E676CB7
:1035860065206C696D6974206572726F7221004FD7
:1035960076657268656174206572726F7221004F7C
:1035A6007574206F662072616E6765206572726F32
:1035B600722100436865636B73756D206572726F67
:1035C6007221004F7665726C6F6164206572726F4E
:1035D600722100496E737472756374696F6E20632D
:1035E6006F6465206572726F722100434F4D4D5FA7
:1035F60054584641494C3A204661696C65642074CA
:1036060072616E736D697420696E7374727563741A
:10361600696F6E207061636B65742100434F4D4D79
:103626005F54584552524F523A20496E636F727238
:1036360065637420696E737472756374696F6E2046
:103646007061636B65742100434F4D4D5F52584660
:1036560041494C3A204661696C656420676574206F
:10366600737461747573207061636B657420667220
:103676006F6D206465766963652100434F4D4D5F2C
:10368600525857414954494E473A204E6F77207257
:103696006563696576696E672073746174757320F6
:1036A6007061636B65742100434F4D4D5F525854F2
:1036B600494D454F55543A205468657265206973E3
:1036C600206E6F20737461747573207061636B650F
:1036D600742100434F4D4D5F5258434F525255503F
:1036E600543A20496E636F72726563742073746115
:1036F600747573207061636B657421005468697317
:1037060020697320756E6B6E6F776E206572726FAF
:103716007220636F6465210025642025640A0023F6
:1037260023232073746172740D00232323206D6F8D
:103736007665203100232323206D6F74696F6E43F5
:103746006F756E74203E206D61782E206D6F7469E2
:103756006F6E436F756E743A25642C206D61783AEE
:1037660025640A00232323206D6F74696F6E436FEF
:10377600756E743A25640A00232323204F6F7073F5
:10378600210D002D002B0023232320676574475845
:1037960020257325642E25642564470D0A002323FE
:1037A6002320676574475920257325642E256425D3
:1037B60064470D0A0023232320676574475A202592
:0C37C6007325642E25642564470D0A005D
:00000001FF
